:020000040800F2
:10000000D0050020D1540008A9540008AB540008C2
:10001000AD540008AF540008B154000800000000BF
:10002000000000000000000000000000B3540008C1
:10003000B554000800000000B7540008B954000887
:10004000195500081D5500082155000825550008C0
:10005000295500082D550008315500083555000870
:10006000395500083D550008415500084555000820
:10007000495500084D5500085155000855550008D0
:1000800059550008000000005D5500086155000842
:1000900065550008695500086D5500087155000840
:1000A00075550008795500087D55000881550008F0
:1000B00085550008895500088D55000891550008A0
:1000C00095550008995500089D550008A155000850
:1000D000A5550008A9550008AD550008B155000800
:1000E000B5550008B9550008BD550008C1550008B0
:1000F000C5550008C9550008CD550008000000008E
:1001000000000000D155000800000000D55500088F
:10011000D955000800000000DD550008E155000831
:10012000E5550008E9550008ED550008F1550008AF
:10013000F55500080000000000000000F955000817
:10014000FD550008015600080000000000000000F6
:10015000000000000000000000000000000000009F
:10016000000000000000000000000000055600082C
:100170000956000800000000000000000000000018
:10018000000000000D560008000000000000000004
:10019000000000000000000000000000000000005F
:1001A000000000000000000011560008155600086D
:1001B000195600081D5600082156000800000000CE
:1001C00000000000255600080000000000000000AC
:1001D000295600082D56000840F0200070472DE9F0
:1001E000F14FB0B0924604910DF142013A9A2B9131
:1001F00099464A7000200AE01AF8011B0498309AC8
:1002000090470028049000F042860D98401C0D9005
:100210009AF8000050B12528EED100210022079164
:10022000089209910A920B910C9204E00D9800F04B
:1002300030BE41F001011AF8010F2028F9D023281F
:100240000CD02B2804D02D2805D0302809D00BE065
:1002500041F00201EFE741F00401ECE741F0080151
:10026000E9E741F01001E6E72A280FD1D9F800208C
:1002700052F8040BC9F8002000280F9003D5404223
:100280000F9041F004010AF1010A14E00F92DFF827
:10029000083C0AE00F98984205DA00EB800402EB74
:1002A0004402303A0F920AF1010A9AF80020A2F1B2
:1002B00030000A28EED39AF800002E2803D04FF021
:1002C000FF320E9229E01AF8010F2A2809D1D9F835
:1002D000000050F8042BC9F800000E920AF1010A40
:1002E0001BE02D280CBF0AF1010A002000220E920B
:1002F000DFF8A44B0BE040B90E9AA24205DA02EBFC
:10030000820503EB4503303B0E930AF1010A9AF88C
:100310000030A3F130020A2AEDD3ADF840100FF6F9
:100320007C309AF8001000F0D1FE08B11AF8010BE9
:100330008DF842009DF84200682805D19AF8000027
:1003400068280CD1622106E06C2804BF9AF80000EE
:100350006C2804D171218DF842100AF1010A12A80B
:1003600006901AF801BBBBF125012CD01C3900F016
:100370009481091F022940F29081133900F0B98459
:10038000093900F08A81891E00F04E85491E00F06F
:10039000FB84491E022940F28081091F00F0F48489
:1003A000491F00F0EF80491E00F0A384491E00F0B1
:1003B000D780C91E0CD0891E00F09B84C91E00F096
:1003C000988400F03CBD01230793252100F034BD43
:1003D000D9F8000050F8044BC9F80000002C05942F
:1003E00040F0AB802B994878002800F0A1804FF0B6
:1003F000FF340FF6B02000F079FE201A40F0478558
:1004000000F029BD01236A4602A9304600F00EFE25
:10041000002840F03C856D1EF4D13096079D12AF48
:1004200075B1309E17F8011B0498B047002804905E
:1004300000F02D850D98401C6D1E0D90F2D1309668
:100440000A9D3021002D8DF800100CDD309E012317
:100450006A4602A9304600F0E9FD002840F0178501
:100460006D1EF4D13096059F089D75B1309E17F82A
:10047000011B0498B0470028049000F008850D98EF
:10048000401C6D1E0D90F2D130960B9D3021002D39
:100490008DF800100CDD309E01236A4602A930461B
:1004A00000F0C4FD002840F0F2846D1EF4D13096B7
:1004B00005980899099D471875B1309E17F8011BDA
:1004C0000498B0470028049000F0E1840D98401C87
:1004D0006D1E0D90F2D130960C9D3021002D8DF8BF
:1004E00000100CDD309E01236A4602A9304600F060
:1004F0009DFD002840F0CB846D1EF4D130969DF810
:10050000400041077FF584AE2020002C8DF80000CC
:100510007FF77EAE309D01236A4602A9284600F08F
:1005200085FD002840F0B384641EF4D130956FE659
:100530000FF65830059000F08EBC0E9D002D04D5AE
:10054000204600F0F3FD044607E02A46204600F06E
:1005500009FE002814BF041B2C46089400F07BBC45
:10056000D9F8001051F8040BC9F8001020F000046D
:10057000002121F0FF35CDE9024512AB059378212A
:1005800000F04EBC2B99487820B14FF0FF340FF6A5
:10059000CC2030E79DF84200622860D0682817D050
:1005A0006A283FD06C2806D0712847D074282CD0F8
:1005B0007A281DD062E0D9F8001051F8040BC9F870
:1005C0000010002866D14FF0FF340FF6A82012E784
:1005D000D9F8001051F8040BC9F8001020B94FF0F9
:1005E000FF340FF6902006E70D99018000F033BC30
:1005F000D9F8001051F8040BC9F80010002849D1AF
:100600004FF0FF340FF66C20F5E6D9F8001051F8E2
:10061000040BC9F8001000283CD14FF0FF340FF64E
:100620005420E8E6D9F8001051F8040BC9F800107E
:1006300080B94FF0FF340FF63C20DCE6D9F800100B
:1006400051F8040BC9F8001020B94FF0FF340FF631
:100650002420D0E60D9AD317C0E90023FBE3D9F894
:10066000001051F8040BC9F8001020B94FF0FF3406
:100670000FF60020BFE60D990170ECE3D9F80010E9
:1006800051F8040BC9F8001020B94FF0FF340FF6F1
:10069000E410B0E60D990160DDE39DF842004C28BE
:1006A00007BFD9F80010CA1DD9F80000C21D22F0FA
:1006B0000702C9F80020D2E900010832C9F8002079
:1006C000CDE90201C80F02D007982D210AE0BDF83C
:1006D0004000810702D507982B2103E0C00705D50C
:1006E0000798202112AA1154401C079012A80799BC
:1006F0004BF0200300EB010CDDE90201CDE92C01F8
:10070000612BCDF814C021AC0BD00E98002848BF47
:10071000062105D404BF4BF02000672801D1012138
:100720000E91DDE902014F0047EAD0777E15FF17F1
:100730004FF0FF32974208BF964210D1090341EAB9
:1007400010510003002908BF002808D0ABF1610553
:1007500003211A2D089118D30FF6381110E0DDE9A6
:1007600002014A00521512F1010F11D108030FD1F5
:10077000ABF1610503211A2D08911FD30FF61C114F
:100780000322604600F01AFD65E30FF60411F7E757
:10079000DDE902016A4600F065FDCDE902014BF09A
:1007A0002000612811D1059830210170821C05922A
:1007B000BBF1610F0CBF7821582102E00FF6D80180
:1007C000DEE741700798801C0790DDE9020120F008
:1007D000000231F0004308BF002A02D100260025A4
:1007E00042E14BF02008B8F1610F40F092800E9882
:1007F000002847BF21210191401C0190019FDDE9A4
:100800002C017F1C00220023DDE9024500F062FD7F
:1008100038BF85F0004500998DF88420091F002F0E
:1008200000910DF1850632DD204629460022002385
:1008300000F06AFD2BD21C2200F080FD04460D461C
:1008400000F01AFEFF1F002F804609DD00F030FE89
:1008500002460B462046294600F0F2FE04460D46AD
:10086000F01D0721B8F1000F0CDD491E5EBF08F036
:100870000F0200F8012D4FEA2818F3D502E00022FC
:1008800000F8012D491EFAD5C61D002FCCDC0DF154
:100890008500361A01980DF185048642D8BF30468E
:1008A00000282FD4B04206DA0DF185010A5C082A2F
:1008B000A8BF0F2100DA0021024621AB134400E05B
:1008C000401E13F80159521E8D42F9D00F2904D150
:1008D0000DF185018B5C5B1C8B54002A04D50099BB
:1008E000091D21AC401C0091411E0BD462181378E5
:1008F0003033DDB23A2DA4BF5B443A3B491E02F8C7
:100900000139F4D50E99002940F1AC80421E0E92B7
:10091000A8E00099DFF8042747F29750414391FB84
:10092000F2F20092DDE92C45C2F10702002A25F01F
:10093000004504DD2046294600F04CFB0BE0524206
:100940000020DFF8DC1600F045FB02460B4620468F
:10095000294600F0E7FE04460D46B8F1660F06BFD3
:10096000009F0A3706270E983F18142FC8BF142778
:1009700030208DF884000DF18506002F34DD2046EF
:10098000294600F0F3FF01460A4606F10803042059
:100990000A26B2FBF6F606EB860EA2EB4E023032CA
:1009A00003F8012C0A22B6FBF2F202EB820EA6EB50
:1009B0004E063036401E03F8026DE9D1083F002F85
:1009C00003F10806D9DD084600F0E2FF02460B46B7
:1009D0002046294600F034FE0022DFF8483600F0B9
:1009E000E5FF04460D46CAE70DF18500361A0DF104
:1009F000850404E00098401E761E0090641C207858
:100A00003028F7D0B8F1660F02D10099491C04E0F4
:100A1000B8F1650F0CBF012100210E98081886421D
:100A2000B8BF701E00281DD4B04204DA215C3429FE
:100A3000C8BF392100DC30210246631E9D1800E04A
:100A4000401E15F80169521E8E42F9D0392902D193
:100A5000A15C491CA154002A04D50099491C1C46DC
:100A6000401C00910646009D01F076F8406A077828
:100A7000DDF8388030B2002802DC01260FF2206455
:100A80004BF02000662808BF6D1C16D0672846D1A1
:100A900028B210F1040F48DB404546DA9DF84000CB
:100AA0006D1C010703D430B24045D8BF804628B240
:100AB000B8EB000848BF4FF000080FFA85FBBBF108
:100AC000000F00F3B5800898411C08913022059969
:100AD0000A54B8F1000F03DC9DF84000010704D56B
:100AE0000898411C089105990F5418EB0B0FB8BFDB
:100AF000C8F100052DB26842A84432B20B9090456F
:100B0000B8BF4646059B089836B20996324621463C
:100B1000184400F053FBA8EB06000C90D2E0BBF1A8
:100B2000610F17D14FF0700B19E030B2404504DA75
:100B30009DF840100A0758BF8046B8F1010848BF29
:100B40004FF00008BBF1670F14BF4FF0450B4FF09B
:100B5000650B04E0BBF1410F08BF4FF0500B089844
:100B6000411C0891B8F1000F059914F8012B0A54A3
:100B700003DC9DF8400001071AD50898411C089134
:100B8000B8F1000F05990F5412DD761E30B2804582
:100B9000B8BF46460598089B32B22146184400F07B
:100BA0000DFB089936B271180891A8EB06000B905E
:100BB00005980899084429B2002980F800B003D4A8
:100BC0002B224270821C04E02D2242700D46821CB2
:100BD0006D4200212CAB28460AE004460A2094FB13
:100BE000F0F000EB8005A4EB450403F8014B491C31
:100BF00000B20028F1DC012906DC4BF0200065285A
:100C000004BF302002F8010B00292CAB08D13020A2
:100C100002F8010B06E0491E585C303002F8010B67
:100C20000029F8DC059908980844121A099249E04D
:100C300030B229B288421CDA0598089B32B22146AC
:100C4000184400F0BBFA089936B271180891ABEB62
:100C50000600B8F1000F0B9003DC9DF8400002077E
:100C600004D5059847540999491C0991CDF830805D
:100C700028E00598089B2AB22146184400F09EFA05
:100C80000898761B5844B8F1000F089003DC9DF8D3
:100C900040100A0703D5411C089105990F5430B242
:100CA0008045B8BF46460598089B32B204EB0B015D
:100CB000184400F083FA089836B230180890A8EB70
:100CC00006000B909DF8400000F01400102840F042
:100CD000C280079A08990B988A18099982180C986B
:100CE0008A1882180F98824280F2B580821A0A927E
:100CF000B1E09DF84200622808D068280ED06A282A
:100D000014D06C281FD0712810D01CE0D9F8001026
:100D100051F8040BC9F80010C0B21AE0D9F800105D
:100D200051F8040BC9F8001080B212E0D9F80000A5
:100D3000C21D22F00702C9F80020D2E900010832E2
:100D4000C9F8002006E0D9F8001051F8040BC9F8E2
:100D500000100021CDE902019DF8400001075AD59D
:100D6000DDE90223002B08BF002A54D04BF02000FD
:100D7000782850D1079812A930220A54401C431CED
:100D8000079301F800B046E09DF84200622808D0C1
:100D900068280ED06A2814D06C281FD0712810D073
:100DA0001CE0D9F8001051F8040BC9F8001040B24B
:100DB0001AE0D9F8001051F8040BC9F8001000B27D
:100DC00012E0D9F80000C21D22F00702C9F8002085
:100DD000D2E900010832C9F8002006E0D9F8001075
:100DE00051F8040BC9F80010C117CDE90201002920
:100DF00002D507982D210AE0BDF84000810702D5F1
:100E000007982B2103E0C00705D50798202112AAD7
:100E10001154401C079012A80799014405915946A6
:100E200002A800F04DF816E001200790D9F8000064
:100E300050F8041BC9F800008DF848100BE00121A0
:100E40002522BBF1000F07918DF8482003D0022224
:100E500007928DF849B00F9A07980A990C9C121ABC
:100E60000898521A0B99121A0998521A121A9DF8D8
:100E70004000141B41073FF5D1AA2020002C8DF81B
:100E800000007FF7CBAA309E2546FFF7BBBA4FF094
:100E9000FF3031B0BDE8F08FCBCCCC0C686A6C74FD
:100EA0007A4C00007072696E74665F733A206261FA
:100EB0006420257320617267756D656E7400000093
:100EC0002DE9FC4707468A463C6950466F2808BF13
:100ED000082505D0FFF780F9782814BF0A251025CA
:100EE000D7E900013C2680468946BAF1640F18BF55
:100EF000BAF1690F05D1002903D5D8F1000869EBD3
:100F00004909B9F1000F08BFB8F1000F0CD1386BD7
:100F100050B9082D3AD197F83800010736D530225C
:100F20003B2684F83B2031E08DF800A0404649463E
:100F30002A46EB1700F014FE3032D0B2761E3A2863
:100F400001960EDAA255404649462A46EB1700F0B4
:100F500007FE80465FEA010908BFB8F1000F05D11E
:100F600008E09DF800001218513AEBE7F868A11963
:100F70008842DBD3082D09D197F83800010705D541
:100F8000A05D302802D0761E3020A055C6F13C026C
:100F9000BA61A119F960386B824208DA821A3A62A2
:100FA0004FF6EF70398F01403987BDE8F38700288D
:100FB0000ED597F8380000F01400102808D17B6B8C
:100FC0007969386A5B1A1B1A9A1A002AC8BF3A62F2
:100FD000BDE8F3872DE9D04306460F4614464FF08F
:100FE0000008DFF8449012E0E00707D542464B4680
:100FF0003046394600F0DAFC06460F464046494680
:1010000042464B4600F0D2FC641080468946002CD4
:10101000EAD130463946BDE8D0830000A086010001
:101020000000F03F84D7974100002440F8B5054602
:101030000E4617461C4600205CB117F8011BB0682D
:10104000A847B06030B1F06A401CF0620020641E16
:10105000F3D1F2BD4FF0FF30F2BD00007072696E47
:1010600074665F733A20256E20646973616C6C6FDF
:10107000776564007072696E74663A2062616420FC
:10108000256E20617267756D656E7400000000004A
:101090006E616E004E414E00696E6600494E46001C
:1010A00030000EE002684368024408305FEAC37C07
:1010B00044BF4B445B1E52F804CB43F804CB091FDA
:1010C000F9D150F8041B0029ECD17047C9B202785D
:1010D0008A421AB11CBF10F8012FF9E718BF00208F
:1010E00070470268531C03601170704780B500B9E7
:1010F00006A005490B681BB122220021984701E098
:1011000000F046FE222002BDC8010020636F6E730E
:10111000747261696E742068616E646C65723A20E5
:10112000626164206D6573736167650000F101039E
:10113000810704D010F8011B820781B1FAD102683F
:10114000A2F10131914311F0803104BF50F8042F16
:10115000F6E709BAB1FA81F100EBD100401CC01AE0
:1011600070472E00C9B2830706D0521E22D310F852
:10117000013B9942F7D11FE0083A13D302F1040270
:1011800041EA012141EA014150F8043B121F21BF0D
:101190004B40A3F1013C2CEA030C1CF0803FF3D040
:1011A000C9B2001F083210F8013B521E28BF91EA55
:1011B000030FF8D818BF0120401E704762B38B0799
:1011C00008D0521E11F8013B00F8013B00F02480CA
:1011D0008B07F6D1830740F0208000BF103A07D379
:1011E00030B4B1E83810103AA0E83810F9D230BC69
:1011F000530724BFB1E80810A0E8081044BF51F815
:10120000043B40F8043BD20724BF31F8022B20F8FE
:10121000022B44BF0B7803707047121F17D35B007B
:1012200009D151F8043B20F8023B1B0C121F20F897
:10123000023BF6D20BE051F8043B00F8013B1B0ADD
:1012400020F8023B1B0C121F00F8013BF3D238BF01
:10125000121D521E24BF11F8013B00F8013BF8D8C3
:101260007047000010B5144600F002F8226010BD6F
:10127000C1F30A5343B14A0012F5001F28D2A3F26A
:10128000FE32A1EB0251704750EA410C20D001F030
:10129000004C31EA0C01B1FA81F204BFB0FA80F3DC
:1012A000D2180B3AB2F120032CBF00FA03F191409F
:1012B00041EA0C013EBFC2F1200C20FA0CF31943A5
:1012C0009040524240F2FD33D21A01EB0351704775
:1012D0000022704741EA030C50EA4C0C52EA0C0C15
:1012E0004FF4001C09D307D01CEB410F9CBF1CEB33
:1012F000430F8B4208BF824270471CEB430FFBD861
:10130000994208BF9042704741EA030C50EA4C0CE6
:1013100052EA0C0C4FF4001C09D307D01CEB410F10
:101320009CBF1CEB430F994208BF904270471CEBD7
:10133000410FFBD88B4208BF82427047124254D4FF
:1013400040F2FF7C1CEA11530FD0634531D09B184B
:1013500063453CBF01EB0251704701F0004141EA97
:101360000C510020AFF30080704750EA410320D0B9
:1013700001F0004C91EA0C011CD0B1FA81F30B3B57
:101380009A420DD9D21A994051EA0C01C3F1200CAE
:1013900020FA0CFC61449840531C40F2FF7CD7E7D4
:1013A000914041EA0C01C2F1200C20FA0CF31943E0
:1013B00090407047B0FA80F31533202BE0D3202AF9
:1013C000EED3203A203B9A4209D9D21A00FA03F10F
:1013D00041EA0C010020531C40F2FF7CB8E700FA00
:1013E00002F141EA0C0100207047524240F2FF7CBA
:1013F0001CEA11530DD06345DBD0B2EB030C3CBFAC
:10140000A1EB025170470CF1010221EA035141F4B2
:10141000801150EA410CCCD001F0004C352A27DC79
:1014200030B481EA0C01B2F1200309DAC2F12003E1
:10143000044601FA03F5D0402843D1409C400CE01B
:10144000C3F12002450020FA03F418BF44F0010460
:1014500021FA03F091400C43002174F1004550F152
:10146000000051EB0C01244230BC7FF47BAF70478D
:101470006146002076E70000C1F30A5340F21E42A5
:10148000D31A0CDDCA0283F3070342EA505242F03A
:101490000042DA4002EBE17282EAE17070476FEAE3
:1014A000E17203F2E13008B182F0004070470000C1
:1014B00010F0004160B148BF4042B0FA80F2904065
:1014C000D21CC2F5846241EA025202EBD0214005EF
:1014D00070470000841A71EB030604D26E40001BB3
:1014E000B141121973414FF4001C1CEB410F34BF82
:1014F0007CEB430683E00C0DA4EB1356362E00F371
:101500007C80012E45EAC32341DC43EA525312BFDB
:10151000D20292025B08240545EAC12141EA5051FA
:10152000D2EBC020994125D407D1B0FA80F610FA49
:1015300006F162D00020203608E0B1FA81F6B14011
:10154000C6F1200220FA02F21143B0404FEAF474CF
:10155000B4EB465434F001064FEA74040AD8D6F5C9
:101560000016760D04F00044F04061FA06F2504097
:10157000F1404840C00A40EA415021F0004128BFF4
:101580005FEA500550F1000044EBD12135E0DB0A61
:1015900045EAC121C90AB6F120050EDD42EA024240
:1015A000120CC5F1200603FA06F6EB4042EA0605E6
:1015B0006D42984161F100010DE062FA06F5F240DA
:1015C000554063FA06FC82EA0C02F3405A406D4231
:1015D000904161EB030111F4801F05D1641E620587
:1015E00002D06D004041494121F48011430875F15A
:1015F000004350F1000041EB045170BC70471CEBFC
:10160000410F15D223F0004352EA43060BD04FEAB4
:101610004C0CBCEB410F04D80C0D661E342EB7DD0C
:10162000EBE7801A994150EA410608BF0021E4E740
:1016300008BF1CEB430F28BF6FF00001DDE700007F
:1016400070B491EA030F4FF000457FF543AF6B4054
:10165000841A71EB030603D2001BB14112197341C6
:101660004FF4001C1CEB410F34BF7CEB430442E001
:101670000C0DA4EB1356352E4FDC45EAC323DB0AD1
:1016800045EAC121C912B6F120050DDD63FA05F660
:10169000EB4086EA0305124218BF45F00105C01869
:1016A00051F100010CD213E062FA06F5F240554008
:1016B000F3415A40B340F3405A408018594107D390
:1016C00049085FEA30005FEA350528BF45F00105AB
:1016D00001F58011420875F1004250F1000041EB24
:1016E00004514E0016F5001F70BC38BF7047002033
:1016F000090D090570471CEB410F10D252EA430651
:101700000BD0BCEB410F05D80C0DAB43661E342E3D
:10171000B6DD02E0AB438018594170BC704770BC25
:1017200070470000F0B540F2FF7581EA030C0CF041
:10173000004C15EA11541DBF15EA1357AC42AF42D5
:10174000E5E0BC41C1F31301C3F31303801A9941CF
:1017500043F4801304D2641E001849418018594193
:10176000C90241EA5051B1FBF3F603FB1611A2FB8B
:101770000675D7EBC020A94102D2761E80185941C8
:10178000C90241EA5051B1FBF3FE03FB1E11A2FB5B
:101790000E75D7EBC020A94103D2AEF1010E80181F
:1017A0005941890241EA9051760546EA8E2EB1FBF5
:1017B000F3F603FB1611A2FB0675D7EB8020A941B7
:1017C00002D2761E80185941C90241EA50514EEAB0
:1017D000060EB1FBF3F603FB1611A2FB0675D7EB61
:1017E000C020A94102D2761E80185941C90241EA9F
:1017F0005051B1FBF3F703FB1711A2FB0735D3EBF5
:10180000C020A94167F100070CBF004247F0010763
:1018100066F3D5274FEA1E31B80814F5806412DD4F
:10182000BD0775F1004250EB0E5051EB045111F51C
:10183000801F5CBF41EA0C01F0BD4CF07F6141F0BC
:10184000E0410020F0BDBD076D0840EA0E5041F4B4
:101850008011D4F10104B4F120060ADAC4F12006A3
:101860000200E04001FA06F3E1401843B24015439C
:101870000EE0342C13DCC6F1200445EA40056D0867
:1018800020FA06F2154321FA06F0A1400D4300218B
:1018900075F1004250F1000051EB0C01F0BD002049
:1018A0005FEA0C01F0BDCFB992185B41B3FA83F740
:1018B00004BFB2FA82F6BF190B3FB7F120062FBF63
:1018C00002FA06F3BB40C7F1200622FA06F638BF3B
:1018D0003343BA401CB1E419641E33E77F4231F050
:1018E0000041B1FA81F404BFB0FA80F6A4190B3CB0
:1018F000B4F120062FBF00FA06F1A140C4F1200682
:1019000020FA06F638BF3143A0403C1B1AE7AC4230
:101910001ABF05EA1357AF4212E050EA41061CBF56
:1019200052EA4306BFE750EA4107304661461CBF12
:1019300041EA0551F0BD52EA430C08BFC143F0BD76
:1019400000204FF4001616EB410F98BF16EB430F23
:1019500008BF16EB410F24BFC14305E016EB430F50
:101960000CBF61464CEA0551F0BD0000400D40F24D
:101970001E4C40EAC120BCEB115C40F0004003D497
:101980008CF30701C84070476FEAE17070470000B0
:1019900050B1B0FA80F18840C91CC1F584610905D5
:1019A00001EBD021400570470146704730B540F249
:1019B000FF7C1CEA11541DBF1CEA135564456545A4
:1019C0003FE0641981EA030C6FF35F530CF0004CA5
:1019D00043F48013C90241F0004141EA505EC50260
:1019E0001100A5FB020200284FF00000EEFB0120D1
:1019F0004FF00001E3FB052118BF42F0010240183F
:101A000000214941E3FB0E01A4F580640D0302D2DD
:101A100092184041494154F1010470DD450872F1CA
:101A2000004250F1000051EB0451A1F5801102D4A5
:101A300041EA0C0130BD40F2FF7E4CEA0E5100201D
:101A400030BD0CEA1355644518BF654581EA030CA7
:101A50000CF0004C41D050EA410E1CBF52EA430E3C
:101A600002E06146002030BD24422C441BD15FEAD5
:101A7000050EF6D0090302BF01460020AEF1140E98
:101A8000B1FA81F5AEEB050401FA05FE0C35C5F19E
:101A9000200100FA05F5C8404EEA000E6FF35F53CF
:101AA00043F480139CE733F00043B3FA83F504BF9B
:101AB000B2FA82FE75440B3D641BB5F1200E2FBFB8
:101AC00002FA0EF3AB40C5F1200E22FA0EFE38BF2B
:101AD00043EA0E03AA40641C7CE750EA410E14BF9F
:101AE00052EA430E6FF000014FF4001515EB430F5F
:101AF0008EBF194615EB410F9DE7B4D830BDD4F128
:101B00000104B4F120050FDAC4F12005520828BF02
:101B100042F0010210FA05FE01FA05F57244E2BF37
:101B2000E0402843E1400FE0352C9ADCC5F1200469
:101B300052EA400220FA05F218BF42F0010231FADF
:101B400005F0A1400A43002172F1004250F100006B
:101B500051EB0C0130BD0000004870470C00002024
:101B6000BBBBE1B1B2F5803F80F07E80022A1ED976
:101B70008C46B1FBF2F102FB11C31B0443EA104394
:101B8000B3FBF2FC02FB1C3380B240EA0343B3FB1D
:101B9000F2F002FB103240EA0C4000237047022AA8
:101BA00005D98446B0FBF2F002FB10C270474AB17F
:101BB00005D100F0010249085FEA300070470022B9
:101BC0000023704700F0E8B80B000200002100205D
:101BD0007047904271EB030CF6D3B3F5803F2FD2E0
:101BE000F0B5B3FA83F7B1FA81F4A7F10F0E3D1BFC
:101BF0005340CEF1200602FA0EF2F3415340B5F104
:101C00000F0746D80F3C2C444140C4F12006A040A9
:101C1000F1414140B1FBF3F603FB1611A2FB06456F
:101C2000001BA94102D2761E8018594180EA0102A8
:101C300021FA0EF362FA0EF200215A403046F0BD4E
:101C400030B4B1FBF3FC03FB1C11A2FB0C45001BE1
:101C5000A94103D2ACF1010C8018594130BC0246B5
:101C60000B46604600217047B2F1807F65D3F0B526
:101C7000B2FA82F7B1FA81F4C7F10F063D1B22FADE
:101C800006F307F1110EF24120355A40B5F10F0766
:101C9000B8D94140C4F12006A040F1414140B1FB18
:101CA000F3FC03FB1C11A2FB0C45001BA94103D252
:101CB000BCF1010C801859410F2F12D30F3FC903FB
:101CC00041EA5041B1FBF3F603FB1611A2FB0645B6
:101CD000D4EBC030A94102D2761E8018594146EAA1
:101CE000CC3C07B34140C7F12006B840F141414028
:101CF000B1FBF3F603FB1611A2FB0645001BA9413D
:101D000002D2761E8018594180EA010221FA0EF3B0
:101D1000C7F1200462FA0EF20CFA07F05A402CFACE
:101D200004F13043F0BD80EA010221FA0EF30021F4
:101D300062FA0EF260465A40F0BD8C46B1FBF2F1F9
:101D400002FB11C31B0243EA1063B3FBF2FC02FB6C
:101D50001C331B024CEA002043EA1063B3FBF2FC85
:101D600002FB1C331B024CEA002043EA1063B3FB66
:101D7000F2FC02FB1C331B024CEA002043EA106316
:101D8000B3FBF2FC02FB1C324CEA0020002370473C
:101D9000012000F003B800007047000080B5AFF3E9
:101DA0000080024A11001820ABBEFBE726000200AB
:101DB000826832F47C120A4382607047826832F093
:101DC000E0720A4382607047806810F0E0707047EC
:101DD00070B410F1600515EB81052E68DFF8B04393
:101DE000264012F0F84426431E4356F000462E606B
:101DF00070BC7047020012F1600010EB81000068B7
:101E000010F0F840704710B410F1600313EB810339
:101E10001C6824F0004414431C6010BC704710B4CC
:101E200010F1600313EB81031C6834F080741443D9
:101E30001C6010BC704710B410F1600313EB8103F9
:101E40001C6834F0007414431C6010BC7047426975
:101E500022F000420A434261704770B410F130042E
:101E60000B009B0913F00C031C1925681F2611F0A9
:101E70001F039E40B543C2F3846611F01F039E40CA
:101E80003543256070BC704770B410F114030C002A
:101E9000E40D14F00404E3181C6807250E00360D49
:101EA00016F01F06B540AC430D002D0D15F01F05B3
:101EB00012FA05F52C431C6070BC704730B4D0F8A2
:101EC000B0404B035B0B9C43DFF8C83212F018059F
:101ED000EB400B405B035B0B1C43C0F8B04030BCD5
:101EE00070478268DFF8B0120A40826070478068ED
:101EF000400F10F0010070478268DFF8A0120A401E
:101F000052F08052826070478068000F10F001002C
:101F100070478268DFF884120A4052F00102826042
:101F200070478268DFF874120A4052F00202826041
:101F30007047806810F0010070478068400810F01A
:101F4000010070478068800810F0010070478068C9
:101F5000C00810F0010070472DE9F84304005FF05D
:101F6000000800200090002C01D101200EE16069E2
:101F7000002802D094F824000128E06D002807D141
:101F8000200000F037FC00202066002084F8580074
:101F90002068FFF7ACFF002802D02068FFF7A1FF00
:101FA0002068FFF7B1FF002813D12068FFF7A4FFD6
:101FB000DFF8EC010068DFF8EC11B0FBF1F0401C39
:101FC000400000900098002803D00098401E009028
:101FD000F8E72068FFF798FF002809D1E06D50F07E
:101FE0001000E065206E50F0010020660120804660
:101FF0002068FFF7A7FF0500E06DC00600F1BE8076
:10200000002D40F0BB80E06D30F4807050F0020095
:10201000E0652068FFF78DFF002810D15FF0A04039
:10202000FFF787FF0600DFF88001FFF782FF064316
:10203000002E04D16168DFF87401FFF7B9FE607FFC
:10204000E16B51EA4031E0680143A068014394F834
:10205000240051EA0041894694F82400012803D164
:10206000A06A401E59EA4049E06A002807D0E06AA9
:1020700010F4787050EA0909206B50EA09092068C9
:10208000C168DFF82C01014059EA01012068C160F4
:102090002068016931F04061606B01432068016193
:1020A0002068FFF754FF070057EA050000284CD1CD
:1020B000207F94F83810490051EA80318946206821
:1020C000C168DFF8F000014059EA01012068C160F1
:1020D0002069002810D02068006950F48030216801
:1020E00008612068D0F8C010890B8903206901437A
:1020F0002068C0F8C0100DE02068006930F480301E
:10210000216808612068D0F8C000800B8003216836
:10211000C1F8C00094F84000012810D1206801697E
:102120006FF38A01606C0143A06C0143E06C0143D2
:10213000206D014351F001012068016105E0206834
:10214000006940084000216808616069012809D1E0
:102150002068006B00090001216A491E08432168BC
:10216000086305E02068006B00090001216808632E
:102170000120E16D60F30101E16505E0E06D50F0E3
:102180001000E065012080464046C0B2BDE8F28301
:1021900000F0FF03FFFF0700C0FFFF5FC0FFFF7FEE
:1021A00008000020400D0300000100500003005013
:1021B0000740F0FFFDBFFFFF2DE9F84F804689463D
:1021C0005FF0000A00200090DFF858B5D9F80C0045
:1021D0005845FFD198F85800012801D1022045E266
:1021E000012088F85800D8F80000FFF7ABFE00285F
:1021F00040F02F82D9F80020D9F80410D8F8000058
:10220000FFF72BFED8F80000FFF79CFE0600D8F879
:102210000000FFF79CFE070057EA0600002840F088
:102220000A81D9F80800B0F1004F0DD10022D9F889
:102230000010D8F80000FFF727FE5FF00041D8F843
:102240000000FFF704FE0CE0D9F80820D9F80010D0
:10225000D8F80000FFF718FE0021D8F80000FFF7BB
:10226000F6FDD9F81400D8F80010C968C1F3C1010F
:10227000490088400400D9F8100004281FD023002A
:10228000D9F80020D9F81010D8F80000FFF7A0FD09
:10229000D9F81820D9F81010D8F80000FFF7BFFDC2
:1022A00099F81C00012802D15FF0007200E00022C2
:1022B000D9F81010D8F80000FFF7BDFDBBE00021F1
:1022C000D8F80000FFF796FD400307D10021D8F8A9
:1022D0000000FFF78FFDC0F3846008E00021D8F80C
:1022E0000000FFF787FD90FAA0F0B0FA80F0D9F86F
:1022F0000010490304D1D9F80010C1F3846105E04E
:10230000D9F8001091FAA1F1B1FA81F1884205D112
:1023100000220021D8F80000FFF775FD0121D8F850
:102320000000FFF767FD400307D10121D8F8000046
:10233000FFF760FDC0F3846008E00121D8F80000D9
:10234000FFF758FD90FAA0F0B0FA80F0D9F800102D
:10235000490304D1D9F80010C1F3846105E0D9F82C
:10236000001091FAA1F1B1FA81F1884205D1002261
:102370000121D8F80000FFF746FD0221D8F800003F
:10238000FFF738FD400307D10221D8F80000FFF71E
:1023900031FDC0F3846008E00221D8F80000FFF7A7
:1023A00029FD90FAA0F0B0FA80F0D9F800104903A6
:1023B00004D1D9F80010C1F3846105E0D9F8001008
:1023C00091FAA1F1B1FA81F1884205D100220221EE
:1023D000D8F80000FFF717FD0321D8F80000FFF739
:1023E00009FD400307D10321D8F80000FFF702FDE3
:1023F000C0F3846008E00321D8F80000FFF7FAFC7E
:1024000090FAA0F0B0FA80F0D9F80010490304D196
:10241000D9F80010C1F3846105E0D9F8001091FAF1
:10242000A1F1B1FA81F1884205D100220321D8F847
:102430000000FFF7E8FCD8F80000FFF77AFD00285D
:1024400040F0A980D9F80C20D9F80010D8F8000085
:10245000FFF734FDD9F80C00584540F09C80D9F8BE
:102460000000400304D1D9F80000C0F3846005E007
:10247000D9F8000090FAA0F0B0FA80F0401C10F0FB
:102480001F000A283FD2D9F80000400304D1D9F830
:102490000000C0F3846105E0D9F8000090FAA0F0D4
:1024A000B0FA80F1D9F80000400304D1D9F8000057
:1024B000C0F3846005E0D9F8000090FAA0F0B0FA0B
:1024C00080F0D9F80020520304D1D9F80020C2F3DB
:1024D000846205E0D9F8002092FAA2F2B2FA82F200
:1024E000491C890611F0F8410123401C10F01F001F
:1024F00013FA00F00143521C12F01F020320424362
:1025000051EA025141E0D9F80000400304D1D9F862
:102510000000C0F3846105E0D9F8000090FAA0F053
:10252000B0FA80F1D9F80000400304D1D9F80000D6
:10253000C0F3846005E0D9F8000090FAA0F0B0FA8A
:1025400080F0D9F80020520304D1D9F80020C2F35A
:10255000846205E0D9F8002092FAA2F2B2FA82F27F
:10256000491C890611F0F8410123401C10F01F009E
:1025700013FA00F00143521C12F01F020A3A032022
:10258000424351EA025151F00071D9F80820D8F8BD
:102590000000FFF779FCD9F80000DFF88C11084241
:1025A0005FD0DFF878B15846FFF70EFC0500D9F888
:1025B0000000DFF87811884205D0D9F80000DFF874
:1025C000701188421DD128021BD4D8F80000B0F148
:1025D000A04F46D155F400015846FFF7EFFBDFF856
:1025E00054010068DFF85011B0FBF1F1491C0C20D8
:1025F000414300910098002833D00098401E00907D
:10260000F8E7D9F80000DFF8341188420DD1E8016D
:102610000BD4D8F80000DFF80811884221D055F01B
:1026200080715846FFF7CAFB1BE0D9F80000DFF8BD
:102630001011884215D1680213D4D8F80000DFF8D1
:10264000E01088420DD055F480015846FFF7B6FBE4
:1026500007E0D8F85C0050F02000C8F85C000120CA
:102660008246002088F858005046C0B2BDE8F28F7C
:1026700038B50400002000902068FFF75AFC0028BD
:1026800049D1206880686FF39E10002809D0E06D62
:1026900050F01000E065206E50F00100206601202F
:1026A0003AE02068FFF735FC1C48FFF78DFB00027D
:1026B0000FD5204800682049B0FBF1F1491C0C20DF
:1026C000414300910098002803D00098401E0090DC
:1026D000F8E700F02BF9050020680068C0071AD45D
:1026E0002068FFF726FC002802D12068FFF711FCC4
:1026F00000F01CF9401B0328EED320680068C007D7
:10270000EAD4E06D50F01000E065206E50F001005A
:102710002066012000E0002032BD000000030050D0
:102720000001005000007F4000000880000021C32D
:102730001000C09008000020400D0300000052C7A8
:10274000000084CB70B505002868FFF7F6FB040095
:102750002868FFF7EEFB002832D0002C30D1286823
:10276000806810F00D00012809D12868FFF7D9FB17
:1027700003202968086000F0D9F8060009E0E86D38
:1027800050F01000E865286E50F001002866012026
:1027900017E028688068C00712D500F0C7F8801BD2
:1027A0000328F6D328688068C007F2D5E86D50F09A
:1027B0001000E865286E50F001002866012000E056
:1027C000002070BD80B55348016851F001010160DF
:1027D000006810F00100009000984F48016851F027
:1027E00080510160006810F080500090009800F067
:1027F0001AF901BD18B597B004001422002101A8F0
:1028000000F024F94422002106A800F01FF92068F6
:10281000424988422AD14FF4004006905FF00050B0
:10282000159006A800F01CF9002801D000F090FCDB
:102830003B48016851F400510160016811F40051F6
:1028400000910099016851F001010160006810F0E9
:102850000100009000987020019003200290002059
:10286000039001A95FF0904000F074FC18B010BD17
:1028700081B001682B4A914209D127490A6852F078
:1028800010020A60096811F010010091009901B06E
:10289000704718B597B004001422002101A800F079
:1028A000D5F84422002106A800F0D0F820681E497F
:1028B00088422DD1022006900020089006A800F042
:1028C000CFF8002801D000F043FC1348016851F410
:1028D00000310160006810F400300090009810484A
:1028E000016851F001010160006810F001000090E2
:1028F00000980C20019002200290002003900020FC
:1029000004900720059001A95FF0904000F022FCA0
:1029100018B010BD60100240581002400001005075
:102920004C10024000100040004400400148006884
:10293000704700BFC401002010B40200002A32D149
:10294000DFF8F000036813F4C063B3F5806F23D1A0
:10295000DFF8E4301C6834F480741C6001230468E0
:1029600063F34A240460DFF8D40003683220434351
:10297000DFF8CC00B3FBF0F0401C0100DFF8C4002E
:1029800003685B0503D5002901D0491EF6E70068FE
:10299000400545D5032044E0DFF89C00036833F48C
:1029A000807303603CE0B2F5007F32D1DFF8840031
:1029B000036813F4C063B3F5806F23D1DFF8783078
:1029C0001C6854F480741C600123046863F34A2477
:1029D0000460DFF86800036832204343DFF86000DA
:1029E000B3FBF0F0401C0100DFF8580003685B0502
:1029F00003D5002901D0491EF6E7006840050FD530
:102A000003200EE0DFF83000036853F480730360A6
:102A100006E0DFF820000223046863F34A24046020
:102A2000002010BC70470848016851F480410160E3
:102A300070470000007000408070004008000020D7
:102A400040420F00147000400870004010B504466A
:102A500010460A460146204600F074FC204610BD90
:102A60002DE9F84F050000275FF0000828680003F3
:102A70007AD55FF00009DFF8BCA2DAF80000C000E8
:102A80000DD4DAF8000050F08050CAF80000DAF8EF
:102A9000000010F080500090009801208146DFF87F
:102AA00098B2DBF8000050F48070CBF80000FFF71C
:102AB0003DFF0600DBF80000C00506D4FFF736FF37
:102AC000801B0328F6D3032007003800C0B200287B
:102AD0003FD1DFF868B2DBF8000010F4407004006A
:102AE000002C15D0286C844212D0DBF8000030F4A2
:102AF00040700400DBF8000050F48030CBF8000098
:102B0000DBF8000030F48030CBF80000CBF8004058
:102B1000E0070FD5FFF70AFF0600DBF8000080078B
:102B200008D4FFF703FF801B41F289318842F4D3B8
:102B3000032007003800C0B2002808D1DBF80010DD
:102B400031F44071286C0143CBF8001002E0B84624
:102B500000E0B8464846C0B2012805D1DAF80000C6
:102B600030F08050CAF800002878C00707D5DFF899
:102B7000D0110A6892089200686802430A602878B7
:102B8000800707D5DFF8B8110A6832F00C02A86890
:102B900002430A602878400707D5DFF8A4110A68C5
:102BA00032F03002E86802430A602878000707D54F
:102BB000DFF88C110A6832F0C002286902430A600B
:102BC0002878800607D5DFF878110A6832F4406269
:102BD000686902430A602878400607D5DFF860116B
:102BE0000A6832F44052A86902430A602878000655
:102BF00007D5DFF84C110A6832F44042E869024315
:102C00000A602868C00507D5DFF834110A6832F475
:102C10004032286A02430A602868800507D5DFF839
:102C200020110A6832F44022686A02430A60286868
:102C3000400511D5DFF808110A6832F44012A86A7D
:102C400002430A60A86AB0F5801F05D1DFF8F400DE
:102C5000016851F4801101602868000511D5DFF882
:102C6000E0100A6832F44002E86A02430A60E86A47
:102C7000B0F5800F05D1DFF8CC00016851F4801168
:102C800001602868C00411D5DFF8B4100A6832F07A
:102C90004072286B02430A60286BB0F1807F05D137
:102CA000DFF8A000016851F48011016028688004F9
:102CB00011D5DFF88C100A6832F04062686B02436D
:102CC0000A60686BB0F1006F05D1DFF87800016829
:102CD00051F4801101602868400411D5DFF86010BC
:102CE0000A6832F04062A86B02430A60A86BB0F138
:102CF000006F05D1DFF84C00016851F480110160CC
:102D00002868000411D5DFF838100A6832F0405204
:102D1000E86B02430A60E86BB0F1805F05D1DFF831
:102D20002400016851F4803101604046C0B2BDE822
:102D3000F28F0000581002400070004090100240D6
:102D4000881002400C100240F8B52DED028B00F007
:102D50002DFB00F06EF800F09AF900F0A9F800F0F1
:102D60005EF900F034F9DFF89C437F21200000F089
:102D7000E7FBDFF89453280001F055F8DFF88C6387
:102D800001224FF48071300000F0B9FA200000F009
:102D90001FFC0020296848620121200000F095FCFA
:102DA000DB4F0921200000F015FD386040F20F11C3
:102DB000200000F00FFDD749086040F215212000E7
:102DC00000F008FDD44908603868FEF7E1FD41ECE9
:102DD000180BD248016840F2FF3291420BD20168D1
:102DE000491C016053EC182BCD49CE4801F0D2F8B4
:102DF000CD49086009E00021016053EC182BCB4954
:102E0000C84801F0C7F8C84908600123C6480068EF
:102E1000020092B2C349C64801F01BF900224FF4E8
:102E20008071300000F06BFA2868406A0A28A5D249
:102E3000FAE718B593B03821002205AC200000F065
:102E400081FA142100226C46200000F07BFA002059
:102E5000FFF772FD012005905FF48030069002209C
:102E60000C9003200D9006200E9055200F9002200C
:102E70001090022011900220129005A801F080FC11
:102E8000002801D000F064F90F2000900320019089
:102E90000020029000200390002004900421684646
:102EA00001F0DAFE002801D000F052F914B010BD94
:102EB00030B597B0202100220FAC200000F042FA7C
:102EC0003C2100226C46200000F03CFA8D4C9948D1
:102ED00020605FF4403060600020A0600020E0606F
:102EE00000202061012060610420A0610020207783
:102EF0000120607701202062002084F82400002057
:102F0000E06200202063002084F838000020E063A5
:102F1000002084F840002000FFF71EF8002801D0B0
:102F200000F016F9844D0F950620109000201190A6
:102F30007F20129004201390002014900FA92000ED
:102F4000FFF73AF9002801D000F002F97B48009021
:102F500009200190002002907F200390042004901B
:102F6000002005900320089000208DF82400002008
:102F70008DF8250000208DF8260000200A90002002
:102F80000B9000208DF830006946200000F050FCC6
:102F9000002801D000F0DCF8009540F20F100190FD
:102FA0006946200000F044FC002801D000F0D0F871
:102FB0006348009040F2152001906946200000F01F
:102FC00037FC002801D000F0C3F817B030BD1FB5A2
:102FD0000C2100226C46200000F0B4F94A4C5948FC
:102FE000206044F2672060600020A0604FF6FF7010
:102FF000E0600020A061200000F0D8FE002801D091
:1030000000F0A6F800200090002002906946200001
:1030100001F0BEFF002801D000F09AF81FBD10B5E6
:10302000434C494820605FF4612060600020A0604C
:103030000020E060002020610C2060610020A06181
:103040000020E06100202062002060620020A06279
:10305000200000F0BFFF002801D000F079F8002127
:10306000200002F016F8002801D000F071F80021CD
:10307000200002F039F8002801D000F069F82000A3
:1030800001F0E4FF002801D000F062F810BD10B597
:1030900086B01421002201AC200000F053F92B4827
:1030A000016851F020010160016811F020010091D8
:1030B0000099016851F001010160016811F00101FE
:1030C00000910099016851F002010160006810F060
:1030D0000200009000980D4C00224FF480712000F7
:1030E00000F00DF94FF48070019001200290002053
:1030F00003900020049001A9200000F02BF806B0F6
:1031000010BD0000D8000020440100200004004849
:10311000B4010020B8010020BC010020B001002053
:10312000F054000890010020C0010020F85400086D
:103130004400002000010050002090360800900C50
:103140000000524700100040004400404C10024074
:1031500072B6FEE7F8B4030000250868E8400028CE
:1031600000F0CB8001260F6816FA05F007403A0000
:10317000002A00F0C080087910F00300012804D074
:10318000087910F00300022819D19F685FF0030C42
:1031900068001CFA00FC37EA0C07D1F80CC0680084
:1031A0001CFA00FC5CEA07079F605868AE40B04319
:1031B0004E68C6F30016AE40304304005C600879E8
:1031C00010F0030003280AD0DE6803276800874058
:1031D000BE438F68680087403E433400DC60087956
:1031E00010F00300022816D12800C00803EB80006D
:1031F000006A0F26AF0017F01C07BE40B0430E69EF
:10320000AF0017F01C07BE40304304002800C00880
:1032100003EB800004621E68032768008740BE43FA
:103220000F7917F00307680087403E4334001C60A5
:10323000486810F4403F5ED03748066856F00106F3
:103240000660006810F0010000900098334E2800DE
:10325000800856F820000F275FEA850C1CF00C0C44
:1032600017FA0CF7B843B3F1904F01D1002419E0DD
:103270002B4CA34201D1012414E02A4CA34201D1DA
:1032800002240FE0284CA34201D103240AE0274C7A
:10329000A34201D1042405E0254CA34201D1052419
:1032A00000E00624AF0017F00C07BC4020432C00C0
:1032B000A40846F824001F4E346894434F68FF0268
:1032C00000D5144334601C4E306890434F68BF02F1
:1032D00000D510433060194C266896434F68BF03F1
:1032E00000D5164326601648046894434F68FF03D0
:1032F00000D5144304606D1C2FE7F1BC7047130028
:10330000DBB2002B03D00B009BB2836102E00B0009
:103310009BB28362704700006010024008000140C9
:103320000004004800080048000C00480010004855
:1033300000140048080401400C040140040401404A
:103340000004014062F30F2262F31F42401810F0A4
:10335000030308D0C91A1FD3DB0748BF00F8012DAB
:1033600028BF20F8022D130030B41446154610393A
:1033700028BF20E93C00FAD8490728BF20E90C0003
:1033800048BF40F8042D890028BF20F8022D48BF0F
:1033900000F8012D30BC7047C91818BF00F8012D86
:1033A000CB0728BF00F8012D7047000010B500249E
:1033B000032001F067FF002001F090FF002802D0F9
:1033C0000120040001E0FFF7FDF92000C0B210BDAC
:1033D000826832F0E0720A4382607047806810F0C1
:1033E000E070704770B410F1600515EB81052E6830
:1033F000DFF81C44264012F0F84426431E4356F0E2
:1034000000462E6070BC7047020012F1600010EBA5
:103410008100006810F0F840704710B410F16003AC
:1034200013EB81031C6824F0004414431C6010BC9F
:10343000704710B410F1600313EB81031C6834F083
:10344000807414431C6010BC704710B410F160030A
:1034500013EB81031C6834F0007414431C6010BC2F
:103460007047426922F000420A4342617047C068D7
:1034700010F4406F01D1012000E000207047C06CC3
:1034800010F4C07F01D1012000E000207047C06827
:1034900010F00070704770B410F114030C00E40DCC
:1034A00014F00404E3181C6807250E00360D16F00E
:1034B0001F06B540AC430D002D0D15F01F0512FA87
:1034C00005F52C431C6070BC704730B4D0F8B04098
:1034D0004B035B0B9C43DFF83C3312F01805EB40C9
:1034E0000B405B035B0B1C43C0F8B04030BC704723
:1034F000806810F01F007047806810F0010070476E
:103500008368DFF81823134011F08042134353F00F
:103510000043836070478068C00F704780688008F0
:1035200010F0010070478268DFF8EC120A4052F098
:103530000802826070478068C00810F00100704780
:103540007CB504000D000020009094F8580001287C
:1035500001D102203BE0012084F858002000FFF751
:10356000F1F806003000C0B2002827D1E06D30F439
:10357000885050F00200E06529002068FFF7C0FF86
:103580002068FFF7C8FF002812D00098401C009068
:103590000098DFF88C128842F2D3E06D30F0020020
:1035A00050F01000E065002084F8580001200EE083
:1035B0000120E16D60F30101E16503E0E06D50F091
:1035C0001000E065002084F858003000C0B276BDDD
:1035D000F8B50500DFF84C02FFF78AFF0400286801
:1035E000FFF7A9FF002801D002206DE02868C66817
:1035F00016F000462868C06C10F4C07030430028F4
:1036000005D1E86D50F02000E86501205CE095F8F8
:103610005800012801D1022056E0012085F8580009
:103620002800FFF725F807003800C0B2002846D16F
:10363000E86DC00504D5286E30F00800286601E06A
:1036400000202866E96DDFF8E001014051F4805167
:10365000E965DFF8D8012968814202D15FF0A04115
:1036600000E029682A68914201D0002C03D1E96D5D
:1036700031F48011E96560212A681160002185F824
:1036800058102968814202D15FF0A04000E028680C
:103690002968884205D0002C03D0062C01D0072CC5
:1036A00008D12868FFF7F3FE00280BD12868FFF740
:1036B0003AFF07E0E86D50F48010E86502E0002072
:1036C00085F858003800C0B2F2BD2DE9F047070078
:1036D0000C00DFF85001FFF70BFF0500B869082860
:1036E00002D15FF0400801E05FF02008FFF71EF90B
:1036F00081463868006810EA080F18D114F1010FEC
:10370000F7D0FFF713F9B0EB0900844201D3002C86
:10371000EFD13868006810EA080FEAD1F86D50F070
:103720000400F865002087F85800032050E038684E
:10373000FFF7A5FE06003868FFF799FE0100DFF8E5
:10374000EC003A68824202D15FF0A04200E03A68A1
:103750003B689A4205D0002D03D0062D01D0072DDD
:1037600002D13868C26809E03A68824202D15FF04B
:10377000A04A01E0D7F800A0DAF80C20F86D50F468
:103780000050F865002E05D1900114D4002912D004
:10379000900410D43868006840060CD590020AD412
:1037A000F86D30F48050F865F86DC00503D4F86DFD
:1037B00050F00100F865B8F1400F05D1500406D46F
:1037C00060203B68186002E020203B681860002001
:1037D000BDE8F0870200080040F20F1398420FD0B6
:1037E00040F21523984207D040F21B3398420BD188
:1037F0001068D0F88C000AE01068D0F8880006E065
:103800001068D0F8840002E01068D0F8800070479B
:1038100000F0FF03FFFF0700C0FFFF7FC0FFFF3F77
:1038200002DE040000030050FEDFFFFF0001005035
:103830002DE9FE4F05000E000027002000905FF0EC
:10384000000868690028DFF840B5F0685845FFD1E6
:1038500095F85800012801D102208EE2012085F858
:1038600058006869002802D0306A012823D17068A6
:10387000092854D1B06A00280CD03168490C11F4E1
:10388000785196F8280010F07C000143F06A01435B
:10389000884604E03068400C10F478508046286870
:1038A000C16CDFF8E804014058EA01012868C164EE
:1038B000C5F8648033E0A86E002814D1306AA86689
:1038C00000206866B06A00280AD0316A491E96F85E
:1038D000280010F07C000143F06A0143884602E0B2
:1038E000306A401E80463068C0F38460317911F040
:1038F0001F01884050EA0808A86E401EA866686E3E
:1039000058EA00006866A86E002808D12868C16CD3
:10391000DFF878040140686E01432868C1642868B4
:10392000FFF709FE00281CD196F8250000280ED1CB
:103930002868C06830F4401096F8261050EA4150CC
:1039400096F8241050EA01502968C86009E02868F8
:10395000C06830F4401096F8261050EA41502968AB
:10396000C8602868FFF7DAFD81462868FFF7E3FDA5
:1039700082465AEA0900002840F01A81B06A0028FD
:1039800002D0F06A002811D196F82500012806D14E
:103990002868C06850F000702968C86017E028687F
:1039A000C06830F000702968C86010E096F8250003
:1039B000012806D1E86D50F02000E86501200700DD
:1039C00005E02868C06830F000702968C86096F883
:1039D000300001280CD12868016931F4FF71706B47
:1039E0000143B06B014351F002012868016105E019
:1039F0002868006930F0020029680861B068B0F1F9
:103A0000004F0AD1002231682868FFF744FD5FF0BB
:103A100000412868FFF725FD08E0B2683168286892
:103A2000FFF739FD00212868FFF71BFD7069296841
:103A3000C968C1F3C1014900884001903069042878
:103A400016D0019B326831692868FFF7CBFCB26958
:103A500031692868FFF7EDFC307F012802D15FF063
:103A6000007200E0002231692868FFF7EEFC9FE059
:103A700000212868FFF7C8FC400306D10021286810
:103A8000FFF7C2FCC0F3846007E000212868FFF75D
:103A9000BBFC90FAA0F0B0FA80F03168490303D182
:103AA0003168C1F3846104E0316891FAA1F1B1FA9F
:103AB00081F1884204D1002200212868FFF7ADFC83
:103AC00001212868FFF7A0FC400306D101212868E6
:103AD000FFF79AFCC0F3846007E001212868FFF734
:103AE00093FC90FAA0F0B0FA80F03168490303D15A
:103AF0003168C1F3846104E0316891FAA1F1B1FA4F
:103B000081F1884204D1002201212868FFF785FC59
:103B100002212868FFF778FC400306D102212868BB
:103B2000FFF772FCC0F3846007E002212868FFF70A
:103B30006BFC90FAA0F0B0FA80F03168490303D131
:103B40003168C1F3846104E0316891FAA1F1B1FAFE
:103B500081F1884204D1002202212868FFF75DFC30
:103B600003212868FFF750FC400306D10321286891
:103B7000FFF74AFCC0F3846007E003212868FFF7E1
:103B800043FC90FAA0F0B0FA80F03168490303D109
:103B90003168C1F3846104E0316891FAA1F1B1FAAE
:103BA00081F1884204D1002203212868FFF735FC07
:103BB0002868FFF7A1FC002840F08E80F268316889
:103BC0002868FFF782FCF068584540F0858030682F
:103BD000400303D13068C0F3846004E0306890FA99
:103BE000A0F0B0FA80F0401C10F01F000A2836D276
:103BF0003068400303D13068C0F3846104E030686A
:103C000090FAA0F0B0FA80F13068400303D1306838
:103C1000C0F3846004E0306890FAA0F0B0FA80F05D
:103C20003268520303D13268C2F3846204E032681E
:103C300092FAA2F2B2FA82F2491C890611F0F84116
:103C40000123401C10F01F0013FA00F00143521C26
:103C500012F01F020320424351EA025138E030685B
:103C6000400303D13068C0F3846104E0306890FA07
:103C7000A0F0B0FA80F13068400303D13068C0F39F
:103C8000846004E0306890FAA0F0B0FA80F0326806
:103C9000520303D13268C2F3846204E0326892FABC
:103CA000A2F2B2FA82F2491C890611F0F84101230E
:103CB000401C10F01F0013FA00F00143521C12F0D8
:103CC0001F020A3A0320424351EA025151F00071A7
:103CD000B2682868FFF7DFFB30682D49084247D0FB
:103CE000DFF89CB05846FFF779FB0400306829499B
:103CF000884203D03068284988421AD1200218D45B
:103D00002868B0F1A04F33D154F400015846FFF7B2
:103D10005FFB224800682249B0FBF1F1891C0C20AE
:103D2000414300910098002822D00098401E009046
:103D3000F8E730681B4988420BD1E00109D42868B4
:103D40001049884214D054F080715846FFF740FB68
:103D50000EE03068144988420AD1600208D428680D
:103D60000849884204D054F480015846FFF730FBDC
:103D7000002085F858003800C0B2BDE8FE8F000072
:103D8000000300500001005000007F40004010047C
:103D900000000880000021C31000C090080000202F
:103DA000400D0300000052C7000084CB10B5040092
:103DB000002C01D1012035E094F83D00002805D108
:103DC000002084F83C002000FEF752FD022084F819
:103DD0003D00211D206800F073F8012084F84800A0
:103DE000012084F83E00012084F83F00012084F87F
:103DF0004000012084F84100012084F842000120A5
:103E000084F84300012084F84400012084F8450030
:103E1000012084F84600012084F84700012084F83E
:103E20003D00002010BD010091F83D00012801D0A7
:103E3000012038E0022081F83D000868DFF8683092
:103E4000984217D00868B0F1804F13D00868DFF8A7
:103E50005C3098420ED00868DFF85430984209D0A0
:103E60000868DFF85030984204D00868DFF848301E
:103E7000984211D108688368DFF8400003401A00B7
:103E8000062A0FD0B2F5803F0CD00868006850F0C9
:103E900001000B68186005E00868006850F0010038
:103EA0000B68186000207047002C0140000400409F
:103EB00000080040003401400040014007000100BC
:103EC00010B40468DFF8B03098420ED0B0F1804FE3
:103ED0000BD0DFF8A820904207D0DFF8B420904242
:103EE00003D0DFF89C20904203D134F070044A687C
:103EF0001443984217D0B0F1804F14D0DFF87C20E3
:103F0000904210D0DFF8882090420CD01C4A90429A
:103F100009D01C4A904206D01B4A904203D0DFF8D9
:103F20006C20904203D134F44074CA68144334F0D6
:103F300080044A69144304608A68C2620A68826223
:103F400098420CD00E4A904209D00E4A904206D0B8
:103F50000D4A904203D0DFF83420904201D10A6923
:103F60000263012242610269D20703D50269520845
:103F70005200026110BC7047002C01400004004058
:103F8000003401400040014000440140004801402D
:103F9000000800400CB430B583B00A4606A902916F
:103FA000044600250194009502AB01A90848784415
:103FB0001E30FCF714F9019A157000284EBF044614
:103FC0000198041B204603B030BC5DF80CFB00BF19
:103FD00013D1FFFF10B50400002C01D1012037E000
:103FE000A0690028FFD1D4F88800002805D100205E
:103FF00084F884002000FEF74CFC2420C4F88800DC
:10400000206800684008400021680860A06A002815
:1040100002D0200000F046FA200000F085F80128C8
:1040200001D1012014E02068406830F490402168FC
:1040300048602068806830F02A0021688860206825
:10404000006850F0010021680860200000F097FA35
:1040500010BD2DE9FC4706000D0017009846D6F864
:10406000880020285DD1002D03D0380080B20028C0
:1040700001D1012056E00020C6F890002120C6F8AA
:104080008800FEF753FC8146A6F85470A6F85670D7
:10409000B068B0F5805F05D13069002802D10024F6
:1040A000AA4602E02C005FF0000AB6F8560000288D
:1040B00023D0CDF800804B4600228021300000F054
:1040C000C9FA002804D02020C6F88800032029E07F
:1040D000002C08D1BAF80000C005C00D3168886214
:1040E0001AF1020A03E0207831688862641CB6F88D
:1040F0005600401EA6F85600D7E7CDF800804B4684
:1041000000224021300000F0A5FA002804D0202031
:10411000C6F88800032005E02020C6F888000020AB
:1041200000E00220BDE8F6872DE9F84F05000026E3
:10413000DFF8201628688842FFD0AA682869024361
:1041400068690243E869024328680368DFF80806E3
:1041500003401343286803602868436833F44053DE
:10416000E868034328684360D5F8189028688842B7
:1041700002D0286A50EA090928688268DFF8DC055D
:10418000024059EA0202286882602868C26A12095D
:104190001201686A02432868C2622868DFF8C025F5
:1041A000904216D1DFF8BC05006810F0030000282B
:1041B00005D0022805D006D3032806D007E0012742
:1041C0007DE002277BE0042779E0082777E01027CD
:1041D00075E02868DFF89025904217D1DFF8840554
:1041E000006810F00C00002806D0042808D0082829
:1041F00004D00C2806D007E0002760E002275EE02C
:1042000004275CE008275AE0102758E02868DFF808
:104210005C25904217D1DFF84C05006810F03000A3
:10422000002806D0102808D0202804D0302806D036
:1042300007E0002743E0022741E004273FE008278A
:104240003DE010273BE02868DFF82425904217D195
:10425000DFF81005006810F0C000002806D04028E4
:1042600008D0802804D0C02806D007E0002726E028
:10427000022724E0042722E0082720E010271EE080
:10428000286888421AD1DFF8DC04006810F4406026
:10429000002809D0B0F5806F0AD0B0F5006F05D0C6
:1042A000B0F5406F06D007E0002708E0022706E0DF
:1042B000042704E0082702E0102700E01027286800
:1042C000884253D13800C0B2002806D0022808D056
:1042D000042809D008280BD00DE000F0F5FD0400FB
:1042E0000CE0DFF8904409E000F0ADFD040005E0CB
:1042F0004FF4004402E0002401200600002C00F0EE
:10430000C280DFF87414686A31F81000B4FBF0F072
:1043100082466A6803204243924503D368680003DB
:10432000504502D201200600ADE0686A31F8100065
:10433000B4FBF0F200231B0243EA12631202686826
:1043400040080021101859416A680023FDF708FC55
:104350008046B8F5407F06D3B8F5801F03D22868A1
:10436000C0F80C808FE0012006008CE0E869B0F511
:10437000004F49D13800C0B2002808D001280AD027
:1043800002280CD004280DD008280FD011E000F02E
:104390009BFD040010E000F0A4FD04000CE0DFF839
:1043A000D44309E000F04FFD040005E04FF4004461
:1043B00002E0002401200600002C64D0DFF8B803DE
:1043C000696A30F81100B4FBF0F06968490811EB34
:1043D00040016868B1FBF0F08046B8F1100F10D3CF
:1043E000B8F5803F0DD24FF6F07111EA0801404652
:1043F000C0F3420001438B46584680B22968C8602A
:1044000041E0012006003EE03800C0B2002808D09C
:1044100001280AD002280CD004280DD008280FD07B
:1044200011E000F051FD040010E000F05AFD04001E
:104430000CE0DFF8404309E000F005FD040005E072
:104440004FF4004402E0002401200600002C1AD0A2
:10445000DFF82403696A30F81100B4FBF0F06968F2
:1044600010EB51006968B0FBF1F08046B8F1100F15
:1044700007D3B8F5803F04D2404680B22968C860AF
:1044800001E0012006000120A5F86A000120A5F83E
:104490006800002068670020A8673000C0B2BDE84F
:1044A000F28F000090F82810090707D501684A68C4
:1044B00032F40042816B0A4301684A6090F8281088
:1044C000C90707D501684A6832F40032C16A0A4355
:1044D00001684A6090F82810890707D501684A6882
:1044E00032F48032016B0A4301684A6090F8281068
:1044F000490707D501684A6832F48022416B0A43B4
:1045000001684A6090F82810C90607D501688A68D2
:1045100032F48052C16B0A4301688A6090F8281017
:10452000890607D501688A6832F40052016C0A4393
:1045300001688A6090F82810490613D501684A6816
:1045400032F48012416C0A4301684A60416CB1F553
:10455000801F07D101684A6832F4C002816C0A43A7
:1045600001684A6090F82810090607D501684A6872
:1045700032F40022C16C0A4301684A60704738B5C2
:1045800004000020C4F89000FEF7D0F90500206870
:10459000006800071ED57FF07E4000902B000022AF
:1045A0005FF40011200000F055F8002812D02068B8
:1045B00050E8000F30F080000100226842E800104F
:1045C0000028F4D12020C4F88800002084F884005A
:1045D00003203EE02068006840072CD57FF07E4035
:1045E00000902B0000225FF48001200000F032F8E0
:1045F000002820D0206850E8000F30F490700100AF
:10460000226842E800100028F4D12068083050E801
:10461000000F400840000100206810F1080242E845
:1046200000100028F1D12020C4F88C00002084F86C
:10463000840003200DE02020C4F888002020C4F866
:104640008C000020E06600202067002084F88400B1
:10465000002032BD2DE9F04105000E0090461F00FC
:10466000069C2868C0693040B04201D1012000E0BA
:1046700000204146C9B2884238D114F1010FF0D070
:10468000FEF754F9C01B844201D3002C01D1032052
:104690002DE0286800684007E3D5802EE1D0402E49
:1046A000DFD02868C06900070DD508202968086296
:1046B000280000F01EF80820C5F89000002085F8BA
:1046C0008400012013E02868C0690005C9D54FF4B3
:1046D000006029680862280000F00BF82020C5F867
:1046E0009000002085F88400032000E00020BDE851
:1046F000F081016851E8001F31F490710A000368ED
:1047000043E800210029F4D10168083151E8003F55
:10471000DFF868100B401A00016811F1080343E844
:1047200000210029F0D1C16E01290AD1016851E8A8
:10473000001F31F010010A00036843E8002100293E
:10474000F4D12021C0F88C100021C16600214167FE
:104750007047000000800040F369FFCFFFF4FF11B5
:1047600000380140881002400044004000480040EA
:10477000004C00400024F40078540008FEFFFFEFD6
:104780002DE9FC470400002C01D1012062E22078D1
:10479000C00760D5DFF8B407006810F00C00060011
:1047A000DFF8B807006810F0030007000C2E01D1F5
:1047B000032F01D0082E09D1DFF888070068800395
:1047C00049D56068002846D1012043E26068B0F511
:1047D000803F06D1DFF86C07016851F48031016039
:1047E00018E06068B0F5A02F0AD1DFF8580701681B
:1047F00051F480210160016851F48031016009E0C9
:10480000DFF84007016831F480310160016831F45C
:1048100080210160606800280ED0FEF787F805004F
:10482000DFF820070068800315D4FEF77FF8401BEF
:104830006528F5D303200DE2FEF778F80500DFF8D0
:1048400004070068800306D5FEF770F8401B652852
:10485000F5D30320FEE12078800766D5DFF8EC066B
:10486000006810F00C000600DFF8F006006810F099
:10487000030007000C2E01D1022F01D0042E1BD102
:10488000DFF8C0060068400504D5E068002801D1C3
:104890000120DFE1DFF8B006016831F0FE41226956
:1048A00051EA02610160DFF8B006006800F016FD11
:1048B00000283AD00120CDE1E06800281FD0DFF8C1
:1048C0008486D8F8000050F48070C8F80000FEF725
:1048D0002DF80500D8F80000400506D4FEF726F8AC
:1048E000401B0328F6D30320B4E1DFF85C0601681F
:1048F00031F0FE41226951EA0261016015E0DFF802
:104900004486D8F8000030F48070C8F80000FEF744
:104910000DF80500D8F80000400506D5FEF706F8AA
:10492000401B0328F6D3032094E1207800072ED5FE
:104930006069002815D0DFF82886D8F8000050F00C
:104940000100C8F80000FDF7F1FF0500D8F80000ED
:1049500080071CD4FDF7EAFF401B0328F6D3032091
:1049600078E1DFF8FC85D8F8000040084000C8F87E
:104970000000FDF7DBFF0500D8F80000800706D532
:10498000FDF7D4FF401B0328F6D3032062E1207813
:10499000400740F181805FF00008DFF8C895D9F842
:1049A0000000C0000DD4D9F8000050F08050C9F8C4
:1049B0000000D9F8000010F080500090009801200D
:1049C0008046DFF8A4A5DAF80000C00513D4DAF8B1
:1049D000000050F48070CAF80000FDF7A7FF050042
:1049E000DAF80000C00506D4FDF7A0FF401B03283D
:1049F000F6D303202EE1A068012806D1DFF86C056C
:104A0000016851F00101016017E0A06805280AD192
:104A1000DFF85805016851F004010160016851F0A8
:104A20000101016009E0DFF8440501684908490017
:104A30000160016831F004010160A068002810D015
:104A4000FDF774FF0500DFF824050068800719D41E
:104A5000FDF76CFF401B41F289318842F3D30320FC
:104A6000F8E0FDF763FF0500DFF800050068800748
:104A700008D5FDF75BFF401B41F289318842F3D333
:104A80000320E7E04046C0B2012805D1D9F8000074
:104A900030F08050C9F80000207880062ED5A0693B
:104AA000002815D0DFF8C884D8F8000050F00100C5
:104AB000C8F80000FDF73AFF0500D8F800008007AD
:104AC0001CD4FDF733FF401B0328F6D30320C1E0BD
:104AD000DFF89C84D8F8000040084000C8F80000C7
:104AE000FDF724FF0500D8F80000800706D5FDF784
:104AF0001DFF401B0328F6D30320ABE0E06900282C
:104B000000F0A780DFF84404006810F00C000C28C7
:104B10006CD0E06902284BD1DFF82894D9F8000066
:104B200030F08070C9F80000FDF700FF8046D9F82A
:104B30000000800107D5FDF7F9FEB0EB080003285F
:104B4000F5D3032086E0DFF814140A68DFF82404A4
:104B50000240206A0243606A401E52EA0012A06AC4
:104B600052EA0022206B4008401E52EA4052606B1D
:104B70004008401E52EA4062E06A52EAC0620A609F
:104B8000D9F8000050F08070C9F80000086850F0B3
:104B900080700860FDF7CAFE0500D9F800008001AA
:104BA00057D4FDF7C3FE401B0328F6D3032051E082
:104BB000DFF89083D8F8000030F08070C8F800006B
:104BC000FDF7B4FE0500D8F80000800106D5FDF71A
:104BD000ADFE401B0328F6D303203BE0DFF87C1337
:104BE0000A68DFF8940302400A6032E0E0690128B5
:104BF00001D101202EE0DFF864030068070017F000
:104C00000300216A884222D117F0F000616A491E30
:104C1000B0EB011F1BD117F4FE40A16AB0EB012FCE
:104C200015D117F07840E16AB0EBC16F0FD117F4DE
:104C3000C000216B4908491EB0EB415F07D117F056
:104C4000C060616B4908491EB0EB416F01D0012083
:104C500000E00020BDE8F6872DE9F04704000D00D4
:104C60005FF00008002C01D10120EAE0DFF80C938E
:104C7000D9F8000010F00F00A8420ED2D9F80000B9
:104C8000000900012843C9F80000D9F8000010F01D
:104C90000F00A84201D00120D3E02078C00763D5DF
:104CA0006068032821D1DFF89C020068800101D4EC
:104CB0000120C6E000F022F90700DFF8C4028742B5
:104CC00034D3DFF88812086810F0F00F05D0207890
:104CD00080072BD5A068002828D108200A6860F337
:104CE00007120A608020804620E06068022806D112
:104CF000DFF850020068800308D40120A1E0DFF84B
:104D000044020068400501D401209AE000F09BF8BD
:104D10000700DFF86C02874208D3DFF83002082171
:104D2000026861F30712026080208046DFF81CA24F
:104D3000DAF800108908890060680143CAF8001099
:104D4000FDF7F4FD0600DAF8000010F00C006168D1
:104D5000B0EB810F08D0FDF7E9FD801B41F28931EE
:104D60008842F0D303206CE0207880071BD52078A0
:104D7000400705D5DFF8D401016851F4E061016016
:104D80002078000706D5DFF8C4010721026861F327
:104D90000D220260DFF8B4110A6832F0F002A06858
:104DA00002430A6008E0B8F1800F05D1DFF89C01EA
:104DB000016831F0F0010160D9F8000010F00F0037
:104DC000854218D2D9F80000000900012843C9F82B
:104DD0000000FDF7ABFD0600D9F8000010F00F0051
:104DE000A84208D0FDF7A2FD801B41F2893188421C
:104DF000F2D3032025E02078400706D553490A68FE
:104E000032F4E062E06802430A602078000707D5C8
:104E10004E48016831F46051226951EAC2010160D3
:104E200000F011F85749494A1268C2F30312895C2D
:104E300011F01F01C840474908604748006800F06A
:104E40004DFABDE8F08770B44048056815F00C05D0
:104E5000042D01D13E4832E0056815F00C05082DFF
:104E600001D149482BE0006810F00C000C2825D136
:104E70003A4D286810F0030002002868C0F30310C0
:104E8000401C0400032A08D13F48B0FBF4F6286810
:104E9000C0F306204643310007E02D48B0FBF4F68E
:104EA0002868C0F30620464331002868C0F34160FB
:104EB000401C40000300B1FBF3F000E0002070BC98
:104EC000704724480068704780B5FFF7FAFF2F4904
:104ED0001E4A1268C2F30222895C11F01F01C84009
:104EE00002BD80B5FFF7EDFF2849184A1268C2F3EA
:104EF000C222895C11F01F01C84002BD10B4174ADC
:104F0000146814F003041068C0F303135B1C032C33
:104F100007D11D48B0FBF3F11068C0F306204143F0
:104F200006E00B48B0FBF3F11068C0F306204143E4
:104F30001068C0F34162521C5200B1FBF2F010BC89
:104F400070470000001002400410024008100240A8
:104F50000024F40008000020000000200C10024093
:104F6000941002405810024000700040901002401F
:104F7000981002400C809F01FCFFEEFE00200240D2
:104F800001B4C404C054000800366E011055000876
:104F900070B4020092F83C00012801D1022046E0E2
:104FA000012082F83C00022082F83D00106843682E
:104FB00010688468DFF87C501068A84204D010683C
:104FC000DFF87460B04203D133F4700348680343E0
:104FD000DFF8680003400868034310684360106806
:104FE000A84217D01068B0F1804F13D01068DFF8D6
:104FF0005050A8420ED01068DFF84850A84209D09F
:105000001068DFF83450A84204D01068DFF8385038
:10501000A84205D134F08004886804431068846095
:10502000012082F83D00002082F83C00002070BC86
:1050300070470000002C0140003401408FFFFFFD4D
:10504000000400400008004000400140010091F8C9
:105050008400012801D102201AE0012081F8840097
:105060002420C1F8880008680268086800684008C1
:1050700040000B68186032F0005200204866086853
:1050800002602020C1F88800002081F88400002000
:10509000704770B504000D0094F88400012801D118
:1050A000022020E0012084F884002420C4F8880035
:1050B0002068066820680068400840002168086091
:1050C0002068806820F060402843216888602000C4
:1050D00000F035F8206806602020C4F88800002021
:1050E00084F88400002070BD70B504000D0094F8B1
:1050F0008400012801D1022020E0012084F88400EE
:105100002420C4F8880020680668206800684008E9
:105110004000216808602068806830F060602843A3
:1051200021688860200000F00AF8206806602020CE
:10513000C4F88800002084F88400002070BDF0B41A
:10514000416E002906D10121A0F86A100121A0F8C2
:1051500068102DE008210A0008210B000168896809
:10516000490E11F007010C0001688968490F0D0014
:10517000104E114F9C465FFA8CFC2900C9B2795C35
:1051800001FB0CFC2900C9B2715C9CFBF1F1A0F899
:105190006A1094465FFA8CFC2100C9B2795C01FB6D
:1051A0000CFC2100C9B2715C9CFBF1F1A0F8681005
:1051B000F0BC7047085500080055000810B410F006
:1051C0000703DFF8FC4022684FF6FF010A4052EA6D
:1051D0000322DFF8F0100A43226010BC7047384801
:1051E0000068C0F30220704710B4020052B2002AD7
:1051F00005D40A01344B040064B21A5508E00A01D0
:10520000324B040064B214F00F04234403F8042C5E
:1052100010BC704770B4030013F00704D4F107000A
:10522000052801D3042001E0D4F10700251D072D36
:1052300001D2002500E0E51E012616FA00F0401E0E
:105240000140A94016FA05F56D1E2A4011430800D9
:1052500070BC704710B50400601EB0F1807F01D3B0
:1052600001200EE0601E1A4908600F215FF0FF3038
:10527000FFF7BAFF002017490860072016490860A9
:10528000002010BD10B504002000FFF797FF10BDEF
:10529000F8B504000D001600FFF7A1FF070032006B
:1052A00029003800FFF7B6FF0100200040B2FFF7E9
:1052B0009BFFF1BD10B504002000FFF7CBFF10BD30
:1052C0000CED00E00000FA0500E400E018ED00E05D
:1052D00014E000E018E000E010E000E038B5040061
:1052E00000251349086800281DD04FF47A7009681A
:1052F000B0FBF1F00F490968B1FBF0F0FFF7DAFFFE
:1053000000280DD1102C08D2002221005FF0FF30C0
:10531000FFF7BEFF0848046007E00120050004E035
:105320000120050001E0012005002800C0B232BDC7
:1053300004000020080000200000002010000000F1
:10534000010000000024F40062120008621200084C
:10535000621200086212000862120008621200085D
:1053600062120008FFFFFFFFFFFFFFFF621100084E
:105370006212000862120008FFFFFFFFFFFF00003B
:1053800030B4002512E050F8042BD30744BF4A4440
:10539000521E091F042942F8045BFAD213468C07F7
:1053A00044BF15809B1CC90748BF1D7050F8041BE3
:1053B0000029E8D130BC704710B50749794418314D
:1053C000064C7C44163404E00A68081D11448847E2
:1053D0000146A142F8D110BD2C0000004C00000095
:1053E0004EF68851CEF20001086840F47000086063
:1053F000BFF34F8FBFF36F8F4FF00170E1EE100AD4
:10540000704700007DFFFFFF88010000440000207E
:10541000000000008FBCFFFF4400000020FFFFFFE2
:10542000000000200000000000F00DF8002801D06E
:10543000FFF7C2FFAFF300800020AFF30080FDF75D
:1054400083FC00F002F80120704700F001B8000072
:1054500007463846FCF7A2FCFBE70000054801467A
:1054600003B4684680F30988AFF30080FFF7B8FF04
:10547000FFF7DAFFA5EDF5FE0100020004000600CB
:1054800008000A000C00100020004000800000010D
:1054900003490A680348006882180A60704700BF21
:1054A000C401002004000020FEE7FEE7FEE7FEE75F
:1054B000FEE770477047704780B5FFF7E9FF01BD11
:1054C00000000000000000000102030406070809B4
:1054D0000148804701480047E15400085D54000836
:1054E0000248016851F470010160704788ED00E0E6
:1054F000252E346620000000252E34660A000000A8
:105500000101010307010000080402040801010170
:105510000000000001020304FFF7FEBFFFF7FEBF1B
:10552000FFF7FEBFFFF7FEBFFFF7FEBFFFF7FEBFAF
:10553000FFF7FEBFFFF7FEBFFFF7FEBFFFF7FEBF9F
:10554000FFF7FEBFFFF7FEBFFFF7FEBFFFF7FEBF8F
:10555000FFF7FEBFFFF7FEBFFFF7FEBFFFF7FEBF7F
:10556000FFF7FEBFFFF7FEBFFFF7FEBFFFF7FEBF6F
:10557000FFF7FEBFFFF7FEBFFFF7FEBFFFF7FEBF5F
:10558000FFF7FEBFFFF7FEBFFFF7FEBFFFF7FEBF4F
:10559000FFF7FEBFFFF7FEBFFFF7FEBFFFF7FEBF3F
:1055A000FFF7FEBFFFF7FEBFFFF7FEBFFFF7FEBF2F
:1055B000FFF7FEBFFFF7FEBFFFF7FEBFFFF7FEBF1F
:1055C000FFF7FEBFFFF7FEBFFFF7FEBFFFF7FEBF0F
:1055D000FFF7FEBFFFF7FEBFFFF7FEBFFFF7FEBFFF
:1055E000FFF7FEBFFFF7FEBFFFF7FEBFFFF7FEBFEF
:1055F000FFF7FEBFFFF7FEBFFFF7FEBFFFF7FEBFDF
:10560000FFF7FEBFFFF7FEBFFFF7FEBFFFF7FEBFCE
:10561000FFF7FEBFFFF7FEBFFFF7FEBFFFF7FEBFBE
:10562000FFF7FEBFFFF7FEBFFFF7FEBFFFF7FEBFAE
:040000050800545D3E
:00000001FF
