:020000040800F2
:10000000381F0020414E0008FD4C0008FF4C00083E
:10001000014D0008034D0008054D000800000000D8
:10002000000000000000000000000000074D000874
:10003000094D0008000000000B4D00080D4D0008A0
:10004000794E00087D4E0008814E0008854E00085C
:10005000894E00088D4E0008914E0008954E00080C
:10006000994E00089D4E0008A14E0008154D00084D
:10007000A54E0008A94E0008AD4E0008B14E00087C
:10008000B54E000800000000B94E0008BD4E000843
:10009000C14E0008C54E0008C94E0008CD4E0008EC
:1000A000D14E0008D54E0008D94E0008DD4E00089C
:1000B000E14E0008E54E0008E94E0008ED4E00084C
:1000C000F14E0008F54E0008F94E0008FD4E0008FC
:1000D000014F0008054F0008094F00080D4F0008A8
:1000E000114F0008154F0008194F00081D4F000858
:1000F000214F0008254F0008294F0008000000008C
:10010000000000002D4F000800000000314F0008E3
:10011000354F000800000000394F00081F4D00084F
:100120003D4F0008414F0008454F0008494F000867
:100130004D4F00080000000000000000514F000873
:10014000554F0008594F0008000000000000000053
:10015000000000000000000000000000000000009F
:100160000000000000000000000000005D4F0008DB
:10017000614F0008000000000000000000000000C7
:1001800000000000654F00080000000000000000B3
:10019000000000000000000000000000000000005F
:1001A0000000000000000000694F00086D4F0008CB
:1001B000714F0008754F0008794F000800000000DB
:1001C000000000007D4F000800000000000000005B
:1001D000814F0008854F0008826832F47C12114379
:1001E00081607047826832F0E0721143816070472D
:1001F000806810F0E070704710B410F1600414EBE8
:1002000081042168DFF8AC04014012F0F8420A438F
:100210001A4352F00042226010BC7047603010EB6D
:100220008100006810F0F8407047603010EB8100EA
:10023000016821F000410A4302607047603010EB12
:100240008100016831F080710A43026070476030BC
:1002500010EB8100016831F000710A4302607047C1
:10026000426922F00042114341617047C06810F4B6
:10027000406F01D1012000E00020704730B410F140
:1002800030030800800910F00C00C3181C681F25FB
:1002900011F01F008540AC43C2F3846011F01F01D0
:1002A00010FA01F12143196030BC704730B41430AA
:1002B0000B00DB0D13F004031818036807240D006E
:1002C0002D0D15F01F05AC40A343090D11F01F01C2
:1002D00012FA01F11943016030BC704710B4D0F834
:1002E000B0404B035B0B9C43DFF8CC3312F0180299
:1002F000D34019404903490B2143C0F8B01010BC4A
:100300007047806810F01F0070478268DFF8AC13F8
:100310000A40826070478068400F10F0010070470B
:100320008268DFF89C130A4052F080528260704766
:100330008068000F10F0010070478268DFF88013BA
:100340000A4052F00102826070478268DFF8701341
:100350000A4052F0020282607047806810F001008B
:1003600070478068400810F0010070478268DFF82D
:1003700050130A4052F0040282607047806880087F
:1003800010F0010070478068C00810F0010070474D
:10039000F8B50500002700200090002D01D10120B4
:1003A00004E16869002802D095F824000128E86D6E
:1003B000002807D1280000F0A7FC002028660020B4
:1003C00085F858002868FFF7A6FF002802D02868A3
:1003D000FFF79BFF2868FFF7ABFF002813D12868C1
:1003E000FFF79EFFDFF8DC020068DFF8DC12B0FBED
:1003F000F1F0401C4000009002E00098401E009088
:1004000000980028F9D12868FFF792FF002808D14A
:10041000E86D50F01000E865286E50F00100286685
:1004200001272868FFF7AAFF0400E86DC00600F165
:10043000B680002C40F0B380E86D30F4807050F04E
:100440000200E8652868FFF788FF002810D15FF0F8
:10045000A040FFF782FF0600DFF87002FFF77DFF84
:100460000643002E04D16968DFF86402FFF7B4FE8A
:10047000687FE96B51EA4031E8680143A8680143AD
:1004800095F8240051EA004195F82400012803D191
:10049000A86A401E51EA4041E86A002805D0E86A8F
:1004A00010F478700143286B01432868C268DFF8B4
:1004B0002402024011432868C1602868016931F0B4
:1004C0004061686B0143286801612868FFF75BFFA2
:1004D0000443002C4AD1287F95F83810490051EA8E
:1004E00080312868C268DFF8F001024011432868B3
:1004F000C1602869002810D02868006950F4803055
:10050000296808612868D0F8C010890B8903286918
:1005100001432868C0F8C0100DE02868006930F475
:100520008030296808612868D0F8C000800B8003FB
:100530002968C1F8C00095F84000012810D128684A
:1005400001696FF38A01686C0143A86C0143E86C90
:100550000143286D014351F001012868016105E064
:100560002868006940084000296808616869012816
:1005700009D12868006B00090001296A491E084357
:100580002968086305E02868006B000900012968F4
:1005900008630120E96D60F30101E96504E0E86D9D
:1005A00050F01000E86501273800C0B2F2BD2DE917
:1005B000F04105000E0017004548FFF7A2FE0400B9
:1005C0002868FFF7DBFE00286DD195F85800012858
:1005D00001D102206BE0012085F85800002C03D0E7
:1005E000052C01D0092C58D1280000F079FA80465A
:1005F0004046C0B200284CD1E96DDFF8E000014070
:1006000051F48071E96528683049884202D15FF071
:10061000A04000E028682968884201D0002C03D15E
:10062000E86D30F48010E865E86DC00404D5286EEC
:1006300030F00600286601E000202866DFF8940408
:10064000696DC862DFF89004696D0863DFF88C0497
:10065000696D48631C2029680860002085F85800EF
:100660002868406850F01000296848602868C06811
:1006700050F001002968C8603B003200286810F182
:100680004001686D00F080FC80462868FFF76EFE30
:100690000BE0002085F8580007E05FF0010800201B
:1006A00085F8580001E05FF002084046C0B2BDE89E
:1006B000F081000000F0FF03FFFF0700C0FFFF5FB5
:1006C000C0FFFF7F08000020400D03000001005024
:1006D000000300500740F0FFFDBFFFFFFEF1FFFFEA
:1006E0002DE9FC4106000F00002500200090DFF8F6
:1006F000A484F8684045FFD196F85800012801D13C
:100700000220E5E1012086F858003068FFF736FE48
:10071000002840F0D3813A6879683068FFF7AEFD71
:100720003068FFF72BFE04003068FFF72CFE04430F
:10073000002C40F0D980B868B0F1004F0AD10022F7
:1007400039683068FFF7B2FD5FF000413068FFF7AD
:1007500087FD08E0BA6839683068FFF7A7FD002117
:100760003068FFF77DFD78693168C968C1F3C1035E
:100770005B0010FA03F33869042815D03A68396928
:100780003068FFF739FDBA6939693068FFF756FDFF
:10079000387F012802D15FF0007200E00022396941
:1007A0003068FFF754FD9FE000213068FFF736FD09
:1007B000400306D100213068FFF730FDC0F38460AC
:1007C00007E000213068FFF729FD90FAA0F0B0FAA9
:1007D00080F03968490303D13968C1F3846104E0CA
:1007E000396891FAA1F1B1FA81F1884204D100226D
:1007F00000213068FFF719FD01213068FFF70EFD79
:10080000400306D101213068FFF708FDC0F3846082
:1008100007E001213068FFF701FD90FAA0F0B0FA7F
:1008200080F03968490303D13968C1F3846104E079
:10083000396891FAA1F1B1FA81F1884204D100221C
:1008400001213068FFF7F1FC02213068FFF7E6FC78
:10085000400306D102213068FFF7E0FCC0F384605A
:1008600007E002213068FFF7D9FC90FAA0F0B0FA57
:1008700080F03968490303D13968C1F3846104E029
:10088000396891FAA1F1B1FA81F1884204D10022CC
:1008900002213068FFF7C9FC03213068FFF7BEFC76
:1008A000400306D103213068FFF7B8FCC0F3846031
:1008B00007E003213068FFF7B1FC90FAA0F0B0FA2E
:1008C00080F03968490303D13968C1F3846104E0D9
:1008D000396891FAA1F1B1FA81F1884204D100227C
:1008E00003213068FFF7A1FC3068FFF736FD0028D0
:1008F00040F08E80FA6839683068FFF7EFFCF868DE
:10090000404540F085803868400303D13868C0F323
:10091000846004E0386890FAA0F0B0FA80F0401CDF
:1009200010F01F000A2836D23868400303D1386817
:10093000C0F3846104E0386890FAA0F0B0FA80F166
:100940003868400303D13868C0F3846004E0386835
:1009500090FAA0F0B0FA80F03A68520303D13A68F6
:10096000C2F3846204E03A6892FAA2F2B2FA82F226
:10097000491C890611F0F8410123401C10F01F00AA
:1009800013FA00F00143521C12F01F0203204243ED
:1009900051EA025138E03868400303D13868C0F3A7
:1009A000846104E0386890FAA0F0B0FA80F1386809
:1009B000400303D13868C0F3846004E0386890FADB
:1009C000A0F0B0FA80F03A68520303D13A68C2F35B
:1009D000846204E03A6892FAA2F2B2FA82F2491C06
:1009E000890611F0F8410123401C10F01F0013FA92
:1009F00000F00143521C12F01F020A3A0320424346
:100A000051EA025151F00071BA683068FFF74EFCAC
:100A10003868DFF88411084255D0DFF870412000B3
:100A2000FFF7E6FB01003868DFF87021904204D040
:100A30003868DFF86C2190421CD108021AD4306863
:100A4000B0F1A04F3FD151F400012000FFF7CAFBE5
:100A5000DFF850010068DFF85011B0FBF1F1491CDC
:100A60000C2041430091009800282CD00098401E93
:100A70000090F8E73868DFF8342190420CD1C801C3
:100A80000AD43068DFF8082190421CD051F0807100
:100A90002000FFF7A7FB16E03868DFF8142190422A
:100AA00011D148020FD43068DFF8E42090420AD018
:100AB00051F480012000FFF795FB04E0F06D50F049
:100AC0002000F0650125002086F858002800C0B2FB
:100AD000BDE8F681330C0008B50C0008BF0C000817
:100AE00038B50400002000902068FFF736FC00288D
:100AF00049D1206880686FF39E10002809D0E06D0E
:100B000050F01000E065206E50F0010020660120DA
:100B10003AE02068FFF711FC1C48FFF769FB000270
:100B20000FD5204800682049B0FBF1F1491C0C208A
:100B30004143009102E00098401E00900098002878
:100B4000F9D100F04DFB050020680068C0071AD4F9
:100B50002068FFF702FC002802D12068FFF7EDFBB8
:100B600000F03EFB401B0328EED320680068C0075E
:100B7000EAD4E06D50F01000E065206E50F0010006
:100B80002066012000E0002032BD0000000300507C
:100B90000001005000007F4000000880000021C3D9
:100BA0001000C09008000020400D0300000052C754
:100BB000000084CB38B505002868FFF7D2FB04009D
:100BC0002868FFF7CAFB002831D0002C2FD12868F5
:100BD000806810F00D0001281FD12868FFF7B5FBD1
:100BE00003202968086000F0FBFA04002868806888
:100BF000C0071CD500F0F4FA001B0328F6D32868C0
:100C00008068C007F2D5E86D50F01000E865286EE6
:100C100050F00100286601200AE0E86D50F0100055
:100C2000E865286E50F001002866012000E00020F1
:100C300032BD10B5846AE16D11F0500F2FD1E06D17
:100C400050F40070E06520680068000714D5206843
:100C5000FFF70CFB00281ED02068C06880041AD45F
:100C6000E06D30F48070E065E06DC00413D4E06D99
:100C700050F00100E0650EE02068C06880070AD4EB
:100C8000E06D30F48070E065E06DC00403D4E06D89
:100C900050F00100E065200000F0A8FA09E0E16DE5
:100CA000C90603D5200000F0A2FA02E0616D496B8D
:100CB000884710BD80B5806A00F09AFA01BD80B502
:100CC000806AC16D51F04001C165016E51F00401AF
:100CD000016600F08CFA01BD80B56D48016851F0E5
:100CE00001010160006810F001000090009869485F
:100CF000016851F080510160006810F08050009050
:100D0000009800F0FFFD01BD30B597B0040014223B
:100D1000002101A800F008FE4422002106A800F0EE
:100D200003FE2068B0F1A04F48D14FF40040069078
:100D30005FF00050159006A800F000FE002801D0DA
:100D400000F06CFD5448016851F4005101600168E5
:100D500011F4005100910099016851F00101016006
:100D6000006810F00100009000980120019003201D
:100D700002900020039001A95FF0904000F04AFF2C
:100D8000464D47482860052068600020A860002084
:100D9000E860802028614FF4807068614FF48060C3
:100DA000A8612020E86100202862280000F080F877
:100DB000002801D000F032FD6565AC6217B030BD8F
:100DC00080B50168374A91420AD13248016851F032
:100DD00010010160006810F010000090009815E00C
:100DE00000683149884211D12A48016851F0200138
:100DF0000160006810F0200000900098002200219F
:100E0000372001F066F8372001F073F801BD18B5FE
:100E100097B004001422002101A800F085FD4422AF
:100E2000002106A800F080FD2068204988422DD1CD
:100E3000022006900020089006A800F07FFD002800
:100E400001D000F0EBFC1348016851F4003101605F
:100E5000006810F40030009000980F48016851F0CD
:100E600001010160006810F00100009000980C2062
:100E7000019002200290002003900020049007209F
:100E8000059001A95FF0904000F0C4FE18B010BDBD
:100E900060100240581002404C100240B41900206B
:100EA00008000240001000400014004000440040D0
:100EB00010B50400002C01D1012064E02068DFF8A7
:100EC000F81288420CD22168DFF8F0024118142091
:100ED000B1FBF0F080006064DFF8E40220640BE016
:100EE0002168DFF8E00241181420B1FBF0F0800027
:100EF0006064DFF8D4022064022084F825002068B2
:100F000001686FF30E11A0680143E0680143206996
:100F1000014360690143A0690143E0690143206A1C
:100F2000014320680160200000F01AF9A068B0F5C4
:100F3000804F01D100206060207900F0FF00A16C9B
:100F40000860206DE16C4860606800280CD0606823
:100F5000052809D2200000F01FF90020616D08600B
:100F6000E06DA16D486005E0002060650020A0658F
:100F70000020E0650020E063012084F825000020C7
:100F800084F82400002010BD70B50400002594F8FA
:100F90002400012801D102204AE0012084F8240025
:100FA00094F8250001283DD1022084F82500002076
:100FB000E063206800684008400026683060200038
:100FC00000F0ACF8206B002806D02068006850F0D4
:100FD0000E00216808600BE02068006830F0040013
:100FE000216808602068006850F00A0021680860E5
:100FF000A06C0068C00305D5A06C006850F4807038
:10100000A16C0860606D002805D0606D006850F428
:101010008070616D08602068006850F001002168F0
:10102000086003E0002084F8240002252800C0B2F4
:1010300070BD10B5016C0A6801680B68042190F856
:10104000444014F01F0411FA04F4224218D05C0743
:1010500016D502681268920605D40268126832F04A
:10106000040203681A6090F8442012F01F029140B5
:10107000026C5160016B00294FD0016B88474CE036
:10108000022190F8444014F01F0411FA04F42242A3
:101090001ED09C071CD502681268920608D402680C
:1010A000126832F00A0203681A60012280F82520D3
:1010B00090F8442012F01F029140026C5160002110
:1010C00080F82410C16A002927D0C16A884724E02B
:1010D000082190F8444014F01F04A1400A421CD09B
:1010E00019071AD50168096831F00E01026811600C
:1010F000012190F8442012F01F029140026C5160CF
:101100000121C163012180F82510002180F82410FD
:10111000416B002901D0416B884710BD30B4046D8C
:10112000C56C6C60446D002C02D0C46D856D6C6024
:10113000012490F8445015F01F05AC40056C6C601C
:10114000046863608368102B04D103689A600068A8
:10115000C16003E0036899600068C26030BC7047FA
:101160000168154A914201D2184900E018490278F5
:1011700002F0FF02083A1423B2FBF3F2436C9B081F
:101180009B00591881641349C164012112F01F02A8
:1011900011FA02F202657047017901F0FF010E4A6F
:1011A00012EB810242650D4A82650122491E11F04F
:1011B0001F018A40C265704708040240F8FFFDBF66
:1011C00000000240F8FBFDBF00040240000802409E
:1011D0002008024080080240FC080240400902400A
:1011E00001480068704700BF2C1B00207047704703
:1011F000DFF8B4050168491C0160DFF8B005DFF8CD
:10120000B0150A8882604A88026089884160704708
:10121000DFF8A015884219D1DFF88C050168DFF8E6
:101220009825116000210160DFF890050168DFF862
:101230009025116000210160DFF8881508780028EA
:1012400002D10120087001E0002008707047000002
:101250002DE9F04100F066FE00F0D2F800F05EFAF1
:1012600000F03FFA00F005FA00F0B3F900F007F9DA
:1012700000F0D7F9DFF83C0500F0FEFEDFF8484546
:10128000200000F0BAFE9FED5D0ADFF840557F2197
:10129000280001F014F9642001F094FC0322DFF827
:1012A00010152800FFF783F901F0A0FCC0B2002858
:1012B00003D000BF00BF00BF00BFDFF81455DFF848
:1012C000140501F0E9FC287000BF00BF00BFDFF883
:1012D000086501224FF48071300000F06FFD00209E
:1012E00021684862DFF8C414DFF8F0040A68B0FB34
:1012F000F2F0C860CA68886842434FF47A70B2FB63
:10130000F0F08861886901F0F5FD0022DFF8D03443
:1013100001F0FEFD01F020FF00EE100ADFF8C484AA
:1013200088ED000A4FF400615FF0904000F03DFD51
:10133000002807D100BF00BF00BF00BF0120DFF8B9
:10134000A8140860DFF8A404DFF8A4740168D8F8D2
:10135000002047F821200168491C01600168B1F5AF
:10136000C06F39D30021016001221021300000F04C
:1013700025FDDFF874140868002812D000200860EA
:101380005FF0000805E0380001F01AFF287018F13E
:101390000108404680B26428F5DB00BF00BF00BFF3
:1013A00000BFDFF850844146380002F01DF8287075
:1013B00098F800005F2805DA01222021300000F0B3
:1013C000FDFC04E000222021300000F0F7FC0022A8
:1013D0001021300000F0F2FC00224FF48071300048
:1013E00000F0ECFCDFF8D4030168491C01602068C0
:1013F000406A2128BFF46BAFF9E70000000000004D
:1014000018B593B03821002205AC200002F008F98D
:10141000142100226C46200002F002F9002000F0A6
:10142000FFF9012005905FF48030069002200C90B7
:1014300003200D9006200E9055200F900220109052
:10144000022011900220129005A802F01DF9002838
:1014500001D000F0E3F90F2000900320019000205C
:10146000029000200390002004900421684602F0BE
:1014700046FB002801D000F0D1F914B010BD38B5FA
:101480009AB00C21002217AC200002F0C9F82021EC
:1014900000226C46200002F0C3F83C21002208AC78
:1014A000200002F0BDF8C94C5FF0A04020605FF45E
:1014B000403060600020A0600020E06000202061DB
:1014C000012060610820A061002020770120607762
:1014D00003202062002084F824000020E062002025
:1014E0002063012084F838000020E063012084F8A4
:1014F00040001C2060644FF48070A0640020E06411
:10150000012020652000FEF743FF002801D000F0F5
:1015100085F90020179017A9200001F0BAFA0028D9
:1015200001D000F07BF9B44D009506200190002019
:1015300002907F20039004200490002005906946CB
:101540002000FFF7CDF8002801D000F067F9AB4884
:1015500000900C20019069462000FFF7C1F8002898
:1015600001D000F05BF9A648009012200190694676
:101570002000FFF7B5F8002801D000F04FF90895DA
:101580000920099000200A907F200B9004200C90E5
:1015900000200D905FF080700E90012010900020D0
:1015A0008DF8440000208DF8450000208DF846009D
:1015B000002012900020139000208DF8500008A900
:1015C000200000F0CDFF002801D000F027F91BB06B
:1015D00030BD1FB50C2100226C46200002F020F81F
:1015E000794C8848206040F2A36060600020A060D1
:1015F0004FF6FF70E0600020A061200000F0C0FC0A
:10160000002801D000F00AF900200090002002908C
:101610006946200002F0F8FB002801D000F0FEF837
:101620001FBD1FB50C2100226C46200001F0F8FF01
:10163000604C7548206044F2672060600020A06024
:1016400042F20F70E0600020A061200000F098FCE2
:10165000002801D000F0E2F8002000900020029065
:101660006946200002F0D0FB002801D000F0D6F837
:101670001FBD10B5654C664820605FF46120606056
:101680000020A0600020E060002020610C2060614C
:101690000020A0610020E061002020620020606244
:1016A0000020A062200002F007FC002801D000F01A
:1016B000B5F80021200002F067FF002801D000F0FB
:1016C000ADF80021200002F089FF002801D000F0D1
:1016D000A5F8200002F036FF002801D000F09EF8A7
:1016E00010BD80B54B48016851F0040101600168EC
:1016F00011F0040100910099016851F001010160AD
:10170000006810F0010000900098002200210B20DA
:1017100000F0DFFB0B2000F0ECFB01BD10B586B044
:101720001421002201AC200001F07AFF3A48016840
:1017300051F020010160016811F020010091009931
:10174000016851F001010160016811F0010100918F
:101750000099016851F002010160006810F0020078
:10176000009000981C4C00224FF49871200000F06B
:1017700025FB4FF4006001900020029001200390AF
:1017800001A95FF0904000F045FA4FF49870019085
:1017900001200290002003900020049001A9200065
:1017A00000F038FA06B010BD181B0020E81A00201F
:1017B000041B0020601A0020141B0020201B0020A6
:1017C0001C1B0020341B0020141A00204819002084
:1017D000351B0020F04B000800040048488212002E
:1017E00000408F40101B0020281B0020241B0020DD
:1017F000B4000020361B002002003004000084CB1F
:10180000000052C70010004000140040B41800202F
:1018100000440040481002404C10024072B6FEE7FF
:10182000002831D1DFF8E800016811F4C061B1F59A
:10183000806F22D1DFF8DC100A6832F480720A600F
:101840000121026861F34A220260DFF8CC000168DE
:1018500032204143DFF8C400B1FBF0F0401C00E04F
:10186000401EDFF8BC100A68520501D50028F7D1E8
:101870000868400544D5032043E0DFF8980001687C
:1018800031F4807101603BE0B0F5007F31D1DFF8C9
:101890008000016811F4C061B1F5806F22D1DFF8DA
:1018A00074100A6852F480720A600121026861F3C0
:1018B0004A220260DFF86000016832204143DFF80D
:1018C0005C00B1FBF0F0401C00E0401EDFF850105F
:1018D0000A68520501D50028F7D1086840050FD5E0
:1018E00003200EE0DFF82C00016851F480710160E4
:1018F00006E0DFF81C000221026861F34A22026060
:10190000002070470748016851F48041016070472A
:1019100000700040807000400800002040420F002E
:10192000147000400870004010B5044610460A4686
:101930000146204601F074FE204610BD2DE9FC470B
:101940000400002700252068000373D55FF000081D
:10195000DFF8AC623068C0000AD4306850F08050C4
:101960003060306810F08050009000985FF00108FF
:10197000DFF89092D9F8000050F48070C9F80000A8
:10198000FFF72EFC8246D9F80000C00506D4FFF709
:1019900027FCB0EB0A000328F5D303273800C0B2B8
:1019A00000283DD1DFF86092D9F8000010F44070B3
:1019B000002814D0216C884211D0D9F8000030F4EE
:1019C0004070D9F8001051F48031C9F80010D9F8EE
:1019D000001031F48031C9F80010C9F80000C007C8
:1019E0000FD5FFF7FDFB8246D9F80000800708D429
:1019F000FFF7F6FBB0EB0A0041F289318842F3D3DE
:101A000003273800C0B2002808D1D9F8001031F4FB
:101A10004071206C0143C9F8001002E03D0000E075
:101A20003D005FFA88F8B8F1010F03D1306830F05B
:101A3000805030602078C00707D5DFF8D0110A68E1
:101A400092089200606802430A602078800707D5F8
:101A5000DFF8B8110A6832F00C02A06802430A608D
:101A60002078400707D5DFF8A4110A6832F0300269
:101A7000E06802430A602078000707D5DFF88C1180
:101A80000A6832F0C002206902430A6020788006AA
:101A900007D5DFF878110A6832F4406260690243C2
:101AA0000A602078400607D5DFF860110A6832F432
:101AB0004052A06902430A602078000607D5DFF88B
:101AC0004C110A6832F44042E06902430A6020681F
:101AD000C00507D5DFF834110A6832F44032206AB5
:101AE00002430A602068800507D5DFF820110A68E4
:101AF00032F44022606A02430A602068400511D532
:101B0000DFF808110A6832F44012A06A02430A6042
:101B1000A06AB0F5801F05D1DFF8F400016851F428
:101B2000801101602068000511D5DFF8E0100A6817
:101B300032F44002E06A02430A60E06AB0F5800FC6
:101B400005D1DFF8CC00016851F4801101602068F4
:101B5000C00411D5DFF8B4100A6832F04072206B6F
:101B600002430A60206BB0F1807F05D1DFF8A0004E
:101B7000016851F4801101602068800411D5DFF8FC
:101B80008C100A6832F04062606B02430A60606B3E
:101B9000B0F1006F05D1DFF87800016851F48011D1
:101BA00001602068400411D5DFF860100A6832F047
:101BB0004062A06B02430A60A06BB0F1006F05D1D8
:101BC000DFF84C00016851F48011016020680004C6
:101BD00011D5DFF838100A6832F04052E06B02434A
:101BE0000A60E06BB0F1805F05D1DFF82400016886
:101BF00051F4803101602800C0B2BDE8F6870000D2
:101C000058100240007000409010024088100240BE
:101C10000C100240F8B40200002432E0062604E072
:101C2000DFF8AC61B242F9D10526A70017F00C0726
:101C3000BE4035432600B60843F82650DFF89451DD
:101C40002B6883434E68F60200D503432B60624D38
:101C50002B6883434E68B60200D503432B605F4D6B
:101C60002B6883434E68B60300D503432B605C4D5D
:101C70002B6883434E68F60301D5184303002B609D
:101C8000641C0868E040002800F08D800126086888
:101C900016FA04F318400028F2D00B7913F003036E
:101CA000012B04D00B7913F00303022B12D195689A
:101CB000032763009F40BD43CF6863009F403D43BF
:101CC00095605368A640B3434D68C5F30015A54021
:101CD0002B4353600B7913F00303032B09D0D56812
:101CE000032663009E40B5438E6863009E403543E3
:101CF000D5600B7913F00303022B15D12300DB0809
:101D000002EB83031B6A0F25A60016F01C06B540E4
:101D1000AB430D69A60016F01C06B5402B43250009
:101D2000ED0802EB85052B621568032663009E40D3
:101D3000B5430E7916F0030663009E4035431560E7
:101D40004B6813F4403F9BD0264B1D6855F00105AE
:101D50001D601B6813F001030093009B224B2500BC
:101D6000AD0853F825500F26A70017F00C07BE400A
:101D7000B543B2F1904F01D1002656E71B4EB24257
:101D800001D1012651E71A4EB24201D102264CE799
:101D9000184EB24201D1032647E7174EB2427FF4F4
:101DA0003FAF042641E7F1BC7047006989B20842A1
:101DB00001D0012000E00020C0B27047D2B2002A5A
:101DC00002D089B2816101E089B28162704700006E
:101DD00000140048080401400C04014004040140C0
:101DE0000004014060100240080001400004004867
:101DF00000080048000C00480010004810F00700E0
:101E0000404B1A684FF6FF010A4052EA00223E4852
:101E100002431A6070473B480068C0F302207047D5
:101E2000010049B2002908D4012210F01F018A40A4
:101E3000364940B2400941F820207047020052B2B2
:101E4000002A04D40901324A40B2115407E00901C2
:101E5000304A40B210F00F00104400F8041C7047E4
:101E600010B410F00700D0F10703052B01D30423B1
:101E700001E0D0F10703041D072C01D2002000E08F
:101E8000C01E012414FA03F35B1E1940814014FAAA
:101E900000F0401E1040084310BC704780B5411E42
:101EA000B1F1807F01D301200EE0401E1A49086085
:101EB0000F215FF0FF30FFF7C1FF002017490860D6
:101EC000072017490860002002BD80B5FFF796FF84
:101ED00001BD70B504000D001600FFF79CFF320035
:101EE0002900FFF7BDFF0100200040B2FFF7A6FF69
:101EF00070BD80B540B2FFF793FF01BD80B5FFF71D
:101F0000CDFF02BD0CED00E00000FA0500E100E0AD
:101F100000E400E018ED00E014E000E018E000E06C
:101F200010E000E010B500240320FFF7CEFF0020F2
:101F300002F0B2FB002801D0012401E0FEF7CCFE44
:101F40002000C0B210BD30B50168846842184168F5
:101F500002EB5103C90703D54C4401E0491C08D1E9
:101F60009A4218BF12F9011B01D10C3030BD12F892
:101F7000015B002904F8015BF0D4491EF7D5EFE7B7
:101F800010B50400002C01D1012035E094F83D008B
:101F9000002805D1002084F83C002000FEF710FF47
:101FA000022084F83D00211D206800F08EF90120F8
:101FB00084F84800012084F83E00012084F83F00A6
:101FC000012084F84000012084F84100012084F8B9
:101FD0004200012084F84300012084F844000120DD
:101FE00084F84500012084F84600012084F8470069
:101FF000012084F83D00002010BD90F83D1001291B
:1020000001D0012037E0022180F83D100168DFF89F
:10201000F420914217D00168B1F1804F13D00168CC
:10202000DFF8E42091420ED00168DFF8E020914211
:1020300009D00168DFF8D820914204D00168DFF8A8
:10204000D420914210D101688A68DFF8CC100A4090
:10205000062A0FD0B2F5803F0CD00168096851F014
:1020600001010068016005E00168096851F00101A3
:10207000006801600020704790F83D10012901D0F0
:1020800001203DE0022180F83D100168C96851F04F
:1020900001010268D1600168DFF86820914217D021
:1020A0000168B1F1804F13D00168DFF85C209142E4
:1020B0000ED00168DFF85420914209D00168DFF8A2
:1020C0005020914204D00168DFF84820914210D19D
:1020D00001688A68DFF840100A40062A0FD0B2F57E
:1020E000803F0CD00168096851F00101006801606F
:1020F00005E00168096851F00101006801600020F5
:1021000070470000002C014000040040000800401F
:1021100000340140004001400700010070B5040098
:102120002068C56820680669B00718D5A80716D5C5
:102130007FF0020021680861012020772068806913
:1021400010F0030F03D0200002F0D4FA05E02000C5
:1021500002F0D1FA200002F0CFFA002020777007B9
:1021600018D5680716D57FF00400216808610220A1
:1021700020772068806910F4407F03D0200002F0AF
:10218000B9FA05E0200002F0B6FA200002F0B4FA35
:1021900000202077300718D5280716D57FF00800D3
:1021A00021680861042020772068C06910F0030FBF
:1021B00003D0200002F09EFA05E0200002F09BFA16
:1021C000200002F099FA00202077F00618D5E806E2
:1021D00016D57FF01000216808610820207720685C
:1021E000C06910F4407F03D0200002F083FA05E0BC
:1021F000200002F080FA200002F07EFA0020207712
:10220000F00708D5E80706D57FF0010021680861CE
:102210002000FEF7FDFF16F4025F08D0280606D561
:102220007FF4025021680861200002F066FAF00590
:1022300008D5280606D57FF4807021680861200043
:1022400002F05CFA700608D5680606D57FF04000FB
:1022500021680861200002F052FAB00608D5A806ED
:1022600006D57FF0200021680861200002F048FABE
:10227000F00208D5E80206D57FF4801021680861D5
:10228000200002F03EFAB00208D5A80206D57FF47D
:10229000001021680861200002F034FA700208D5AD
:1022A000680206D57FF4800021680861200002F0F2
:1022B0002AFA300208D5280206D57FF400002168EA
:1022C0000861200002F020FA70BD10B40468DFF845
:1022D000BC3098420ED0B0F1804F0BD0DFF8B02068
:1022E000904207D0DFF8BC20904203D0DFF8A42052
:1022F000904203D134F070044A681443984219D0D4
:10230000B0F1804F16D0DFF88820904212D0DFF86D
:10231000942090420ED01F4A90420BD0DFF87820D4
:10232000904207D0DFF87420904203D0DFF870208D
:10233000904203D134F44074CA68144334F08004EA
:102340004A69144304608A68C2620A6882629842D9
:102350000ED0104A90420BD0DFF83C20904207D0BC
:10236000DFF83820904203D0DFF83420904201D1CA
:1023700009690163012141610169C90703D5016947
:1023800049084900016110BC70470000002C014061
:10239000000400400034014000400140004401407E
:1023A0000048014000080040826832F0E0721143AA
:1023B00081607047806810F0E070704710B410F1D1
:1023C000600414EB81042168DFF88401014012F0FD
:1023D000F8420A431A4352F00042226010BC704790
:1023E000603010EB8100006810F0F84070476030FA
:1023F00010EB8100016821F000410A430260704740
:10240000603010EB8100016831F080710A43026096
:102410007047603010EB8100016831F000710A43B1
:1024200002607047426922F00042114341617047E7
:1024300030B414300B00DB0D13F0040318180368DC
:1024400007240D002D0D15F01F05AC40A343090D09
:1024500011F01F0112FA01F11943016030BC7047FD
:1024600010B4D0F8B0404B035B0B9C43DFF8E43072
:1024700012F01802D34019404903490B2143C0F818
:10248000B01010BC7047806810F00100704783687E
:10249000DFF8C420134011F08041194351F000418E
:1024A000816070478068C00F70478068800810F0B6
:1024B000010070478068C00810F0010070477CB5CB
:1024C00004000D000020009094F85800012801D16C
:1024D00002203BE0012084F858002000FEF76AFB50
:1024E00006003000C0B2002827D1E06D30F48850DB
:1024F00050F00200E06529002068FFF7C8FF20685F
:10250000FFF7D0FF002812D00098401C00900098E0
:10251000DFF848108842F2D3E06D30F0020050F04E
:102520001000E065002084F8580001200EE0012032
:10253000E16D60F30101E16503E0E06D50F0100032
:10254000E065002084F858003000C0B276BD00007D
:1025500000F0FF03FFFF0700C0FFFF3F02DE0400A3
:102560002DE9FC4105000F0000260020009000210D
:1025700068690028DFF82486F8684045FFD195F89F
:102580005800012801D1022081E2012085F858007D
:102590006869002802D0386A01281FD178680928A4
:1025A0004CD1B86A00280BD03968490C11F4785125
:1025B00097F8280010F07C000143F86A014303E01B
:1025C0003968490C11F478512868C26CDFF8D005DD
:1025D00002400A432868C26469662FE0A86E00289A
:1025E00012D1386AA86600206866B86A002809D047
:1025F000396A491E97F8280010F07C000143F86AF8
:10260000014301E0396A491E3868C0F384603A79B1
:1026100012F01F0290400143A86E401EA866686E2B
:1026200001436966A86E002808D12868C16CDFF8EC
:1026300070050140686E01432868C1642868FFF78F
:1026400039FF00281CD197F8250000280ED12868F2
:10265000C06830F4401097F8261050EA415097F8BF
:10266000241050EA01502968C86009E02868C06851
:1026700030F4401097F8261050EA41502968C8609D
:102680002868FFF712FF04002868FFF713FF0443D0
:10269000002C40F01881B86A002802D0F86A00289F
:1026A00011D197F82500012806D12868C06850F09C
:1026B00000702968C86016E02868C06830F00070B3
:1026C0002968C8600FE097F82500012805D1E86D5A
:1026D00050F02000E865012605E02868C06830F069
:1026E00000702968C86097F8300001280CD128686C
:1026F000016931F4FF71786B0143B86B014351F00C
:1027000002012868016105E02868006930F00200D4
:1027100029680861B868B0F1004F0AD10022396811
:102720002868FFF785FE5FF000412868FFF77AFE12
:1027300008E0BA6839682868FFF77AFE002128683F
:10274000FFF770FE78692968C968C1F3C1035B00AF
:1027500010FA03F33869042815D03A6839692868F3
:10276000FFF72CFEBA6939692868FFF749FE387F00
:10277000012802D15FF0007200E000223969286868
:10278000FFF747FE9FE000212868FFF729FE40037E
:1027900006D100212868FFF723FEC0F3846007E01C
:1027A00000212868FFF71CFE90FAA0F0B0FA80F034
:1027B0003968490303D13968C1F3846104E0396899
:1027C00091FAA1F1B1FA81F1884204D100220021ED
:1027D0002868FFF70CFE01212868FFF701FE40037F
:1027E00006D101212868FFF7FBFDC0F3846007E0F4
:1027F00001212868FFF7F4FD90FAA0F0B0FA80F00C
:102800003968490303D13968C1F3846104E0396848
:1028100091FAA1F1B1FA81F1884204D1002201219B
:102820002868FFF7E4FD02212868FFF7D9FD40037F
:1028300006D102212868FFF7D3FDC0F3846007E0CA
:1028400002212868FFF7CCFD90FAA0F0B0FA80F0E2
:102850003968490303D13968C1F3846104E03968F8
:1028600091FAA1F1B1FA81F1884204D1002202214A
:102870002868FFF7BCFD03212868FFF7B1FD40037E
:1028800006D103212868FFF7ABFDC0F3846007E0A1
:1028900003212868FFF7A4FD90FAA0F0B0FA80F0B9
:1028A0003968490303D13968C1F3846104E03968A8
:1028B00091FAA1F1B1FA81F1884204D100220321F9
:1028C0002868FFF794FD2868FFF7DDFD002840F039
:1028D0008E80FA6839682868FFF7C2FDF8684045BD
:1028E00040F085803868400303D13868C0F38460C5
:1028F00004E0386890FAA0F0B0FA80F0401C10F0C4
:102900001F000A2836D23868400303D13868C0F364
:10291000846104E0386890FAA0F0B0FA80F1386879
:10292000400303D13868C0F3846004E0386890FA4B
:10293000A0F0B0FA80F03A68520303D13A68C2F3CB
:10294000846204E03A6892FAA2F2B2FA82F2491C76
:10295000890611F0F8410123401C10F01F0013FA02
:1029600000F00143521C12F01F020320424351EABF
:10297000025138E03868400303D13868C0F38461FD
:1029800004E0386890FAA0F0B0FA80F138684003AB
:1029900003D13868C0F3846004E0386890FAA0F08E
:1029A000B0FA80F03A68520303D13A68C2F3846205
:1029B00004E03A6892FAA2F2B2FA82F2491C89065D
:1029C00011F0F8410123401C10F01F0013FA00F031
:1029D0000143521C12F01F020A3A0320424351EAFB
:1029E000025151F00071BA682868FFF721FD38687C
:1029F0006C49084246D0684C2000FFF7DBFC010020
:102A00003868694A904203D03868684A90421AD1BF
:102A1000080218D42868B0F1A04F33D151F4000156
:102A20002000FFF7C1FC624800686249B0FBF1F189
:102A3000891C0C20414300910098002822D0009866
:102A4000401E0090F8E738685B4A90420BD1C801FD
:102A500009D428684F4A904214D051F08071200068
:102A6000FFF7A2FC0EE03868544A90420AD14802AF
:102A700008D42868474A904204D051F480012000CD
:102A8000FFF792FC002085F858003000C0B2BDE886
:102A9000F6812DE9F8419BB005000F00002638684B
:102AA000002895F85800012801D102206EE001208D
:102AB00085F8580000201790002018902868B0F181
:102AC000A04F02D13348009001E000200090009810
:102AD000002808D1E86D50F02000E865002085F856
:102AE0005800012052E00098FFF7DFFC040028683E
:102AF000FFF7DBFC0443002C3ED1DFF89C803868F4
:102B0000002821D0D8F8081031F4604178680143DA
:102B100095F8380051EA4031C8F808105FF0A0403D
:102B2000FFF7B1FC04001B48FFF7ADFC0443002C89
:102B300027D1D8F808102248014038680143B86806
:102B40000143C8F808101CE0D8F8080030F46040D1
:102B5000C8F808005FF0A040FFF795FC04000D489E
:102B6000FFF791FC0443002C0BD1D8F8081014484F
:102B70000140C8F8081004E0E86D50F02000E86556
:102B80000126002085F858003000C0B21CB0BDE816
:102B9000F0810000000100500003005000007F4061
:102BA0000040100400000880000021C31000C09005
:102BB00008000020400D0300000052C7000084CB35
:102BC000E0F0FFFF38B50400FEF70AFB050014F142
:102BD000010F02D0044800680419FEF701FB401BF6
:102BE000A042FAD331BD00BF0400002010B53C2440
:102BF000224600211548FEF797FE22460021144880
:102C0000144CFEF791FE144A144900231360144A31
:102C10000B604FF07E5C134BC2F800C0124A1A6082
:102C200000201249124B134A2060134C0C601A60AA
:102C30001249134B134C144A0C601A601349144A7E
:102C4000144B107001240C70186010BD3C00002063
:102C5000780000201C00002020000020240000201C
:102C600038000020340000200000404030000020E8
:102C7000301B00208FC2753F3333B33F2C00002040
:102C8000280000205C8F023F6666663F1800002027
:102C90001000002014000020D0ED007A864A90ED4C
:102CA000084A8649864BD0ED014A90ED025AD0ED94
:102CB000035A90ED046AD0ED056AD0F81CC0FCEE12
:102CC000E77A00B5C1ED007A82ED004A7D4990EDCA
:102CD000094AC1ED004A83ED004A7B4990ED0A4A5A
:102CE00081ED005A82ED014A784990ED0B4AC1ED21
:102CF000005A83ED014A764990ED0C4A81ED006A55
:102D000082ED024A734990ED0D4AC1ED006A83EDF0
:102D1000024A714990ED0E4AD0F818E082ED034A5C
:102D2000C1F800E090ED0F4A6C4983ED034AC1F809
:102D300000C0D0F840C0416CC2F810C01961D0F892
:102D400048C0C16CC2F814C05961D0F850C0416D80
:102D5000C2F818C09961D0F858C0C16DC2F81CC043
:102D6000D961D0F860C0416EC2F820C01962D0F8B5
:102D700068C0C16EC2F824C05962D0F870C0416FFB
:102D8000C2F828C09962D0F878C0C16FC2F82CC0D0
:102D9000D962D0F880101163D0ED267AD0F888106F
:102DA000D0ED276A5163B1EE047AD0F89010D0F8D4
:102DB00084C09163FCEEE77A494AD0F89410C3F8D6
:102DC00030C0F4EE476AD0F88CC0C3F834C0F1EEDE
:102DD00010FA9963C2ED007A69D190ED287AF7EE86
:102DE000007AB4EE677AF1EE10FA60D19FED3D7A89
:102DF000D0ED296AF4EE476AF1EE10FA57D190ED62
:102E00002A7AB5EE407AF1EE10FA50D190ED2B7A95
:102E1000B5EE407AF1EE10FA49D190ED2C7AB5EE8C
:102E2000407AF1EE10FA42D190ED2D7AB5EE407A6B
:102E3000F1EE10FA3BD190ED2E7AB4EE677AF1EE16
:102E400010FA34D1D0ED2F6AB0EE007AF4EE476A72
:102E5000F1EE10FA2BD190ED307AB4EE677AF1EE04
:102E600010FA24D1DFED207A90ED317AB4EE677A52
:102E7000F1EE10FA1BD1D0ED327AF5EE407AF1EE98
:102E800010FA14D1DFED197A90ED337AB4EE677A47
:102E9000F1EE10FA0BD190ED347AF0EE007AB4EE48
:102EA000677AF1EE10FA02D1114B187802E0104B5C
:102EB0007D2018705DF804FB3C0000201400002009
:102EC000780000202400002020000020380000208E
:102ED00034000020300000202C00002028000020BA
:102EE0001C0000200000C04400E0404500E0C04459
:102EF0001000002050B1B0FA80F18840C91CC1F523
:102F00008461090501EBD0214005704701467047F7
:102F1000F0B540F2FF7581EA030C0CF0004C15EAA5
:102F200011541DBF15EA1357AC42AF42E5E0BC4156
:102F3000C1F31301C3F31303801A994143F48013BF
:102F400004D2641E0018494180185941C90241EA5F
:102F50005051B1FBF3F603FB1611A2FB0675D7EB3C
:102F6000C020A94102D2761E80185941C90241EA07
:102F70005051B1FBF3FE03FB1E11A2FB0E75D7EB04
:102F8000C020A94103D2AEF1010E80185941890237
:102F900041EA9051760546EA8E2EB1FBF3F603FB2B
:102FA0001611A2FB0675D7EB8020A94102D2761E2E
:102FB00080185941C90241EA50514EEA060EB1FB50
:102FC000F3F603FB1611A2FB0675D7EBC020A9414F
:102FD00002D2761E80185941C90241EA5051B1FB14
:102FE000F3F703FB1711A2FB0735D3EBC020A94170
:102FF00067F100070CBF004247F0010766F3D527D1
:103000004FEA1E31B80814F5806412DDBD0775F172
:10301000004250EB0E5051EB045111F5801F5CBF84
:1030200041EA0C01F0BD4CF07F6141F0E04100202D
:10303000F0BDBD076D0840EA0E5041F48011D4F197
:103040000104B4F120060ADAC4F120060200E040CF
:1030500001FA06F3E1401843B24015430EE0342C68
:1030600013DCC6F1200445EA40056D0820FA06F29B
:10307000154321FA06F0A1400D43002175F10042ED
:1030800050F1000051EB0C01F0BD00205FEA0C0193
:10309000F0BDCFB992185B41B3FA83F704BFB2FA1F
:1030A00082F6BF190B3FB7F120062FBF02FA06F3D5
:1030B000BB40C7F1200622FA06F638BF3343BA40B8
:1030C0001CB1E419641E33E77F4231F00041B1FACC
:1030D00081F404BFB0FA80F6A4190B3CB4F12006C9
:1030E0002FBF00FA06F1A140C4F1200620FA06F62F
:1030F00038BF3143A0403C1B1AE7AC421ABF05EA77
:103100001357AF4212E050EA41061CBF52EA430691
:10311000BFE750EA4107304661461CBF41EA05510E
:10312000F0BD52EA430C08BFC143F0BD00204FF48C
:10313000001616EB410F98BF16EB430F08BF16EBB6
:10314000410F24BFC14305E016EB430F0CBF61469E
:103150004CEA0551F0BD000001F000428B1AA3F1CA
:103160006051B1F5801F0ADBB1F17F6F1FD242EAD7
:10317000C102C10071F1004142EB507070470B1564
:10318000C3F10903212B10D2890241EA9051800238
:103190000128494141F0004121FA03F0C3F1200325
:1031A000994071F1004150417047100070476FF035
:1031B000000013EB103F5CBF000E42EAC0507047A6
:1031C00070B52DED028B7A4B1D78012D05D0794B12
:1031D0007B201870BDEC028B70BD01F097FA764B26
:1031E0001C68661C022E1E6049D8023407EE904A05
:1031F000724B734A7349F8EE675A03F13C0000249E
:10320000B2EC016AF3EC017AB1EC017A66EE066A7F
:1032100067EEA77A37EE465A77EEA67A27EE077A58
:10322000C5EE256A37EE677A87EE255A36EE867A3E
:1032300077EE857A67EE076A77EEE67AF5EEC07A82
:10324000F1EE10FA0EDA984202ED017A43F8044CDE
:10325000D6D1092E8CBF7F207E20564B1870BDEC36
:10326000028B70BDF1EEE76A984202ED017A43ED00
:10327000016AC5D1092E8CBF7F207E20EDE79FED2E
:10328000527A50484E49DFED514A4C4AF0EE476AB7
:103290002B461EE036EE676AB5EEC06AF1EE10FA14
:1032A00048BFB1EE466AC6EE257A06EE103A37EE12
:1032B000E65AF8EEC65AF4EE477A85EE256A0133EF
:1032C000F1EE10FAC8BFB0EE677A102B76EE866A80
:1032D0000DD0F2EC015AB0EC016AF1EC017AF5EE96
:1032E000405AF1EE10FAD5D1F0EE647ADDE7384AB3
:1032F00038491368D1ED005A01331360364A07EE9E
:10330000903A92ED006AB8EE675A76EEE56A37EECB
:10331000467AC6EE857A87EE058A77EEA57A38EE8C
:10332000068AC1ED007A82ED008A002B3FF45DAF82
:103330002A4BD3ED008A67EEA87A17EE900A01F0C7
:103340000DFA9FED171B41EC100B01F02BFA51EC1D
:10335000100BFFF701FFF1EE040A00EE100A01F076
:1033600043FA1F4B68EE287A83ED000A17EE900AA5
:1033700001F0F4F99FED0C1B41EC100B01F012FA77
:1033800051EC100BFFF7E8FEDFED100A00EE100A1B
:1033900001F02AFA134B83ED000A26E7AFF3008011
:1033A000000000000000F03F0000000000000840A6
:1033B00018000020100000201400002078000020D9
:1033C0003C000020AC1A0020000000000000C842B1
:1033D0001C000020240000202000002030000020DD
:1033E000380000203400002010B52DED048B7C4AFD
:1033F0000C461378FF212170A3F17D01012940F2D1
:10340000BE80802B00F0BB80764B1B68092B40F2FE
:10341000BA8001F07BF9744B186801F09FF96CA336
:10342000D3E9002301F0F4F9FFF796FEDFED6F7AA0
:1034300009EE100AB4EEE79AF1EE10FA80F2A980D4
:10344000B5EEC09AF1EE10FA694B40F3B780DFEDAC
:10345000698AC3ED007AB0EE679A9FED677A674894
:103460006749684A9FED685AB0EE478A01231EE01B
:1034700076EEE76AF5EEC06AF1EE10FA48BFF1EEBB
:10348000666AC6EE867A06EE903A77EEC85AB8EECD
:10349000E66AB4EE677AC5EE866A0133F1EE10FA99
:1034A00048BFB0EE677A102B38EE268A0DD0B2EC0A
:1034B000016AF0EC016AF1EC017AB5EE406AF1EED6
:1034C00010FAD5D1F0EE457ADDE7504B27EE097AB8
:1034D000D3ED006A4E4BC7EE267AF7EE009A77EEF0
:1034E000E97A93ED007A77EEA77A28EE098A67EEFB
:1034F000877A17EE900A01F031F99FED371B41EC06
:10350000100B01F04FF951EC100BFFF725FEF0EE18
:10351000000A00EE100A01F067F93E4B93ED007AC5
:103520003D4BC8EE077A93ED007A77EEE97A77EEB5
:10353000A77A67EE877A77EE807A67EEA87A17EE39
:10354000900A01F00BF99FED241B41EC100B01F0E8
:1035500029F951EC100BFFF7FFFDF2EE040A00EE23
:10356000100A01F041F9F2EE047A37EEC00A0023A6
:1035700020EE270AFCEEC07A17EE902A2270BDECEE
:10358000048B184610BD7E231370BDEC048B1846C7
:1035900010BDDFED1D7A164BB4EEE79AF1EE10FA8E
:1035A00006D9DFED1E8AC3ED007AB0EE679A54E7C4
:1035B000F7EE088A69EE288A18604EE793ED009AC4
:1035C000F7EE088A69EE288A47E700BFAFF300806C
:1035D000B81E85EB51B8EE3F00000000000000006F
:1035E00010000020140000200C0000200AD7233C0B
:1035F000301B00208FC2753C00000000AC1A002078
:103600003C000020780000200000C8423400002068
:1036100028000020380000202C0000200000164365
:1036200062F30F2262F31F42401810F0030308D028
:10363000C91A1FD3DB0748BF00F8012D28BF20F8A7
:10364000022D130030B414461546103928BF20E966
:103650003C00FAD8490728BF20E90C0048BF40F8D1
:10366000042D890028BF20F8022D48BF00F8012D45
:1036700030BC7047C91818BF00F8012DCB0728BF10
:1036800000F8012D704700002DE9FC410400002CDA
:1036900001D10120FFE12078C0075ED5DFF82407C3
:1036A000006810F00C00DFF82C17096811F0030116
:1036B0000C2801D1032901D0082809D1DFF8FC0624
:1036C0000068800349D56068002846D10120E2E106
:1036D0006068B0F5803F06D1DFF8E006016851F47C
:1036E0008031016018E06068B0F5A02F0AD1DFF8E2
:1036F000CC06016851F480210160016851F48031E9
:10370000016009E0DFF8B406016831F4803101603E
:10371000016831F480210160606800280ED0FDF757
:103720005FFD0500DFF894060068800315D4FDF7FF
:1037300057FD401B6528F5D30320ACE1FDF750FD94
:103740000500DFF878060068800306D5FDF748FD20
:10375000401B6528F5D303209DE1207880074AD5DA
:10376000DFF86006006810F00C00DFF868160968E2
:1037700011F003010C2801D1022901D004281BD12A
:10378000DFF838060068400504D5E068002801D15C
:10379000012080E1DFF82806016831F0FE4122694E
:1037A00051EA02610160DFF82806006800F074FF4A
:1037B000002820D001206EE1E068002834D0DFF836
:1037C000FC65306850F480703060FDF709FD05003D
:1037D0003068400506D4FDF703FD401B0328F7D3EE
:1037E000032058E1DFF8D805016831F0FE41226975
:1037F00051EA02610160207800073BD5606900282A
:1038000025D0DFF8D465306850F001003060FDF756
:10381000E7FC0500306880072CD4FDF7E1FC401B75
:103820000328F7D3032036E1DFF89065306830F4E1
:1038300080703060FDF7D4FC050030684005DAD5B3
:10384000FDF7CEFC401B0328F7D3032023E1DFF86C
:1038500088653068400840003060FDF7C1FC050015
:103860003068800706D5FDF7BBFC401B0328F7D363
:10387000032010E12078400774D50026DFF85C555E
:103880002868C00009D4286850F080502860286853
:1038900010F08050009000980126DFF844753868D9
:1038A000C00511D4386850F480703860FDF798FC7A
:1038B00080463868C00507D4FDF792FCB0EB0800DD
:1038C0000328F6D30320E6E0A068012806D1DFF83C
:1038D0001405016851F00101016017E0A068052896
:1038E0000AD1DFF80005016851F0040101600168A8
:1038F00051F00101016009E0DFF8E80401684908BE
:1039000049000160016831F004010160A0680028ED
:1039100010D0FDF765FC0700DFF8C80400688007D9
:1039200019D4FDF75DFCC01B41F289318842F3D305
:103930000320B0E0FDF754FC0700DFF8A80400689E
:10394000800708D5FDF74CFCC01B41F28931884245
:10395000F3D303209FE0F6B2012E03D1286830F0A4
:10396000805028602078800628D5A069002812D0D1
:10397000DFF87464306850F001003060FDF730FC0F
:1039800005003068800719D4FDF72AFC401B032886
:10399000F7D303207FE0DFF8506430684008400030
:1039A0003060FDF71DFC05003068800706D5FDF787
:1039B00017FC401B0328F7D303206CE0E0690028C4
:1039C00068D0DFF80004006810F00C000C2864D008
:1039D000E069022844D1DFF8E453286830F08070B1
:1039E0002860FDF7FDFB06002868800106D5FDF77D
:1039F000F7FB801B0328F7D303204CE0DFF8D41338
:103A00000A68DFF8E8030240206A0243606A401E49
:103A100052EA0012A06A52EA0022206B4008401EBF
:103A200052EA4052606B4008401E52EA4062E06A2F
:103A300052EAC0620A60286850F080702860086806
:103A400050F080700860FDF7CBFB0400286880010F
:103A500020D4FDF7C5FB001B0328F7D303201AE091
:103A6000DFF85853286830F080702860FDF7B8FB05
:103A700004002868800106D5FDF7B2FB001B03286F
:103A8000F7D3032007E0DFF84C130A68DFF8600380
:103A900002400A600020BDE8F681E069012801D1FA
:103AA0000120F8E7DFF82C03006810F00301226A18
:103AB000914222D110F0F001626A521EB1EB021F56
:103AC0001BD110F4FE41A26AB1EB022F15D110F008
:103AD0007841E26AB1EBC26F0FD110F4C001226BE2
:103AE0005208521EB1EB425F07D110F0C060616B0B
:103AF0004908491EB0EB416FCCD00120CBE72DE93E
:103B0000F84304000D000027002C01D10120DDE066
:103B1000DFF8E062306810F00F00A8420BD2306886
:103B20000009000128433060306810F00F00A842FF
:103B300001D00120CAE02078C00760D56068032862
:103B40001FD1DFF878020068800101D40120BDE0B8
:103B500000F012F9DFF8A012884231D3DFF86412C6
:103B6000086810F0F00F05D02078800728D5A068ED
:103B7000002825D108200A6860F307120A60802710
:103B80001EE06068022806D1DFF83002006880037A
:103B900008D401209AE0DFF824020068400501D42F
:103BA000012093E000F094F8DFF84C12884207D32C
:103BB000DFF810020821026861F307120260802713
:103BC000DFF80082D8F80010890889006068014396
:103BD000C8F80010FDF704FB8146D8F8000010F08B
:103BE0000C006168B0EB810F09D0FDF7F9FAB0EB7A
:103BF000090041F289318842EFD3032066E0207842
:103C000080071BD52078400705D5DFF8B80101688B
:103C100051F4E06101602078000706D5DFF8A401C7
:103C20000721026861F30D220260DFF898110A682B
:103C300032F0F002A06802430A6006E0802F04D14F
:103C40006048016831F0F0010160306810F00F0049
:103C5000854215D230680009000128433060FDF725
:103C6000BFFA0700306810F00F00A84208D0FDF737
:103C7000B7FAC01B41F289318842F3D3032025E013
:103C80002078400706D54F490A6832F4E062E068C0
:103C900002430A602078000707D54A48016831F4DA
:103CA0006051226951EAC201016000F011F85349E4
:103CB000444A1268C2F30312895C11F01F01C84024
:103CC000424908604248006800F0E6FCBDE8F28323
:103CD0003C48016811F00C01042901D13A482DE05B
:103CE000016811F00C01082901D1454826E000685F
:103CF00010F00C000C2820D1364A106810F0030098
:103D00001168C1F30311491C032807D13C48B0FBDB
:103D1000F1F11068C0F30620414306E02A48B0FBE9
:103D2000F1F11068C0F3062041431068C0F3416010
:103D3000401C4000B1FBF0F000E000207047234839
:103D40000068704780B5FFF7FAFF2E491D4A1268D8
:103D5000C2F30222895C11F01F01C84002BD80B588
:103D6000FFF7EDFF2749174A1268C2F3C222895CA8
:103D700011F01F01C84002BD164A116811F003017D
:103D80001068C0F30310401C032907D11C49B1FB84
:103D9000F0F11068C0F30620414306E00A49B1FB88
:103DA000F0F11068C0F3062041431068C0F3416091
:103DB000401C4000B1FBF0F07047000000100240D2
:103DC00004100240081002400024F4000800002003
:103DD000000000200C1002409410024058100240D5
:103DE0000070004090100240981002400C809F012B
:103DF000FCFFEEFE0020024001B4C404304E000877
:103E000000366E01704E000870B490F83C20012A14
:103E100001D1022041E0012280F83C20022280F8FA
:103E20003D200268546802689368DFF88050026899
:103E3000AA4203D002681B4EB24203D134F470048C
:103E40004A681443DFF8682014400A681443026883
:103E500054600268AA4213D00268B2F1804F0FD0BA
:103E60000268144CA2420BD002680D4CA24207D04B
:103E700002680C4CA24203D002680B4CA24205D14E
:103E800033F0800389680B4301688B60012180F85F
:103E90003D10002180F83C10002070BC70470000ED
:103EA000000800400034014000400140002C014067
:103EB0008FFFFFFD0004004010B50400002C01D16D
:103EC000012037E0A0690028FFD1D4F8880000283D
:103ED00005D1002084F884002000FCF798FF2420FE
:103EE000C4F8880020680068400840002168086025
:103EF000A06A002802D0200000F0B8F9200000F0ED
:103F00001AF8012801D1012014E02068406830F43B
:103F10009040216848602068806830F02A0021685D
:103F200088602068006850F0010021680860200067
:103F300000F009FA10BD70B504000025DFF8D415B3
:103F400020688842FFD0A26820690243606902436A
:103F5000E069024320680368DFF8BC0503401A43A8
:103F6000206802602068426832F44052E0680243F0
:103F700020684260A2692068884201D0206A02431A
:103F800020688368DFF8940503401A432068826044
:103F90002068C26A12091201606A02432068C26284
:103FA0002068DFF87C25904216D1DFF8780500689C
:103FB00010F00300002805D0022805D006D30328FE
:103FC00006D007E001207DE002207BE0042079E0BC
:103FD000082077E0102075E02068DFF84C2590423B
:103FE00017D1DFF84005006810F00C00002806D05B
:103FF000042808D0082804D00C2806D007E00020A8
:1040000060E002205EE004205CE008205AE010201E
:1040100058E02068DFF81425904217D1DFF8040536
:10402000006810F03000002806D0102808D02028A2
:1040300004D0302806D007E0002043E0022041E011
:1040400004203FE008203DE010203BE02068DFF83E
:10405000E024904217D1DFF8CC04006810F0C000D3
:10406000002806D0402808D0802804D0C02806D0D8
:1040700007E0002026E0022024E0042022E00820BF
:1040800020E010201EE0206888421AD1DFF8940456
:10409000006810F44060002809D0B0F5806F0AD0A5
:1040A000B0F5006F05D0B0F5406F06D007E00020F6
:1040B00008E0022006E0042004E0082002E01020CE
:1040C00000E0102022688A424AD1C0B2002806D0FF
:1040D000022807D0042808D0082809D00BE0FFF7F1
:1040E00031FE0AE0DFF84C0407E0FFF7F1FD04E0E1
:1040F0004FF4004001E000200125002800F0A880D6
:10410000DFF83434616A33F81110B0FBF1F26668FD
:1041100003214E43B24203D361680903914201D2A5
:10412000012595E0616A33F81110B0FBF1F200232C
:104130001B0243EA12631202606840080021101853
:1041400059416268002300F039FCB0F54071DFF896
:10415000EC23914202D22168C86079E0012577E022
:10416000E169B1F5004F3CD1C0B2002808D0012868
:1041700009D002280AD004280BD008280CD00EE061
:10418000FFF7E0FD0DE0FFF7EAFD0AE0DFF8A4032A
:1041900007E0FFF79DFD04E04FF4004001E0002040
:1041A0000125002854D0DFF89013626A31F812100C
:1041B000B0FBF1F06168490811EB40016068B1FBA8
:1041C000F0F04FF6F071B0F110028A4207D20140D0
:1041D000C0F34200014389B22068C16038E0012584
:1041E00036E0C0B2002808D0012809D002280AD041
:1041F00004280BD008280CD00EE0FFF7A3FD0DE03B
:10420000FFF7ADFD0AE0DFF82C0307E0FFF760FDE4
:1042100004E04FF4004001E000200125002817D001
:10422000DFF81413626A31F81210B0FBF1F0616824
:1042300010EB51006168B0FBF1F0B0F110014FF6E6
:10424000F072914203D280B22168C86000E001257B
:104250000120A4F86A000120A4F86800002060672B
:104260000020A0672800C0B270BD000090F82810A0
:10427000090707D501684A6832F40042816B0A4396
:1042800001684A6090F82810C90707D501684A6894
:1042900032F40032C16A0A4301684A6090F828107B
:1042A000890707D501684A6832F48032016B0A43F6
:1042B00001684A6090F82810490707D501684A68E4
:1042C00032F48022416B0A4301684A6090F828105A
:1042D000C90607D501688A6832F48052C16B0A4367
:1042E00001688A6090F82810890607D501688A68F5
:1042F00032F40052016C0A4301688A6090F8281079
:10430000490613D501684A6832F48012416C0A43A9
:1043100001684A60416CB1F5801F07D101684A68A5
:1043200032F4C002816C0A4301684A6090F8281098
:10433000090607D501684A6832F40022C16C0A43B5
:1043400000684260704738B504000020C4F890004F
:10435000FCF746FF05002068006800071DD57FF0C8
:104360007E4000902B0000225FF40011200000F03E
:1043700052F8002811D0206850E8001F31F0800169
:10438000226842E800100028F5D12020C4F88800F7
:10439000002084F8840003203CE020680068400787
:1043A0002AD57FF07E4000902B0000225FF4800130
:1043B000200000F030F800281ED0206850E8001FD0
:1043C00031F49071226842E800100028F5D120688D
:1043D000083050E8001F49084900206810F1080221
:1043E00042E800100028F2D12020C4F88C00002000
:1043F00084F8840003200DE02020C4F888002020E9
:10440000C4F88C000020E06600202067002084F8BB
:104410008400002032BD2DE9F04105000E009046D9
:104420001F00069C2868C0693040B04201D10120BD
:1044300000E000204146C9B2884239D114F1010F91
:10444000F0D0FCF7CDFEC01B844201D3002C01D17B
:1044500003202EE0286800684007E3D5802EE1D0D5
:10446000402EDFD02868C069000704D42868C069DE
:104470000005D7D50DE0082029680862280000F063
:104480001AF80820C5F89000002085F88400012063
:104490000FE04FF4006029680862280000F00BF874
:1044A0002020C5F89000002085F88400032000E05B
:1044B0000020BDE8F081016851E8002F32F49072CD
:1044C000036843E800210029F5D10168083151E86B
:1044D000002FDFF86C100A40016811F1080343E86F
:1044E00000210029F1D1C16E012909D1016851E8EB
:1044F000002F32F01002036843E800210029F5D1B3
:104500002021C0F88C100021C1660021416770474E
:104510000000000000800040F369FFCFFFF4FF11AE
:10452000003801408810024000440040004800402C
:10453000004C00400024F400184E000800FD0F005D
:10454000FEFFFFEF90F88410012901D102201AE04C
:10455000012180F884102421C0F8881001680968BE
:10456000026812685208520003681A6031F0005164
:1045700000224266026811602021C0F888100021E4
:1045800080F884100020704738B5040094F8840047
:10459000012801D1022020E0012084F88400242099
:1045A000C4F888002068056820680068400840005A
:1045B000226810602068806820F060400143206815
:1045C0008160200000F034F8206805602020C4F8E5
:1045D0008800002084F88400002032BD38B5040033
:1045E00094F88400012801D1022020E0012084F801
:1045F00084002420C4F888002068056820680068CA
:1046000040084000226810602068806830F06060D8
:10461000014320688160200000F00AF820680560EE
:104620002020C4F88800002084F88400002032BDD7
:10463000F0B4416E002906D10121A0F86A100121D1
:10464000A0F8681021E00822082301688C68640E35
:1046500014F0070401688D686D0F0D4E0D4FDBB22D
:104660002900C9B2795C4B43EDB2715D93FBF1F166
:10467000A0F86A10D2B22100C9B2795C4A43E4B210
:10468000315D92FBF1F1A0F86810F0BC70470000BA
:10469000684E0008604E000838B504000025124935
:1046A000086800281BD04FF47A700968B0FBF1F05D
:1046B0000E490968B1FBF0F0FDF720FC00280CD191
:1046C000102C08D2002221005FF0FF30FDF701FC22
:1046D0000748046004E0012502E0012500E001250F
:1046E0002800C0B232BD00BF040000200800002036
:1046F0000000002070477047704770477047704750
:10470000704770477047704770470000114900B507
:1047100040F2F25C01F13C0EF1EC016ADFED0E7A41
:104720000246002367EEA67AB2EC017A013337EE37
:10473000877A07EE903AF8EEE77A6345C7EE276A84
:1047400041ED016AEED18E4500F10400E4D15DF83F
:1047500004FB00BFAC1A002000000000C0F3C751EA
:1047600081B1FF2906D0C110400721F0E04101F1DD
:104770006051704741020CBF40F4E0016FF000410E
:104780000020704700F0004100020AD0B0FA80FC1F
:1047900000FA0CF001F16051A1EB0C5101EBD021BA
:1047A0004005704751EC100B00B553EC112B00F095
:1047B00003F841EC100B00BD4FF4001C1CEB410F43
:1047C0000ED81CEB430F0DD851EA030C04D58B42D5
:1047D00008BF824204D370478B4208BF824201D98E
:1047E000100019007047000010EE100AF5EE400AA4
:1047F000F1EE10FA0BD618B904BFB0EE600A06E06D
:10480000F4EE400AF1EE10FAB8BFB0EE600A70475D
:1048100030B540F2FF7C1CEA11541DBF1CEA135551
:10482000644565453FE0641981EA030C6FF35F530B
:104830000CF0004C43F48013C90241F0004141EAFE
:10484000505EC5021100A5FB020200284FF00000D7
:10485000EEFB01204FF00001E3FB052118BF42F001
:104860000102401800214941E3FB0E01A4F58064D8
:104870000D0302D292184041494154F1010470DD08
:10488000450872F1004250F1000051EB0451A1F5CE
:10489000801102D441EA0C0130BD40F2FF7E4CEAA7
:1048A0000E51002030BD0CEA1355644518BF654514
:1048B00081EA030C0CF0004C41D050EA410E1CBFC1
:1048C00052EA430E02E06146002030BD24422C44EF
:1048D0001BD15FEA050EF6D0090302BF0146002096
:1048E000AEF1140EB1FA81F5AEEB050401FA05FE46
:1048F0000C35C5F1200100FA05F5C8404EEA000E5E
:104900006FF35F5343F480139CE733F00043B3FA33
:1049100083F504BFB2FA82FE75440B3D641BB5F10A
:10492000200E2FBF02FA0EF3AB40C5F1200E22FA83
:104930000EFE38BF43EA0E03AA40641C7CE750EA2F
:10494000410E14BF52EA430E6FF000014FF4001500
:1049500015EB430F8EBF194615EB410F9DE7B4D8F9
:1049600030BDD4F10104B4F120050FDAC4F1200503
:10497000520828BF42F0010210FA05FE01FA05F5BF
:104980007244E2BFE0402843E1400FE0352C9ADC5E
:10499000C5F1200452EA400220FA05F218BF42F0A5
:1049A000010231FA05F0A1400A43002172F10042F0
:1049B00050F1000051EB0C0130BD0000BBBBE1B178
:1049C000B2F5803F80F07E80022A1ED98C46B1FB72
:1049D000F2F102FB11C31B0443EA1043B3FBF2FCE8
:1049E00002FB1C3380B240EA0343B3FBF2F002FB4C
:1049F000103240EA0C4000237047022A05D9844651
:104A0000B0FBF2F002FB10C270474AB105D100F0D2
:104A1000010249085FEA3000704700220023704716
:104A200000F0E4B80B000200002100207047904223
:104A300071EB030CF6D3B3F5803F2FD2F0B5B3FA88
:104A400083F7B1FA81F4A7F10F0E3D1B5340CEF16D
:104A5000200602FA0EF2F3415340B5F10F0746D893
:104A60000F3C2C444140C4F12006A040F14141409C
:104A7000B1FBF3F603FB1611A2FB0645001BA9418F
:104A800002D2761E8018594180EA010221FA0EF303
:104A900062FA0EF200215A403046F0BD30B4B1FB4C
:104AA000F3FC03FB1C11A2FB0C45001BA94103D224
:104AB000ACF1010C8018594130BC02460B466046EF
:104AC00000217047B2F1807F65D3F0B5B2FA82F76A
:104AD000B1FA81F4C7F10F063D1B22FA06F307F184
:104AE000110EF24120355A40B5F10F07B8D94140B7
:104AF000C4F12006A040F1414140B1FBF3FC03FBAF
:104B00001C11A2FB0C45001BA94103D2BCF1010CF6
:104B1000801859410F2F12D30F3FC90341EA50416A
:104B2000B1FBF3F603FB1611A2FB0645D4EBC03034
:104B3000A94102D2761E8018594146EACC3C07B3FF
:104B40004140C7F12006B840F1414140B1FBF3F6C6
:104B500003FB1611A2FB0645001BA94102D2761EDB
:104B60008018594180EA010221FA0EF3C7F12004AE
:104B700062FA0EF20CFA07F05A402CFA04F13043B4
:104B8000F0BD80EA010221FA0EF3002162FA0EF272
:104B900060465A40F0BD8C46B1FBF2F102FB11C3F6
:104BA0001B0243EA1063B3FBF2FC02FB1C331B0243
:104BB0004CEA002043EA1063B3FBF2FC02FB1C3317
:104BC0001B024CEA002043EA1063B3FBF2FC02FB39
:104BD0001C331B024CEA002043EA1063B3FBF2FCD7
:104BE00002FB1C324CEA0020002370477047000093
:104BF00000004842DBFD743E0D8E8A3E0000803F7F
:104C00000000404021B0B23FC1CA013FDD24663FF1
:104C1000FEBD8E3ECBB2213DFCBB8E3E1FB0213D82
:104C2000DEBE8E3E11B5213D7FC88E3E8BC0213D3C
:104C300049D28E3EC6CF213DDADC8E3EFAE0213DE0
:104C40006EE48E3E84EE213D6AE98E3EFAF9213D06
:104C500042ED8E3E5F02223D63F18E3E6508223DAD
:104C6000BEF28E3E6807223DF6F28E3EB706223D2A
:104C700003ED8E3E26FC213D24E48E3E8AEC213D50
:104C80009FDB8E3E19DF213D000040420000A04026
:104C90000000803F0000C044000000000000000051
:104CA00000000000000000000000803F0000004005
:104CB0000000803F00E040450000000000E0C044EC
:104CC0000000004030B4002512E050F8042BD30758
:104CD00044BF4A44521E091F042942F8045BFAD219
:104CE00013468C0744BF15809B1CC90748BF1D7025
:104CF00050F8041B0029E8D130BC7047FEE7FEE7FE
:104D0000FEE7FEE7FEE770477047704780B500F0AA
:104D10000FF801BD80B50448FCF78BF901BD80B5E3
:104D20000248FDF7FBF901BDB4190020601A00200C
:104D300003490A680348006882180A60704700BF88
:104D40002C1B00200400002010B5074979441831BD
:104D5000064C7C44163404E00A68081D1144884758
:104D60000146A142F8D110BD2C000000480000000F
:104D70004EF68851CEF20001086840F470000860D9
:104D8000BFF34F8FBFF36F8F4FF00170E1EE100A4A
:104D90007047000031FFFFFF841A0000B4000020BC
:104DA00000000000A3D1FFFFE00100002800000088
:104DB0000000002000F00DF8002801D0FFF7C4FF2C
:104DC000AFF300800020AFF30080FCF741FA00F061
:104DD00002F80120704700F001B80000074638468D
:104DE00000F002F8FBE7000080B5AFF30080024A54
:104DF00011001820ABBEFBE7260002000548014663
:104E000003B4684680F30988AFF30080FFF7B0FF72
:104E1000FFF7D0FFA5EDF5FE01000200040006003B
:104E200008000A000C001000200040008000000173
:104E3000000000000000000001020304060708094A
:104E40000148804701480047514E0008FD4D0008C9
:104E50000248016851F470010160704788ED00E07C
:104E60000101010307010000080402040801010117
:104E70000000000001020304FFF7FEBFFFF7FEBFC2
:104E8000FFF7FEBFFFF7FEBFFFF7FEBFFFF7FEBF56
:104E9000FFF7FEBFFFF7FEBFFFF7FEBFFFF7FEBF46
:104EA000FFF7FEBFFFF7FEBFFFF7FEBFFFF7FEBF36
:104EB000FFF7FEBFFFF7FEBFFFF7FEBFFFF7FEBF26
:104EC000FFF7FEBFFFF7FEBFFFF7FEBFFFF7FEBF16
:104ED000FFF7FEBFFFF7FEBFFFF7FEBFFFF7FEBF06
:104EE000FFF7FEBFFFF7FEBFFFF7FEBFFFF7FEBFF6
:104EF000FFF7FEBFFFF7FEBFFFF7FEBFFFF7FEBFE6
:104F0000FFF7FEBFFFF7FEBFFFF7FEBFFFF7FEBFD5
:104F1000FFF7FEBFFFF7FEBFFFF7FEBFFFF7FEBFC5
:104F2000FFF7FEBFFFF7FEBFFFF7FEBFFFF7FEBFB5
:104F3000FFF7FEBFFFF7FEBFFFF7FEBFFFF7FEBFA5
:104F4000FFF7FEBFFFF7FEBFFFF7FEBFFFF7FEBF95
:104F5000FFF7FEBFFFF7FEBFFFF7FEBFFFF7FEBF85
:104F6000FFF7FEBFFFF7FEBFFFF7FEBFFFF7FEBF75
:104F7000FFF7FEBFFFF7FEBFFFF7FEBFFFF7FEBF65
:104F8000FFF7FEBFFFF7FEBF0010FD000001FC00B1
:0C4F90000124F4FD0001803F8100DB00E3
:0400000508004DFDA5
:00000001FF
