:020000040800F2
:1000000008540020AD4F0008214E0008234E000880
:10001000254E0008274E0008294E00080000000069
:100020000000000000000000000000002B4E00084F
:100030002D4E0008000000002F4E0008314E000831
:10004000E54F0008E94F0008ED4F0008F14F0008A8
:10005000F54F0008F94F0008FD4F00080150000857
:1000600005500008095000080D500008394E0008DE
:10007000434E0008115000081550000819500008A0
:100080001D50000800000000215000082550000805
:10009000295000082D500008315000083550000844
:1000A000395000083D5000084150000845500008F4
:1000B000495000084D5000085150000855500008A4
:1000C000595000085D500008615000086550000854
:1000D000695000086D500008715000087550000804
:1000E000795000087D5000088150000885500008B4
:1000F000895000088D500008915000080000000051
:100100000000000095500008000000009950000811
:100110009D50000800000000A15000084D4E00084E
:10012000A5500008A9500008AD500008B1500008C3
:10013000B55000080000000000000000B9500008A1
:10014000BD500008C1500008000000000000000081
:10015000000000000000000000000000000000009F
:10016000000000000000000000000000C550000872
:10017000C95000080000000000000000000000005E
:1001800000000000CD50000800000000000000004A
:10019000000000000000000000000000000000005F
:1001A0000000000000000000D1500008D5500008F9
:1001B000D9500008DD500008E150000800000000A0
:1001C00000000000E55000080000000000000000F2
:1001D000E9500008ED500008826832F47C120A43AE
:1001E00082607047826832F0E0720A438260704732
:1001F000806810F0E070704770B410F1600515EB86
:1002000081052E68DFF8F843264012F0F8442643B3
:100210001E4356F000462E6070BC7047020012F17B
:10022000600010EB8100006810F0F840704710B4D7
:1002300010F1600313EB81031C6824F000441443A5
:100240001C6010BC704710B410F1600313EB810305
:100250001C6834F0807414431C6010BC704710B4E8
:1002600010F1600313EB81031C6834F00074144335
:100270001C6010BC7047426922F000420A43426190
:100280007047C06810F4406F01D1012000E00020E9
:10029000704770B410F130040B009B0913F00C038D
:1002A0001C1925681F2611F01F039E40B543C2F399
:1002B000846611F01F039E403543256070BC704773
:1002C00070B410F114030C00E40D14F00404E318EE
:1002D0001C6807250E00360D16F01F06B540AC430E
:1002E0000D002D0D15F01F0512FA05F52C431C60AD
:1002F00070BC704730B4D0F8B0404B035B0B9C43EC
:10030000DFF8043412F01805EB400B405B035B0B85
:100310001C43C0F8B04030BC7047806810F01F002C
:1003200070478268DFF8E4130A4082607047806893
:10033000400F10F0010070478268DFF8D4130A40C4
:1003400052F08052826070478068000F10F0010008
:1003500070478268DFF8B8130A4052F001028260E9
:1003600070478268DFF8A8130A4052F002028260E8
:100370007047806810F0010070478068400810F0F6
:10038000010070478268DFF888130A4052F00402C7
:10039000826070478268DFF878130A4052F01002DA
:1003A000826070478068800810F0010070478268A2
:1003B000DFF85C130A4052F02002826070478068C8
:1003C000C00810F0010070472DE9F84304005FF009
:1003D000000800200090002C01D101200EE160698E
:1003E000002802D094F824000128E06D002807D1ED
:1003F000200000F007FE00202066002084F858004E
:100400002068FFF794FF002802D02068FFF789FFDB
:100410002068FFF799FF002813D12068FFF78CFFB1
:10042000DFF8F0020068DFF8F012B0FBF1F0401CDA
:10043000400000900098002803D00098401E0090D3
:10044000F8E72068FFF780FF002809D1E06D50F041
:100450001000E065206E50F001002066012080460B
:100460002068FFF79FFF0500E06DC00600F1BE8029
:10047000002D40F0BB80E06D30F4807050F0020041
:10048000E0652068FFF775FF002810D15FF0A040FD
:10049000FFF76FFF0600DFF88402FFF76AFF0643ED
:1004A000002E04D16168DFF87802FFF795FE607FC7
:1004B000E16B51EA4031E0680143A068014394F8E0
:1004C000240051EA0041894694F82400012803D110
:1004D000A06A401E59EA4049E06A002807D0E06A55
:1004E00010F4787050EA0909206B50EA0909206875
:1004F000C168DFF83002014059EA01012068C1609B
:100500002068016931F04061606B0143206801613E
:100510002068FFF754FF070057EA050000284CD178
:10052000207F94F83810490051EA803189462068CC
:10053000C168DFF8F401014059EA01012068C16097
:100540002069002810D02068006950F480302168AC
:1005500008612068D0F8C010890B89032069014325
:100560002068C0F8C0100DE02068006930F48030C9
:10057000216808612068D0F8C000800B80032168E2
:10058000C1F8C00094F84000012810D1206801692A
:100590006FF38A01606C0143A06C0143E06C01437E
:1005A000206D014351F001012068016105E02068E0
:1005B000006940084000216808616069012809D18C
:1005C0002068006B00090001216A491E0843216868
:1005D000086305E02068006B0009000121680863DA
:1005E0000120E16D60F30101E16505E0E06D50F08F
:1005F0001000E065012080464046C0B2BDE8F283AD
:1006000000F0FF032DE9F04105000E0017004448FB
:10061000FFF783FE04002868FFF7C4FE00286DD1B1
:1006200095F85800012801D102206BE0012085F8DF
:100630005800002C03D0052C01D0092C58D12800DB
:1006400000F0A6FB80464046C0B200284CD1E96DC0
:10065000DFF87401014051F48071E96528682F4981
:10066000884202D15FF0A04000E0286829688842F3
:1006700001D0002C03D1E86D30F48010E865E86DFE
:10068000C00404D5286E30F00600286601E0002082
:100690002866DFF8F005696DC862DFF8EC05696D62
:1006A0000863DFF8E805696D48631C202968086065
:1006B000002085F858002868406850F0100029682C
:1006C00048602868C06850F001002968C8603B0095
:1006D0003200286810F14001686D00F027FE804666
:1006E0002868FFF74FFE0BE0002085F8580007E070
:1006F0005FF00108002085F8580001E05FF0020873
:100700004046C0B2BDE8F081FFFF0700C0FFFF5FB9
:10071000C0FFFF7F0C000020400D030000010050CF
:10072000000300500740F0FFFDBFFFFF38B5040095
:1007300094F85800012801D1022043E0012084F8F8
:1007400058000321200000F0A3FA05002800C0B2E1
:10075000002832D12068C068400840002168C86085
:10076000606D90F8250002280BD1606D00F03DFE11
:1007700005002800C0B2002803D0E06D50F0400012
:10078000E0652068406830F010002168486028006B
:10079000C0B2002804D1200000F066FB050002E092
:1007A000200000F061FB2800C0B2002805D1E06DF8
:1007B00030F4885050F00100E065002084F85800C3
:1007C0002800C0B232BD0000FEF1FFFF2DE9F84F56
:1007D000804689465FF0000A00200090DFF864B68A
:1007E000D9F80C005845FFD198F85800012801D1DC
:1007F000022045E2012088F85800D8F80000FFF7F1
:10080000D1FD002840F02F82D9F80020D9F804103B
:10081000D8F80000FFF73DFDD8F80000FFF7C2FD53
:100820000600D8F80000FFF7CAFD070057EA0600E7
:10083000002840F00A81D9F80800B0F1004F0DD12E
:100840000022D9F80010D8F80000FFF739FD5FF05A
:100850000041D8F80000FFF70EFD0CE0D9F80820A1
:10086000D9F80010D8F80000FFF72AFD0021D8F8C9
:100870000000FFF700FDD9F81400D8F80010C9688F
:10088000C1F3C101490088400400D9F810000428D0
:100890001FD02300D9F80020D9F81010D8F8000094
:1008A000FFF7AAFCD9F81820D9F81010D8F80000E2
:1008B000FFF7C9FC99F81C00012802D15FF0007213
:1008C00000E00022D9F81010D8F80000FFF7C7FCAC
:1008D000BBE00021D8F80000FFF7A0FC400307D1DF
:1008E0000021D8F80000FFF799FCC0F3846008E00D
:1008F0000021D8F80000FFF791FC90FAA0F0B0FAC0
:1009000080F0D9F80010490304D1D9F80010C1F3E0
:10091000846105E0D9F8001091FAA1F1B1FA81F1F2
:10092000884205D100220021D8F80000FFF77FFCA3
:100930000121D8F80000FFF771FC400307D1012125
:10094000D8F80000FFF76AFCC0F3846008E00121DA
:10095000D8F80000FFF762FC90FAA0F0B0FA80F03F
:10096000D9F80010490304D1D9F80010C1F384610B
:1009700005E0D9F8001091FAA1F1B1FA81F18842AD
:1009800005D100220121D8F80000FFF750FC022118
:10099000D8F80000FFF742FC400307D10221D8F845
:1009A0000000FFF73BFCC0F3846008E00221D8F8A8
:1009B0000000FFF733FC90FAA0F0B0FA80F0D9F80D
:1009C0000010490304D1D9F80010C1F3846105E097
:1009D000D9F8001091FAA1F1B1FA81F1884205D15C
:1009E00000220221D8F80000FFF721FC0321D8F8EB
:1009F0000000FFF713FC400307D10321D8F80000E3
:100A0000FFF70CFCC0F3846008E00321D8F8000075
:100A1000FFF704FC90FAA0F0B0FA80F0D9F80010CB
:100A2000490304D1D9F80010C1F3846105E0D9F875
:100A3000001091FAA1F1B1FA81F1884205D10022AA
:100A40000321D8F80000FFF7F2FBD8F80000FFF709
:100A500090FC002840F0A980D9F80C20D9F80010AB
:100A6000D8F80000FFF746FCD9F80C00584540F0D4
:100A70009C80D9F80000400304D1D9F80000C0F3ED
:100A8000846005E0D9F8000090FAA0F0B0FA80F098
:100A9000401C10F01F000A283FD2D9F80000400384
:100AA00004D1D9F80000C0F3846105E0D9F8000052
:100AB00090FAA0F0B0FA80F1D9F80000400304D118
:100AC000D9F80000C0F3846005E0D9F8000090FA7E
:100AD000A0F0B0FA80F0D9F80020520304D1D9F880
:100AE0000020C2F3846205E0D9F8002092FAA2F255
:100AF000B2FA82F2491C890611F0F8410123401C28
:100B000010F01F0013FA00F00143521C12F01F02F4
:100B10000320424351EA025141E0D9F8000040036A
:100B200004D1D9F80000C0F3846105E0D9F80000D1
:100B300090FAA0F0B0FA80F1D9F80000400304D197
:100B4000D9F80000C0F3846005E0D9F8000090FAFD
:100B5000A0F0B0FA80F0D9F80020520304D1D9F8FF
:100B60000020C2F3846205E0D9F8002092FAA2F2D4
:100B7000B2FA82F2491C890611F0F8410123401CA7
:100B800010F01F0013FA00F00143521C12F01F0274
:100B90000A3A0320424351EA025151F00071D9F858
:100BA0000820D8F80000FFF78BFBD9F80000DFF829
:100BB000981208425FD0DFF884B25846FFF718FB5E
:100BC0000500D9F80000DFF88412884205D0D9F872
:100BD0000000DFF87C1288421DD128021BD4D8F80F
:100BE0000000B0F1A04F46D155F400015846FFF780
:100BF000F9FADFF860020068DFF85C12B0FBF1F18F
:100C0000491C0C20414300910098002833D00098E3
:100C1000401E0090F8E7D9F80000DFF84012884243
:100C20000DD1E8010BD4D8F80000DFF81412884287
:100C300021D055F080715846FFF7D4FA1BE0D9F85F
:100C40000000DFF81C12884215D1680213D4D8F8CE
:100C50000000DFF8EC1188420DD055F480015846B1
:100C6000FFF7C0FA07E0D8F85C0050F02000C8F8A1
:100C70005C0001208246002088F858005046C0B22F
:100C8000BDE8F28FE90E00086F0F00087D0F000825
:100C90002DE9F84F05000E005FF00008B146286806
:100CA000FFF780FB82462868FFF789FB83465BEAF3
:100CB0000A00002869D02868C06880011ED5687FB6
:100CC00001281BD1287F012818D1012081462868DE
:100CD000006840060FD46348804509D3E86D50F0A2
:100CE0001000E865286E50F00100286601204DE0F4
:100CF00018F10108EBE7402029680860B9F1020FFC
:100D00000CD02868FFF74EFB002807D02868FFF7B3
:100D100034FB002802D12868FFF73CFBB9F1010F32
:100D20000CD02868FFF74BFB002807D02868FFF796
:100D300024FB002802D12868FFF739FB4846022827
:100D400004D0032805D10C20040004E0082004008E
:100D500001E00420040000F063FC070028688068BC
:100D6000204212D000F05CFCC01B0628F6D3286895
:100D700080682042F2D0E86D50F01000E865286EDF
:100D800050F001002866012000E00020BDE8F28F4D
:100D900038B50400002000902068FFF7EAFA002828
:100DA00049D1206880686FF39E10002809D0E06D5B
:100DB00050F01000E065206E50F001002066012028
:100DC0003AE02068FFF7C5FA1C48FFF711FA000265
:100DD0000FD5204800682049B0FBF1F1491C0C20D8
:100DE000414300910098002803D00098401E0090D5
:100DF000F8E700F015FC050020680068C0071AD469
:100E00002068FFF7B6FA002802D12068FFF7A1FAA0
:100E100000F006FC401B0328EED320680068C007E2
:100E2000EAD4E06D50F01000E065206E50F0010053
:100E30002066012000E0002032BD000000030050C9
:100E40000001005000007F4000000880000021C326
:100E50001000C0900C000020400D0300000052C79D
:100E6000000084CB000040A370B505002868FFF7A0
:100E700084FA04002868FFF77CFA002832D0002C9E
:100E800030D12868806810F00D00012809D1286849
:100E9000FFF767FA03202968086000F0C1FB06002D
:100EA00009E0E86D50F01000E865286E50F0010090
:100EB0002866012017E028688068C00712D500F076
:100EC000AFFB801B0328F6D328688068C007F2D5E3
:100ED000E86D50F01000E865286E50F001002866BB
:100EE000012000E0002070BD38B50400A56AE86D5F
:100EF00010F0500F2FD1E86D50F40070E8652868AD
:100F00000068000714D52868FFF7BBF900281ED039
:100F10002868C06880041AD4E86D30F48070E865F1
:100F2000E86DC00413D4E86D50F00100E8650EE0F0
:100F30002868C06880070AD4E86D30F48070E865DE
:100F4000E86DC00403D4E86D50F00100E8652800A6
:100F500000F06CFB0AE0E86DC00603D5280000F045
:100F600029FF03E02000696D496B884731BD38B522
:100F70000400A56A280000F0A2FB31BD38B50400CA
:100F8000A56AE86D50F04000E865286E50F0040056
:100F90002866280000F00EFF31BD30B50168846876
:100FA0004218416802EB5103C90703D54C4401E0E4
:100FB000491C08D19A4218BF12F9011B01D10C300B
:100FC00030BD12F8015B002904F8015BF0D4491E22
:100FD000F7D5EFE780B59348016851F00101016052
:100FE000006810F00100009000988F48016851F0EF
:100FF00080510160006810F080500090009800F06F
:1010000052FF01BD30B597B004001422002101A8A1
:1010100000F05CFF4422002106A800F057FF206882
:10102000B0F1A04F3CD14FF4004006905FF000506B
:10103000159006A800F054FF002801D000F0B8FE7B
:101040007A480168491C01600068012809D1784884
:10105000016851F400510160006810F400500090E4
:101060000098744D74482860052068600020A860CE
:101070000020E860802028614FF4807068614FF4A0
:101080008060A8612020E86100202862280000F02C
:10109000E1F8002801D000F08BFE6565AC6255E0F8
:1010A00020686649884251D14FF4004006905FF0B5
:1010B0000050159006A800F013FF002801D000F0A2
:1010C00077FE5A480168491C01600068012809D16F
:1010D0005748016851F400510160006810F4005055
:1010E000009000985248016851F0010101600068C9
:1010F00010F0010000900098012001900320029060
:101100000020039001A95FF0904001F05DF84C4D84
:101110004C482860242068600020A8600020E86017
:10112000802028614FF4807068614FF48060A8616E
:101130002020E8614FF480502862280000F08AF8EF
:10114000002801D000F034FE6565AC6217B030BDF8
:101150001CB5040020683C4988420AD13248016825
:1011600051F010010160006810F01000009000982C
:1011700015E020683549884211D12B48016851F0AB
:1011800020010160006810F020000090009800220B
:101190000021372001F093F9372001F0A2F913BDA7
:1011A00018B597B004001422002101A800F08EFEAB
:1011B0004422002106A800F089FE206824498842C4
:1011C0002DD1022006900020089006A800F088FE8D
:1011D000002801D000F0ECFD1348016851F4003103
:1011E0000160006810F40030009000981048016819
:1011F00051F001010160006810F0010000900098BA
:101200000C20019002200290002003900020049006
:101210000720059001A95FF0904000F0D5FF18B0BD
:1012200010BD00006010024058100240FC33002046
:101230004C100240243200200800024000010050FF
:10124000843200201C0002400010004000140040C6
:101250000044004038B50400002C01D1012064E0B6
:101260002068DFF8941388420CD22168DFF88C03E1
:1012700041181420B1FBF0F080006064DFF88003B7
:1012800020640BE02168DFF87C0341181420B1FBD7
:10129000F0F080006064DFF870032064022084F8BE
:1012A0002500206805686FF30E15A0680543E06807
:1012B00005432069054360690543A0690543E0696A
:1012C0000543206A054320680560200000F064F9AA
:1012D000A068B0F5804F01D100206060207900F057
:1012E000FF00A16C0860206DE16C48606068002818
:1012F0000CD06068052809D2200000F06BF90020AE
:10130000616D0860E06DA16D486005E000206065DA
:101310000020A0650020E0650020E063012084F843
:101320002500002084F82400002032BD2DE9F04182
:1013300004000D0016001F005FF0000894F8240060
:10134000012801D102204EE0012084F8240094F805
:101350002500012840D1022084F825000020E06308
:101360002068006840084000216808603B003200A7
:101370002900200000F0EEF8206B002806D020683D
:10138000006850F00E00216808600BE020680068DB
:1013900030F00400216808602068006850F00A00FE
:1013A00021680860A06C0068C00305D5A06C0068C7
:1013B00050F48070A16C0860606D002805D0606DED
:1013C000006850F48070616D08602068006850F01B
:1013D00001002168086004E0002084F82400022055
:1013E00080464046C0B2BDE8F0810200002092F87D
:1013F0002510022904D00421D1630121080028E02E
:101400001168096831F00E0113681960916C096860
:1014100031F48071936C19601168096849084900BA
:1014200013681960012192F8443013F01F039940AA
:10143000136C5960116DD36C5960516D002908D03F
:10144000516D096831F48071536D1960D16D936DE0
:101450005960012182F82510002182F82410C0B2C1
:10146000704770B50400206C056820680668042089
:1014700094F8441011F01F0110FA01F10D4219D037
:10148000710717D521680968890605D4216809689C
:1014900031F004012268116094F8441011F01F012A
:1014A0008840216C4860206B002852D02000216BBE
:1014B00088474EE0022094F8441011F01F0110FA02
:1014C00001F10D421FD0B1071DD5216809688906B9
:1014D00008D42168096831F00A01226811600121ED
:1014E00084F8251094F8441011F01F018840216CF5
:1014F0004860002084F82400E06A002829D02000F9
:10150000E16A884725E0082094F8441011F01F0193
:10151000884005421DD030071BD52068006830F098
:101520000E0021680860012094F8441011F01F019A
:101530008840216C48600120E063012084F8250088
:10154000002084F82400606B002802D02000616B2A
:10155000884770BD30B4046DC56C6C60446D002C60
:1015600002D0C46D856D6C60012490F8445015F074
:101570001F05AC40056C6C60046863608468102CC7
:1015800004D10468A2600468E16003E00468A1601B
:101590000468E26030BC704730B40168164A91427A
:1015A00001D21A4C00E01A4C2200017801F0FF0130
:1015B00008391423B1FBF3F3416C890889008918B9
:1015C00081641449C164012513F01F018D40056534
:1015D00030BC7047017901F0FF010F4A12EB810224
:1015E00042650E4A8265012211F1FF0313F01F03C9
:1015F0009A40C2657047000008040240F8FFFDBF32
:1016000000000240F8FBFDBF000402400008024059
:101610002008024080080240FC08024040090240C5
:1016200001480068704700BFF833002070B504001F
:10163000DFF80807844210D1DFF804074168491C2D
:101640004160DFF8000701210160DFF8FC160A881D
:10165000C2604A88426089888160DFF8F056AC42F7
:101660002CD12800FFF762F8DFF8E4660122102190
:10167000300000F089FEDFF8C806C168491CC1606F
:101680000020B0F5C06F09D2DFF8C81631F810108D
:10169000DFF8C42622F81010401CF2E70120DFF822
:1016A000BC16087000221021300000F06DFE4FF4CF
:1016B000C062DFF8A0162800FEF7A4FF70BD00BFCF
:1016C00000BF00BF00BF7047DFF89416884213D1F7
:1016D000DFF86C164A680A6000224A60CA688A60AD
:1016E0000022CA60DFF87C261178002902D101218E
:1016F000117001E00021117070470000DFF84416FE
:10170000DFF864264B68B2FBF3F24A610022B2F5BF
:10171000C06F1BD291ED050AB8EE400A30F81230C6
:1017200000EE903AF8EE600A20EE200ADFED6A0A39
:1017300080EE200ADFED680A80EE200ADFF82C3602
:1017400003EB820383ED000A521CE0E7704770B59B
:1017500000F0E4FE00F0C2F800F0AAFA00F083FA0C
:1017600000F049FA00F0F7F900F0F7F800F01BFA82
:1017700000F09EF9DFF8F84500F0E2FE20702078D6
:10178000002803D000BF00BF00BF00BF20780028A2
:1017900003D000BF00BF00BF00BFDFF8C40500F0EA
:1017A000A3FFDFF8D00500F05EFFDFF890557F2142
:1017B000280001F0C7F9642001F04EFD0322DFF894
:1017C00088152800FEF71EFFDFF87805006800285E
:1017D000FAD0DFF878557F21280001F0B3F96420B2
:1017E00001F03AFD4FF4C062DFF868152800FEF7FB
:1017F00009FF686D0068006830F00400696D0968D1
:1018000008604FF400615FF0904000F0B2FD0028E6
:1018100004D10120DFF86015086006E0DFF8580504
:101820000168012901D102210160DFF83015087833
:101830000028E6D000200870DFF81455012210219E
:10184000280000F0A1FDDFF81005FFF757FFDFF8D3
:1018500028050168022905D1002101601920DFF85F
:101860001C150860DFF814653068002817D0306850
:10187000192801D100F064FE3068401E306001225A
:101880002021280000F080FDDFF8E00401F0F8FCE2
:10189000207000222021280000F076FD15E0DFF8FE
:1018A000E0643100DFF8C40401F0FEFD2070307800
:1018B0005F2805DA01222021280000F065FD04E000
:1018C00000222021280000F05FFD002210212800C6
:1018D00000F05AFD95E7000000007A4418B593B077
:1018E0003821002205AC200001F0FAFE142100226C
:1018F0006C46200001F0F4FE002000F05DFA0120AB
:1019000005905FF48030069002200C9003200D902B
:1019100006200E9055200F9002201090022011906A
:101920000220129005A801F00FFF002801D000F05E
:101930003FFA0F2000900320019000200290002029
:101940000390002004900421684602F069F9002801
:1019500001D000F02DFA14B010BD38B59AB00C21AA
:10196000002217AC200001F0BBFE202100226C46B3
:10197000200001F0B5FE3C21002208AC200001F05F
:10198000AFFEDFF8B8435FF0A04020605FF40020B6
:1019900060600020A0600020E06000202061012045
:1019A00060610820A061002020770120607703207B
:1019B0002062002084F824000020E06200202063E0
:1019C000012084F838000020E063012084F8400002
:1019D0001C2060644FF48070A0640020E06401204B
:1019E00020652000FEF7F0FC002801D000F0E0F9AF
:1019F0000020179017A9200001F09BFB002801D0C0
:101A000000F0D6F9DF4800900620019007200290F0
:101A10007F20039004200490002005906946200058
:101A2000FEF7D4FE002801D000F0C2F9D64800909D
:101A30000C20019069462000FEF7C8FE002801D066
:101A400000F0B6F9D14D00951220019069462000B2
:101A5000FEF7BCFE002801D000F0AAF90895092085
:101A6000099000200A907F200B9004200C90002009
:101A70000D905FF080700E900120109000208DF886
:101A8000440000208DF8450000208DF8460000201D
:101A900012900020139000208DF8500008A920001B
:101AA00001F0A0F8002801D000F082F91BB030BD91
:101AB00010B588B0202100226C46200001F010FEF5
:101AC000A24CB34820605FF4002060600020A0605A
:101AD0000020E06000202061002060610820A061FB
:101AE000002020770120607701202062002084F808
:101AF00024000020E06200202063002084F83800E9
:101B00000020E063012084F840001C2060644FF452
:101B10008070A0640020E064012020652000FEF7B2
:101B200053FC002801D000F043F99A4800900620A9
:101B30000190022002907F20039004200490002056
:101B4000059069462000FEF741FE002801D000F014
:101B50002FF908B010BD1FB50C2100226C462000E3
:101B600001F0BEFD834C8C48206040F2A3606060B1
:101B70000020A0604FF6FF70E0600020A061200010
:101B800000F034FD002801D000F012F90020009090
:101B9000002002906946200002F0DEF9002801D002
:101BA00000F006F91FBD1FB50C2100226C46200075
:101BB00001F096FD6A4C7948206044F2672060602D
:101BC0000020A06042F20F70E0600020A0612000C1
:101BD00000F00CFD002801D000F0EAF80020009091
:101BE000002002906946200002F0B6F9002801D0DA
:101BF00000F0DEF81FBD10B5694C6A4820605FF444
:101C0000612060600020A0600020E0600020206172
:101C10000C2060610020A0610020E06100202062B3
:101C2000002060620020A062200002F0F3F900288A
:101C300001D000F0BDF80021200002F07AFD00285C
:101C400001D000F0B5F80021200002F09DFD002831
:101C500001D000F0ADF8200002F048FD002801D0CE
:101C600000F0A6F810BD80B54F48016851F004019E
:101C70000160016811F0040100910099016851F0C0
:101C800001010160006810F001000090009800223E
:101C900001210B2000F013FC0B2000F022FC00229D
:101CA00000210C2000F00BFC0C2000F01AFC01BD00
:101CB00010B586B01421002201AC200001F010FD07
:101CC0003A48016851F020010160016811F02001DB
:101CD00000910099016851F001010160016811F063
:101CE000010100910099016851F002010160006852
:101CF00010F0020000900098154C00224FF49871EB
:101D0000200000F041FB4FF40060019000200290A1
:101D10000120039001A95FF0904000F055FA4FF4C4
:101D20009870019001200290002003900020049000
:101D300001A9200000F048FA06B010BD4C31002087
:101D4000D8330020B8330020E8330020B831002019
:101D500000040048B8180020B824002004340020F3
:101D6000303300200534002048821200B8000020E3
:101D700006340020E4320020F4330020000000206C
:101D800007340020000021C3000084CB000052C7AC
:101D90000001005002003004001000400014004018
:101DA000B830002000440040481002404C1002406F
:101DB00072B6FEE77047000010B40200002A32D16C
:101DC000DFF8F000036813F4C063B3F5806F23D12C
:101DD000DFF8E4301C6834F480741C60012304686C
:101DE00063F34A240460DFF8D400036832204343DD
:101DF000DFF8CC00B3FBF0F0401C0100DFF8C400BA
:101E000003685B0503D5002901D0491EF6E7006889
:101E1000400545D5032044E0DFF89C00036833F417
:101E2000807303603CE0B2F5007F32D1DFF88400BC
:101E3000036813F4C063B3F5806F23D1DFF8783003
:101E40001C6854F480741C600123046863F34A2402
:101E50000460DFF86800036832204343DFF8600065
:101E6000B3FBF0F0401C0100DFF8580003685B058D
:101E700003D5002901D0491EF6E7006840050FD5BB
:101E800003200EE0DFF83000036853F48073036032
:101E900006E0DFF820000223046863F34A240460AC
:101EA000002010BC70470848016851F4804101606F
:101EB0007047000000700040807000400C0000205F
:101EC00040420F00147000400870004010B50446F6
:101ED00010460A460146204601F002FC204610BD8D
:101EE0002DE9F84F050000275FF00008286800037F
:101EF0007AD55FF00009DFF8BCA2DAF80000C00074
:101F00000DD4DAF8000050F08050CAF80000DAF87A
:101F1000000010F080500090009801208146DFF80A
:101F200098B2DBF8000050F48070CBF80000FFF7A7
:101F300077FB0600DBF80000C00506D4FFF770FB56
:101F4000801B0328F6D3032007003800C0B2002806
:101F50003FD1DFF868B2DBF8000010F440700400F5
:101F6000002C15D0286C844212D0DBF8000030F42D
:101F700040700400DBF8000050F48030CBF8000023
:101F8000DBF8000030F48030CBF80000CBF80040E4
:101F9000E0070FD5FFF744FB0600DBF800008007E1
:101FA00008D4FFF73DFB801B41F289318842F4D30E
:101FB000032007003800C0B2002808D1DBF8001069
:101FC00031F44071286C0143CBF8001002E0B846B0
:101FD00000E0B8464846C0B2012805D1DAF8000052
:101FE00030F08050CAF800002878C00707D5DFF825
:101FF000D0110A6892089200686802430A60287843
:10200000800707D5DFF8B8110A6832F00C02A8681B
:1020100002430A602878400707D5DFF8A4110A6850
:1020200032F03002E86802430A602878000707D5DA
:10203000DFF88C110A6832F0C002286902430A6096
:102040002878800607D5DFF878110A6832F44062F4
:10205000686902430A602878400607D5DFF86011F6
:102060000A6832F44052A86902430A6028780006E0
:1020700007D5DFF84C110A6832F44042E8690243A0
:102080000A602868C00507D5DFF834110A6832F401
:102090004032286A02430A602868800507D5DFF8C5
:1020A00020110A6832F44022686A02430A602868F4
:1020B000400511D5DFF808110A6832F44012A86A09
:1020C00002430A60A86AB0F5801F05D1DFF8F4006A
:1020D000016851F4801101602868000511D5DFF80E
:1020E000E0100A6832F44002E86A02430A60E86AD3
:1020F000B0F5800F05D1DFF8CC00016851F48011F4
:1021000001602868C00411D5DFF8B4100A6832F005
:102110004072286B02430A60286BB0F1807F05D1C2
:10212000DFF8A000016851F4801101602868800484
:1021300011D5DFF88C100A6832F04062686B0243F8
:102140000A60686BB0F1006F05D1DFF878000168B4
:1021500051F4801101602868400411D5DFF8601047
:102160000A6832F04062A86B02430A60A86BB0F1C3
:10217000006F05D1DFF84C00016851F48011016057
:102180002868000411D5DFF838100A6832F0405290
:10219000E86B02430A60E86BB0F1805F05D1DFF8BD
:1021A0002400016851F4803101604046C0B2BDE8AE
:1021B000F28F000058100240007000409010024062
:1021C000881002400C100240F8B403000025086893
:1021D000E840002800F0CB8001260F6816FA05F0D1
:1021E00007403A00002A00F0C080087910F0030090
:1021F000012804D0087910F00300022819D19F6843
:102200005FF0030C68001CFA00FC37EA0C07D1F8F9
:102210000CC068001CFA00FC5CEA07079F60586865
:10222000AE40B0434E68C6F30016AE4030430400E3
:102230005C60087910F0030003280AD0DE680327E9
:1022400068008740BE438F68680087403E43340083
:10225000DC60087910F00300022816D12800C008BD
:1022600003EB8000006A0F26AF0017F01C07BE408A
:10227000B0430E69AF0017F01C07BE4030430400A6
:102280002800C00803EB800004621E680327680072
:102290008740BE430F7917F00307680087403E432D
:1022A00034001C60486810F4403F5ED03C4806682B
:1022B00056F001060660006810F0010000900098DA
:1022C000384E2800800856F820000F275FEA850C5A
:1022D0001CF00C0C17FA0CF7B843B3F1904F01D176
:1022E000002419E0304CA34201D1012414E02F4C0A
:1022F000A34201D102240FE02D4CA34201D10324BB
:102300000AE02C4CA34201D1042405E02A4CA3424C
:1023100001D1052400E00624AF0017F00C07BC40F3
:1023200020432C00A40846F82400244E346894432B
:102330004F68FF0200D514433460214E306890434B
:102340004F68BF0200D5104330601E4C266896438C
:102350004F68BF0300D5164326601B4804689443AA
:102360004F68FF0300D5144304606D1C2FE7F1BCD8
:102370007047020010690B009BB2184201D0012087
:1023800000E00020C0B270471300DBB2002B03D086
:102390000B009BB2836102E00B009BB2836270472B
:1023A0006010024008000140000400480008004896
:1023B000000C0048001000480014004808040140C8
:1023C0000C040140040401400004014010B410F06A
:1023D0000703DFF8284122684FF6FF010A4052EA5E
:1023E0000322DFF81C110A43226010BC70474348E7
:1023F0000068C0F302207047010049B2002909D4E7
:10240000012210F01F018A403E4903005BB25B09C4
:1024100041F82320704710B4020052B2002A05D4BC
:102420000A01394B040064B21A5508E00A01374B1F
:10243000040064B214F00F04234403F8042C10BC0D
:10244000704770B4030013F00704D4F107000528A7
:1024500001D3042001E0D4F10700251D072D01D28E
:10246000002500E0E51E012616FA00F0401E01409E
:10247000A94016FA05F56D1E2A401143080070BCEC
:10248000704710B50400601EB0F1807F01D30120B9
:102490000EE0601E1E4908600F215FF0FF30FFF75D
:1024A000BAFF00201B49086007201B490860002074
:1024B00010BD10B504002000FFF788FF10BDF8B56F
:1024C00004000D001600FFF792FF070032002900FC
:1024D0003800FFF7B6FF0100200040B2FFF79BFF76
:1024E000F1BD10B50400200040B2FFF785FF10BD1C
:1024F00010B504002000FFF7C4FF10BD0CED00E094
:102500000000FA0500E100E000E400E018ED00E062
:1025100014E000E018E000E010E000E010B5002456
:102520000320FFF7C6FF002002F098F9002802D030
:102530000120040001E0FEF74DFD2000C0B210BDF7
:1025400010B53C24224600211548FFF7BFFC224667
:1025500000211448144CFFF7B9FC144A1449002315
:102560001360144A0B604FF07E5C134BC2F800C03E
:10257000124A1A6000201249124B134A2060134C71
:102580000C601A601249134B134C144A0C601A6009
:102590001349144A144B107001240C70186010BDBC
:1025A000400000207C0000202000002024000020AB
:1025B000280000203C00002038000020000040409F
:1025C00034000020003400208FC2753F3333B33F06
:1025D000300000202C0000205C8F023F6666663FC2
:1025E0001C000020140000201800002010B504007A
:1025F000002C01D1012035E094F83D00002805D1E0
:10260000002084F83C002000FEF7A2FD022084F8A0
:102610003D00211D206800F092F9012084F8480057
:10262000012084F83E00012084F83F00012084F856
:102630004000012084F84100012084F8420001207C
:1026400084F84300012084F84400012084F8450008
:10265000012084F84600012084F84700012084F816
:102660003D00002010BD010091F83D00012801D07F
:10267000012038E0022081F83D000868DFF8F830DA
:10268000984217D00868B0F1804F13D00868DFF87F
:10269000EC3098420ED00868DFF8E430984209D058
:1026A0000868DFF8E030984204D00868DFF8D830D6
:1026B000984211D108688368DFF8D00003401A00FF
:1026C000062A0FD0B2F5803F0CD00868006850F0A1
:1026D00001000B68186005E00868006850F0010010
:1026E0000B68186000207047010091F83D00012838
:1026F00001D001203EE0022081F83D000868C0685A
:1027000050F001000B68D8600868DFF86C30984220
:1027100017D00868B0F1804F13D00868DFF85C303C
:1027200098420ED00868DFF85830984209D00868FF
:10273000DFF85030984204D00868DFF84C309842F7
:1027400011D108688368DFF8440003401A00062AA4
:102750000FD0B2F5803F0CD00868006850F001003F
:102760000B68186005E00868006850F001000B680D
:102770001860002070470000002C01400004004059
:102780000008004000340140004001400700010003
:1027900070B504002068C56820680669B00718D5C0
:1027A000A80716D57FF00200216808610120207774
:1027B0002068806910F0030F03D0200002F07EF83B
:1027C00005E0200002F07BF8200002F079F80020FC
:1027D0002077700718D5680716D57FF004002168A8
:1027E0000861022020772068806910F4407F03D0C0
:1027F000200002F063F805E0200002F060F82000FD
:1028000002F05EF800202077300718D5280716D58B
:102810007FF0080021680861042020772068C069E3
:1028200010F0030F03D0200002F048F805E020006C
:1028300002F045F8200002F043F800202077F0066F
:1028400018D5E80616D57FF0100021680861082029
:1028500020772068C06910F4407F03D0200002F088
:102860002DF805E0200002F02AF8200002F028F8F8
:1028700000202077F00708D5E80706D57FF0010093
:10288000216808612000FEF71FFF16F4025F08D0E0
:10289000280606D57FF4025021680861200002F066
:1028A00010F8F00508D5280606D57FF48070216859
:1028B0000861200002F006F8700608D5680606D503
:1028C0007FF0400021680861200001F0FCFFB006A5
:1028D00008D5A80606D57FF02000216808612000F1
:1028E00001F0F2FFF00208D5E80206D57FF480106F
:1028F00021680861200001F0E8FFB00208D5A802B5
:1029000006D57FF4001021680861200001F0DEFF89
:10291000700208D5680206D57FF48000216808613E
:10292000200001F0D4FF300208D5280206D57FF43C
:10293000000021680861200001F0CAFF70BD10B4DA
:102940000468DFF8B43098420ED0B0F1804F0BD05D
:10295000DFF8A820904207D0DFF8B420904203D0DF
:10296000DFF89C20904203D134F070044A6814438D
:10297000984217D0B0F1804F14D0DFF880209042F9
:1029800010D0DFF88C2090420CD01D4A904209D024
:102990001C4A904206D01C4A904203D0DFF86C20BB
:1029A000904203D134F44074CA68144334F0800474
:1029B0004A69144304608A68C2620A688262984263
:1029C0000CD00F4A904209D00E4A904206D00E4ACF
:1029D000904203D0DFF83420904201D10A690263AB
:1029E000012242610269D20703D5026952085200EE
:1029F000026110BC70470000002C01400004004040
:102A000000340140004001400044014000480140C2
:102A100000080040826832F0E0720A43826070472A
:102A2000806810F0E070704770B410F1600515EB2D
:102A300081052E68DFF89C41264012F0F8442643B9
:102A40001E4356F000462E6070BC7047020012F123
:102A5000600010EB8100006810F0F840704710B47F
:102A600010F1600313EB81031C6824F0004414434D
:102A70001C6010BC704710B410F1600313EB8103AD
:102A80001C6834F0807414431C6010BC704710B490
:102A900010F1600313EB81031C6834F000741443DD
:102AA0001C6010BC7047426922F000420A43426138
:102AB000704770B410F114030C00E40D14F004041A
:102AC000E3181C6807250E00360D16F01F06B540EA
:102AD000AC430D002D0D15F01F0512FA05F52C4322
:102AE0001C6070BC704730B4D0F8B0404B035B0B37
:102AF0009C43DFF8E43012F01805EB400B405B0319
:102B00005B0B1C43C0F8B04030BC7047806810F0CD
:102B1000010070478368DFF8C420134011F0804241
:102B2000134353F00043836070478068C00F7047C1
:102B30008068800810F0010070478068C00810F0BD
:102B4000010070477CB504000D000020009094F84F
:102B50005800012801D102203BE0012084F85800F0
:102B60002000FEF781F906003000C0B2002827D10E
:102B7000E06D30F4885050F00200E06529002068D4
:102B8000FFF7C8FF2068FFF7D0FF002812D0009899
:102B9000401C00900098DFF848108842F2D3E06DA6
:102BA00030F0020050F01000E065002084F858007A
:102BB00001200EE00120E16D60F30101E16503E019
:102BC000E06D50F01000E065002084F858003000FF
:102BD000C0B276BD00F0FF03FFFF0700C0FFFF3F5C
:102BE00002DE04002DE9FE4F05000E000027002044
:102BF00000905FF0000868690028DFF834B6F068DC
:102C00005845FFD195F85800012801D102208EE2E5
:102C1000012085F858006869002802D0306A012830
:102C200023D17068092854D1B06A00280CD03168CB
:102C3000490C11F4785196F8280010F07C000143FB
:102C4000F06A0143884604E03068400C10F4785084
:102C500080462868C16CDFF8DC05014058EA0101B4
:102C60002868C164C5F8648033E0A86E002814D1D8
:102C7000306AA86600206866B06A00280AD0316A07
:102C8000491E96F8280010F07C000143F06A0143C9
:102C9000884602E0306A401E80463068C0F3846097
:102CA000317911F01F01884050EA0808A86E401ED3
:102CB000A866686E58EA00006866A86E002808D109
:102CC0002868C16CDFF86C050140686E0143286814
:102CD000C1642868FFF731FF00281CD196F8250051
:102CE00000280ED12868C06830F4401096F82610ED
:102CF00050EA415096F8241050EA01502968C86003
:102D000009E02868C06830F4401096F8261050EAB0
:102D100041502968C8602868FFF70AFF8146286883
:102D2000FFF70BFF82465AEA0900002840F01A819B
:102D3000B06A002802D0F06A002811D196F8250068
:102D4000012806D12868C06850F000702968C86062
:102D500017E02868C06830F000702968C86010E08B
:102D600096F82500012806D1E86D50F02000E865AE
:102D70000120070005E02868C06830F0007029686D
:102D8000C86096F8300001280CD12868016931F438
:102D9000FF71706B0143B06B014351F00201286871
:102DA000016105E02868006930F0020029680861C7
:102DB000B068B0F1004F0AD1002231682868FFF7EF
:102DC00078FE5FF000412868FFF76DFE08E0B2680A
:102DD00031682868FFF76DFE00212868FFF763FE61
:102DE00070692968C968C1F3C10149008840019030
:102DF0003069042816D0019B326831692868FFF7D2
:102E000013FEB26931692868FFF735FE307F01286B
:102E100002D15FF0007200E0002231692868FFF7FC
:102E200036FE9FE000212868FFF710FE400306D120
:102E300000212868FFF70AFEC0F3846007E0002144
:102E40002868FFF703FE90FAA0F0B0FA80F031682E
:102E5000490303D13168C1F3846104E0316891FA18
:102E6000A1F1B1FA81F1884204D100220021286841
:102E7000FFF7F5FD01212868FFF7E8FD400306D1C3
:102E800001212868FFF7E2FDC0F3846007E001211B
:102E90002868FFF7DBFD90FAA0F0B0FA80F0316807
:102EA000490303D13168C1F3846104E0316891FAC8
:102EB000A1F1B1FA81F1884204D1002201212868F0
:102EC000FFF7CDFD02212868FFF7C0FD400306D1C2
:102ED00002212868FFF7BAFDC0F3846007E00221F1
:102EE0002868FFF7B3FD90FAA0F0B0FA80F03168DF
:102EF000490303D13168C1F3846104E0316891FA78
:102F0000A1F1B1FA81F1884204D10022022128689E
:102F1000FFF7A5FD03212868FFF798FD400306D1C0
:102F200003212868FFF792FDC0F3846007E00321C6
:102F30002868FFF78BFD90FAA0F0B0FA80F03168B6
:102F4000490303D13168C1F3846104E0316891FA27
:102F5000A1F1B1FA81F1884204D10022032128684D
:102F6000FFF77DFD2868FFF7D1FD002840F08E8037
:102F7000F26831682868FFF7B6FDF068584540F000
:102F800085803068400303D13068C0F3846004E07A
:102F9000306890FAA0F0B0FA80F0401C10F01F00EA
:102FA0000A2836D23068400303D13068C0F3846108
:102FB00004E0306890FAA0F0B0FA80F13068400385
:102FC00003D13068C0F3846004E0306890FAA0F068
:102FD000B0FA80F03268520303D13268C2F38462DF
:102FE00004E0326892FAA2F2B2FA82F2491C89062F
:102FF00011F0F8410123401C10F01F0013FA00F0FB
:103000000143521C12F01F020320424351EA0251B5
:1030100038E03068400303D13068C0F3846104E0D5
:10302000306890FAA0F0B0FA80F13068400303D124
:103030003068C0F3846004E0306890FAA0F0B0FA21
:1030400080F03268520303D13268C2F3846204E034
:10305000326892FAA2F2B2FA82F2491C890611F0A1
:10306000F8410123401C10F01F0013FA00F0014347
:10307000521C12F01F020A3A0320424351EA025145
:1030800051F00071B2682868FFF713FD30686A4993
:10309000084247D0DFF890B15846FFF7C1FC040062
:1030A00030686649884203D03068654988421AD141
:1030B000200218D42868B0F1A04F33D154F4000195
:1030C0005846FFF7A7FC5F4800685F49B0FBF1F185
:1030D000891C0C20414300910098002822D00098C0
:1030E000401E0090F8E73068584988420BD1E00153
:1030F00009D428684D49884214D054F0807158464C
:10310000FFF788FC0EE03068514988420AD160021E
:1031100008D428684549884204D054F480015846B0
:10312000FFF778FC002085F858003800C0B2BDE8F1
:10313000FE8F2DE9F0439BB006000F005FF0000802
:103140003868002896F85800012801D1022068E06C
:10315000012086F858000020179000201890306851
:10316000B0F1A04F02D13148009001E00020009062
:103170000098002808D1F06D50F02000F065002084
:1031800086F8580001204CE00098FFF7D1FC8146FA
:103190003068FFF7CDFC59EA0000002836D12248FC
:1031A0000500386800281DD0A96831F460417868AE
:1031B000014396F8380051EA4031A9605FF0A04021
:1031C000FFF7A4FC04001948FFF7A0FC0443002CFF
:1031D00022D1A9681F48014038680143B8680143FB
:1031E000A96019E0A86830F46040A8605FF0A040D2
:1031F000FFF78CFC04000D48FFF788FC0443002C0B
:103200000AD1A96813480140A96005E0F06D50F0AB
:103210002000F06501208046002086F858004046D6
:10322000C0B21BB0BDE8F0830003005000010050A5
:1032300000007F400040100400000880000021C30F
:103240001000C0900C000020400D0300000052C789
:10325000000084CBE0F0FFFF70B50400FEF7E0F95A
:103260000500260016F1010F02D0044800688619F7
:10327000FEF7D6F9401BB042FAD370BD080000201B
:1032800070B52DED028B7A4B1D78012D05D0794B51
:103290007B201870BDEC028B70BD01F01BFB764BE0
:1032A0001C68661C022E1E6049D8023407EE904A44
:1032B000724B734A7349F8EE675A03F13C000024DD
:1032C000B2EC016AF3EC017AB1EC017A66EE066ABF
:1032D00067EEA77A37EE465A77EEA67A27EE077A98
:1032E000C5EE256A37EE677A87EE255A36EE867A7E
:1032F00077EE857A67EE076A77EEE67AF5EEC07AC2
:10330000F1EE10FA0EDA984202ED017A43F8044C1D
:10331000D6D1092E8CBF7F207E20564B1870BDEC75
:10332000028B70BDF1EEE76A984202ED017A43ED3F
:10333000016AC5D1092E8CBF7F207E20EDE79FED6D
:10334000527A50484E49DFED514A4C4AF0EE476AF6
:103350002B461EE036EE676AB5EEC06AF1EE10FA53
:1033600048BFB1EE466AC6EE257A06EE103A37EE51
:10337000E65AF8EEC65AF4EE477A85EE256A01332E
:10338000F1EE10FAC8BFB0EE677A102B76EE866ABF
:103390000DD0F2EC015AB0EC016AF1EC017AF5EED5
:1033A000405AF1EE10FAD5D1F0EE647ADDE7384AF2
:1033B00038491368D1ED005A01331360364A07EEDD
:1033C000903A92ED006AB8EE675A76EEE56A37EE0B
:1033D000467AC6EE857A87EE058A77EEA57A38EECC
:1033E000068AC1ED007A82ED008A002B3FF45DAFC2
:1033F0002A4BD3ED008A67EEA87A17EE900A01F007
:1034000091FA9FED171B41EC100B01F0AFFA51EC54
:10341000100B01F0CDFAF1EE040A00EE100A01F0F3
:10342000FBFA1F4B68EE287A83ED000A17EE900A2C
:1034300001F078FA9FED0C1B41EC100B01F096FAAD
:1034400051EC100B01F0B4FADFED100A00EE100A97
:1034500001F0E2FA134B83ED000A26E7AFF3008098
:10346000000000000000F03F0000000000000840E5
:103470001C00002014000020180000207C00002008
:10348000400000207C330020000000000000C84203
:10349000200000202800002024000020340000200C
:1034A0003C0000203800002010B52DED048B7C4A34
:1034B0000C461378FF212170A3F17D01012940F210
:1034C000BE80802B00F0BB80764B1B68092B40F23E
:1034D000BA8001F0FFF9744B186801F023FA6CA36D
:1034E000D3E9002301F0ACFA01F062FADFED6F7A64
:1034F00009EE100AB4EEE79AF1EE10FA80F2A98014
:10350000B5EEC09AF1EE10FA694B40F3B780DFEDEB
:10351000698AC3ED007AB0EE679A9FED677A6748D3
:103520006749684A9FED685AB0EE478A01231EE05A
:1035300076EEE76AF5EEC06AF1EE10FA48BFF1EEFA
:10354000666AC6EE867A06EE903A77EEC85AB8EE0C
:10355000E66AB4EE677AC5EE866A0133F1EE10FAD8
:1035600048BFB0EE677A102B38EE268A0DD0B2EC49
:10357000016AF0EC016AF1EC017AB5EE406AF1EE15
:1035800010FAD5D1F0EE457ADDE7504B27EE097AF7
:10359000D3ED006A4E4BC7EE267AF7EE009A77EE2F
:1035A000E97A93ED007A77EEA77A28EE098A67EE3A
:1035B000877A17EE900A01F0B5F99FED371B41ECC1
:1035C000100B01F0D3F951EC100B01F0F1F9F0EE12
:1035D000000A00EE100A01F01FFA3E4B93ED007A4C
:1035E0003D4BC8EE077A93ED007A77EEE97A77EEF5
:1035F000A77A67EE877A77EE807A67EEA87A17EE79
:10360000900A01F08FF99FED241B41EC100B01F0A3
:10361000ADF951EC100B01F0CBF9F2EE040A00EE1B
:10362000100A01F0F9F9F2EE047A37EEC00A00232D
:1036300020EE270AFCEEC07A17EE902A2270BDEC2D
:10364000048B184610BD7E231370BDEC048B184606
:1036500010BDDFED1D7A164BB4EEE79AF1EE10FACD
:1036600006D9DFED1E8AC3ED007AB0EE679A54E703
:10367000F7EE088A69EE288A18604EE793ED009A03
:10368000F7EE088A69EE288A47E700BFAFF30080AB
:10369000B81E85EB51B8EE3F0000000000000000AE
:1036A0001400002018000020100000200AD7233C3E
:1036B000003400208FC2753C000000007C330020E5
:1036C000400000207C0000200000C842380000209C
:1036D0002C0000203C000020300000200000164399
:1036E00062F30F2262F31F42401810F0030308D068
:1036F000C91A1FD3DB0748BF00F8012D28BF20F8E7
:10370000022D130030B414461546103928BF20E9A5
:103710003C00FAD8490728BF20E90C0048BF40F810
:10372000042D890028BF20F8022D48BF00F8012D84
:1037300030BC7047C91818BF00F8012DCB0728BF4F
:1037400000F8012D704700002DE9FC470400002C13
:1037500001D1012062E22078C00760D5DFF8B4070C
:10376000006810F00C000600DFF8B807006810F0E1
:10377000030007000C2E01D1032F01D0082E09D120
:10378000DFF888070068800349D56068002846D1C3
:10379000012043E26068B0F5803F06D1DFF86C0796
:1037A000016851F48031016018E06068B0F5A02F25
:1037B0000AD1DFF85807016851F4802101600168DF
:1037C00051F48031016009E0DFF84007016831F40D
:1037D00080310160016831F4802101606068002857
:1037E0000ED0FDF71DFF0500DFF8200700688003FD
:1037F00015D4FDF715FF401B6528F5D303200DE216
:10380000FDF70EFF0500DFF804070068800306D50A
:10381000FDF706FF401B6528F5D30320FEE1207865
:10382000800766D5DFF8EC06006810F00C00060093
:10383000DFF8F006006810F0030007000C2E01D13D
:10384000022F01D0042E1BD1DFF8C006006840050E
:1038500004D5E068002801D10120DFE1DFF8B006DF
:10386000016831F0FE41226951EA02610160DFF82E
:10387000B006006800F0F2FF00283AD00120CDE148
:10388000E06800281FD0DFF88486D8F8000050F4E4
:103890008070C8F80000FDF7C3FE0500D8F80000EE
:1038A000400506D4FDF7BCFE401B0328F6D30320D9
:1038B000B4E1DFF85C06016831F0FE41226951EAAB
:1038C0000261016015E0DFF84486D8F8000030F4AA
:1038D0008070C8F80000FDF7A3FE0500D8F80000CE
:1038E000400506D5FDF79CFE401B0328F6D30320B8
:1038F00094E1207800072ED56069002815D0DFF804
:103900002886D8F8000050F00100C8F80000FDF744
:1039100087FE0500D8F8000080071CD4FDF780FE64
:10392000401B0328F6D3032078E1DFF8FC85D8F8A4
:10393000000040084000C8F80000FDF771FE0500D7
:10394000D8F80000800706D5FDF76AFE401B032863
:10395000F6D3032062E12078400740F181805FF0D8
:103960000008DFF8C895D9F80000C0000DD4D9F8D8
:10397000000050F08050C9F80000D9F8000010F0A5
:1039800080500090009801208046DFF8A4A5DAF866
:103990000000C00513D4DAF8000050F48070CAF8B3
:1039A0000000FDF73DFE0500DAF80000C00506D472
:1039B000FDF736FE401B0328F6D303202EE1A06856
:1039C000012806D1DFF86C05016851F001010160A2
:1039D00017E0A06805280AD1DFF85805016851F002
:1039E00004010160016851F00101016009E0DFF8A4
:1039F00044050168490849000160016831F004018B
:103A00000160A068002810D0FDF70AFE0500DFF86D
:103A100024050068800719D4FDF702FE401B41F21F
:103A200089318842F3D30320F8E0FDF7F9FD050062
:103A3000DFF800050068800708D5FDF7F1FD401BA1
:103A400041F289318842F3D30320E7E04046C0B217
:103A5000012805D1D9F8000030F08050C9F80000E5
:103A6000207880062ED5A069002815D0DFF8C884FC
:103A7000D8F8000050F00100C8F80000FDF7D0FDB4
:103A80000500D8F8000080071CD4FDF7C9FD401BD5
:103A90000328F6D30320C1E0DFF89C84D8F80000A7
:103AA00040084000C8F80000FDF7BAFD0500D8F84E
:103AB0000000800706D5FDF7B3FD401B0328F6D3B1
:103AC0000320ABE0E069002800F0A780DFF84404A1
:103AD000006810F00C000C286CD0E06902284BD173
:103AE000DFF82894D9F8000030F08070C9F80000A1
:103AF000FDF796FD8046D9F80000800107D5FDF757
:103B00008FFDB0EB08000328F5D3032086E0DFF833
:103B100014140A68DFF824040240206A0243606A31
:103B2000401E52EA0012A06A52EA0022206B4008AE
:103B3000401E52EA4052606B4008401E52EA40620A
:103B4000E06A52EAC0620A60D9F8000050F0807062
:103B5000C9F80000086850F080700860FDF760FD4B
:103B60000500D9F80000800157D4FDF759FD401B2E
:103B70000328F6D3032051E0DFF89083D8F8000043
:103B800030F08070C8F80000FDF74AFD0500D8F855
:103B90000000800106D5FDF743FD401B0328F6D346
:103BA00003203BE0DFF87C130A68DFF8940302404F
:103BB0000A6032E0E069012801D101202EE0DFF83F
:103BC00064030068070017F00300216A884222D1CD
:103BD00017F0F000616A491EB0EB011F1BD117F40A
:103BE000FE40A16AB0EB012F15D117F07840E16AD1
:103BF000B0EBC16F0FD117F4C000216B4908491E0B
:103C0000B0EB415F07D117F0C060616B4908491EF6
:103C1000B0EB416F01D0012000E00020BDE8F68745
:103C20002DE9F04704000D005FF00008002C01D1E1
:103C30000120EAE0DFF80C93D9F8000010F00F0043
:103C4000A8420ED2D9F80000000900012843C9F8A3
:103C50000000D9F8000010F00F00A84201D00120A8
:103C6000D3E02078C00763D56068032821D1DFF84E
:103C70009C020068800101D40120C6E000F022F916
:103C80000700DFF8C402874234D3DFF888120868DF
:103C900010F0F00F05D0207880072BD5A068002801
:103CA00028D108200A6860F307120A608020804645
:103CB00020E06068022806D1DFF850020068800327
:103CC00008D40120A1E0DFF844020068400501D4D7
:103CD00001209AE000F09BF80700DFF86C028742B1
:103CE00008D3DFF830020821026861F3071202608E
:103CF00080208046DFF81CA2DAF8001089088900CD
:103D000060680143CAF80010FDF78AFC0600DAF883
:103D1000000010F00C006168B0EB810F08D0FDF7D7
:103D20007FFC801B41F289318842F0D303206CE094
:103D3000207880071BD52078400705D5DFF8D4010F
:103D4000016851F4E06101602078000706D5DFF8D2
:103D5000C4010721026861F30D220260DFF8B4118B
:103D60000A6832F0F002A06802430A6008E0B8F185
:103D7000800F05D1DFF89C01016831F0F00101608E
:103D8000D9F8000010F00F00854218D2D9F80000D1
:103D9000000900012843C9F80000FDF741FC0600B6
:103DA000D9F8000010F00F00A84208D0FDF738FC49
:103DB000801B41F289318842F2D3032025E020782C
:103DC000400706D553490A6832F4E062E0680243CE
:103DD0000A602078000707D54E48016831F4605129
:103DE000226951EAC201016000F011F85749494ABD
:103DF0001268C2F30312895C11F01F01C8404749E1
:103E000008604748006800F029FDBDE8F08770B4FD
:103E10004048056815F00C05042D01D13E4832E0FC
:103E2000056815F00C05082D01D149482BE0006804
:103E300010F00C000C2825D13A4D286810F0030032
:103E400002002868C0F30310401C0400032A08D1B4
:103E50003F48B0FBF4F62868C0F306204643310023
:103E600007E02D48B0FBF4F62868C0F3062046436F
:103E700031002868C0F34160401C40000300B1FBE2
:103E8000F3F000E0002070BC7047244800687047E1
:103E900080B5FFF7FAFF2F491E4A1268C2F30222CB
:103EA000895C11F01F01C84002BD80B5FFF7EDFF2E
:103EB0002849184A1268C2F3C222895C11F01F0116
:103EC000C84002BD10B4174A146814F00304106807
:103ED000C0F303135B1C032C07D11D48B0FBF3F1A7
:103EE0001068C0F30620414306E00B48B0FBF3F135
:103EF0001068C0F3062041431068C0F34162521CB1
:103F00005200B1FBF2F010BC7047000000100240FC
:103F100004100240081002400024F4000C000020AD
:103F2000040000200C10024094100240581002407F
:103F30000070004090100240981002400C809F01D9
:103F4000FCFFEEFE0020024001B4C4049C4F0008B8
:103F500000366E01DC4F000870B4020092F83C009D
:103F6000012801D1022046E0012082F83C00022015
:103F700082F83D001068436810688468DFF87C5060
:103F80001068A84204D01068DFF87460B04203D112
:103F900033F4700348680343DFF86800034008689F
:103FA0000343106843601068A84217D01068B0F14E
:103FB000804F13D01068DFF85050A8420ED0106820
:103FC000DFF84850A84209D01068DFF83450A84202
:103FD00004D01068DFF83850A84205D134F08004CE
:103FE0008868044310688460012082F83D00002046
:103FF00082F83C00002070BC70470000002C01409B
:10400000003401408FFFFFFD000400400008004025
:104010000040014010B50400002C01D1012037E020
:10402000A0690028FFD1D4F88800002805D100201D
:1040300084F884002000FDF7B3F82420C4F8880039
:10404000206800684008400021680860A06A0028D5
:1040500002D0200000F0DBF9200000F01AF801285F
:1040600001D1012014E02068406830F490402168BC
:1040700048602068806830F02A00216888602068E5
:10408000006850F0010021680860200000F02CFA60
:1040900010BD2DE9F84F05000026DFF8241628682A
:1040A0008842FFD0AA682869024368690243E86928
:1040B000024328680368DFF80C06034013432868AE
:1040C00003602868436833F44053E8680343286872
:1040D0004360D5F818902868884202D0286A50EAD0
:1040E000090928688268DFF8E005024059EA0202FF
:1040F000286882602868C26A12091201686A02434D
:104100002868C2622868DFF8C425904216D1DFF81B
:10411000C005006810F00300002805D0022805D073
:1041200006D3032806D007E001277DE002277BE0C5
:10413000042779E0082777E0102775E02868DFF882
:104140009425904217D1DFF88805006810F00C0024
:10415000002806D0042808D0082804D00C2806D04F
:1041600007E0002760E002275EE004275CE0082704
:104170005AE0102758E02868DFF85C25904217D1F4
:10418000DFF84C05006810F03000002806D0102839
:1041900008D0202804D0302806D007E0002743E0CC
:1041A000022741E004273FE008273DE010273BE0DD
:1041B0002868DFF82825904217D1DFF81405006839
:1041C00010F0C000002806D0402808D0802804D075
:1041D000C02806D007E0002726E0022724E00427B5
:1041E00022E0082720E010271EE0286888421AD124
:1041F000DFF8DC04006810F44060002809D0B0F556
:10420000806F0AD0B0F5006F05D0B0F5406F06D0D2
:1042100007E0002708E0022706E0042704E008275B
:1042200002E0102700E010272868884253D13800A8
:10423000C0B2002806D0022808D0042809D00828D7
:104240000BD00DE0FFF724FE04000CE0DFF89044F3
:1042500009E0FFF7DCFD040005E04FF4004402E054
:10426000002401200600002C00F0C280DFF8741446
:10427000686A31F81000B4FBF0F082466A680320E7
:104280004243924503D368680003504502D201209F
:104290000600ADE0686A31F81000B4FBF0F20023CC
:1042A0001B0243EA126312026868400800211018DA
:1042B00059416A68002300F099FC8046B8F5407FB8
:1042C00006D3B8F5801F03D22868C0F80C808FE0B1
:1042D000012006008CE0E869B0F5004F49D13800B4
:1042E000C0B2002808D001280AD002280CD0042827
:1042F0000DD008280FD011E0FFF7CAFD040010E030
:10430000FFF7D3FD04000CE0DFF8D44309E0FFF72A
:104310007EFD040005E04FF4004402E0002401208B
:104320000600002C64D0DFF8BC03696A30F8110085
:10433000B4FBF0F06968490811EB40016868B1FB13
:10434000F0F08046B8F1100F10D3B8F5803F0DD2D1
:104350004FF6F07111EA08014046C0F342000143F4
:104360008B46584680B22968C86041E001200600AB
:104370003EE03800C0B2002808D001280AD0022848
:104380000CD004280DD008280FD011E0FFF780FDD5
:10439000040010E0FFF789FD04000CE0DFF8404363
:1043A00009E0FFF734FD040005E04FF4004402E0AB
:1043B000002401200600002C1AD0DFF82803696AC7
:1043C00030F81100B4FBF0F0696810EB5100696837
:1043D000B0FBF1F08046B8F1100F07D3B8F5803F7D
:1043E00004D2404680B22968C86001E0012006007E
:1043F0000120A5F86A000120A5F868000020686780
:104400000020A8673000C0B2BDE8F28F000090F82D
:104410002810090707D501684A6832F40042816B09
:104420000A4301684A6090F82810C90707D5016857
:104430004A6832F40032C16A0A4301684A6090F85F
:104440002810890707D501684A6832F48032016B69
:104450000A4301684A6090F82810490707D50168A7
:104460004A6832F48022416B0A4301684A6090F83E
:104470002810C90607D501688A6832F48052C16BDA
:104480000A4301688A6090F82810890607D50168F8
:104490008A6832F40052016C0A4301688A6090F81D
:1044A0002810490613D501684A6832F48012416C1D
:1044B0000A4301684A60416CB1F5801F07D1016869
:1044C0004A6832F4C002816C0A4301684A6090F87D
:1044D0002810090607D501684A6832F40022C16C29
:1044E0000A4301684A60704738B504000020C4F8E8
:1044F0009000FDF795F805002068006800071ED5BC
:104500007FF07E4000902B0000225FF4001120001D
:1045100000F055F8002812D0206850E8000F30F065
:1045200080000100226842E800100028F4D1202019
:10453000C4F88800002084F8840003203EE020684E
:10454000006840072CD57FF07E4000902B000022B1
:104550005FF48001200000F032F8002820D02068AD
:1045600050E8000F30F490700100226842E800101B
:104570000028F4D12068083050E8000F40084000BF
:104580000100206810F1080242E800100028F1D173
:104590002020C4F88C00002084F8840003200DE063
:1045A0002020C4F888002020C4F88C000020E06699
:1045B00000202067002084F88400002032BD2DE90F
:1045C000F04105000E0090461F00069C2868C06957
:1045D0003040B04201D1012000E000204146C9B284
:1045E000884238D114F1010FF0D0FDF719F8C01B43
:1045F000844201D3002C01D103202DE028680068FB
:104600004007E3D5802EE1D0402EDFD02868C06976
:1046100000070DD5082029680862280000F01EF860
:104620000820C5F89000002085F88400012013E0E0
:104630002868C0690005C9D54FF400602968086280
:10464000280000F00BF82020C5F89000002085F825
:104650008400032000E00020BDE8F081016851E8FB
:10466000001F31F490710A00036843E8002100291B
:10467000F4D10168083151E8003FDFF86C100B40BD
:104680001A00016811F1080343E800210029F0D164
:10469000C16E01290AD1016851E8001F31F01001F3
:1046A0000A00036843E800210029F4D12021C0F862
:1046B0008C100021C1660021416770470000000096
:1046C00000800040F369FFCFFFF4FF110038014084
:1046D000881002400044004000480040004C004068
:1046E0000024F400844F0008FEFFFFEF010091F862
:1046F0008400012801D102201AE0012081F8840001
:104700002420C1F88800086802680868006840082A
:1047100040000B68186032F00052002048660868BC
:1047200002602020C1F88800002081F88400002069
:10473000704770B504000D0094F88400012801D181
:10474000022020E0012084F884002420C4F888009E
:1047500020680668206800684008400021680860FA
:104760002068806820F0604028432168886020002D
:1047700000F035F8206806602020C4F8880000208A
:1047800084F88400002070BD70B504000D0094F81A
:104790008400012801D1022020E0012084F8840057
:1047A0002420C4F888002068066820680068400853
:1047B0004000216808602068806830F0606028430D
:1047C00021688860200000F00AF820680660202038
:1047D000C4F88800002084F88400002070BDF0B484
:1047E000416E002906D10121A0F86A100121A0F82C
:1047F00068102DE008210A0008210B000168896873
:10480000490E11F007010C0001688968490F0D007D
:10481000104E114F9C465FFA8CFC2900C9B2795C9E
:1048200001FB0CFC2900C9B2715C9CFBF1F1A0F802
:104830006A1094465FFA8CFC2100C9B2795C01FBD6
:104840000CFC2100C9B2715C9CFBF1F1A0F868106E
:10485000F0BC7047D44F0008CC4F000838B50400B6
:1048600000251349086800281DD04FF47A700968A4
:10487000B0FBF1F00F490968B1FBF0F0FDF738FE2D
:1048800000280DD1102C08D2002221005FF0FF304B
:10489000FDF715FE0848046007E00120050004E06C
:1048A0000120050001E0012005002800C0B232BD52
:1048B000080000200C000020040000207047704712
:1048C0007047704770477047704770477047704730
:1048D00070470000114900B540F2F25C01F13C0E56
:1048E000F1EC016ADFED0E7A0246002367EEA67A4C
:1048F000B2EC017A013337EE877A07EE903AF8EEA0
:10490000E77A6345C7EE276A41ED016AEED18E452D
:1049100000F10400E4D15DF804FB00BF7C3300200B
:1049200000000000C0F3C75181B1FF2906D0C110BB
:10493000400721F0E04101F16051704741020CBF96
:1049400040F4E0016FF000410020704700F00041AA
:1049500000020AD0B0FA80FC00FA0CF001F16051BC
:10496000A1EB0C5101EBD0214005704751EC100B2D
:1049700000B553EC112B00F003F841EC100B00BD17
:104980004FF4001C1CEB410F0ED81CEB430F0DD84D
:1049900051EA030C04D58B4208BF824204D370470E
:1049A0008B4208BF824201D91000190070470000F5
:1049B00001F000428B1AA3F16051B1F5801F0ADBB0
:1049C000B1F17F6F1FD242EAC102C10071F1004113
:1049D00042EB507070470B15C3F10903212B10D225
:1049E000890241EA905180020128494141F0004189
:1049F00021FA03F0C3F12003994071F100415041C5
:104A00007047100070476FF0000013EB103F5CBF61
:104A1000000E42EAC050704710EE100AF5EE400A50
:104A2000F1EE10FA0BD618B904BFB0EE600A06E03A
:104A3000F4EE400AF1EE10FAB8BFB0EE600A70472B
:104A400030B540F2FF7C1CEA11541DBF1CEA13551F
:104A5000644565453FE0641981EA030C6FF35F53D9
:104A60000CF0004C43F48013C90241F0004141EACC
:104A7000505EC5021100A5FB020200284FF00000A5
:104A8000EEFB01204FF00001E3FB052118BF42F0CF
:104A90000102401800214941E3FB0E01A4F58064A6
:104AA0000D0302D292184041494154F1010470DDD6
:104AB000450872F1004250F1000051EB0451A1F59C
:104AC000801102D441EA0C0130BD40F2FF7E4CEA75
:104AD0000E51002030BD0CEA1355644518BF6545E2
:104AE00081EA030C0CF0004C41D050EA410E1CBF8F
:104AF00052EA430E02E06146002030BD24422C44BD
:104B00001BD15FEA050EF6D0090302BF0146002063
:104B1000AEF1140EB1FA81F5AEEB050401FA05FE13
:104B20000C35C5F1200100FA05F5C8404EEA000E2B
:104B30006FF35F5343F480139CE733F00043B3FA01
:104B400083F504BFB2FA82FE75440B3D641BB5F1D8
:104B5000200E2FBF02FA0EF3AB40C5F1200E22FA51
:104B60000EFE38BF43EA0E03AA40641C7CE750EAFD
:104B7000410E14BF52EA430E6FF000014FF40015CE
:104B800015EB430F8EBF194615EB410F9DE7B4D8C7
:104B900030BDD4F10104B4F120050FDAC4F12005D1
:104BA000520828BF42F0010210FA05FE01FA05F58D
:104BB0007244E2BFE0402843E1400FE0352C9ADC2C
:104BC000C5F1200452EA400220FA05F218BF42F073
:104BD000010231FA05F0A1400A43002172F10042BE
:104BE00050F1000051EB0C0130BD0000BBBBE1B146
:104BF000B2F5803F80F07E80022A1ED98C46B1FB40
:104C0000F2F102FB11C31B0443EA1043B3FBF2FCB5
:104C100002FB1C3380B240EA0343B3FBF2F002FB19
:104C2000103240EA0C4000237047022A05D984461E
:104C3000B0FBF2F002FB10C270474AB105D100F0A0
:104C4000010249085FEA30007047002200237047E4
:104C500000F0E4B80B0002000021002070479042F1
:104C600071EB030CF6D3B3F5803F2FD2F0B5B3FA56
:104C700083F7B1FA81F4A7F10F0E3D1B5340CEF13B
:104C8000200602FA0EF2F3415340B5F10F0746D861
:104C90000F3C2C444140C4F12006A040F14141406A
:104CA000B1FBF3F603FB1611A2FB0645001BA9415D
:104CB00002D2761E8018594180EA010221FA0EF3D1
:104CC00062FA0EF200215A403046F0BD30B4B1FB1A
:104CD000F3FC03FB1C11A2FB0C45001BA94103D2F2
:104CE000ACF1010C8018594130BC02460B466046BD
:104CF00000217047B2F1807F65D3F0B5B2FA82F738
:104D0000B1FA81F4C7F10F063D1B22FA06F307F151
:104D1000110EF24120355A40B5F10F07B8D9414084
:104D2000C4F12006A040F1414140B1FBF3FC03FB7C
:104D30001C11A2FB0C45001BA94103D2BCF1010CC4
:104D4000801859410F2F12D30F3FC90341EA504138
:104D5000B1FBF3F603FB1611A2FB0645D4EBC03002
:104D6000A94102D2761E8018594146EACC3C07B3CD
:104D70004140C7F12006B840F1414140B1FBF3F694
:104D800003FB1611A2FB0645001BA94102D2761EA9
:104D90008018594180EA010221FA0EF3C7F120047C
:104DA00062FA0EF20CFA07F05A402CFA04F1304382
:104DB000F0BD80EA010221FA0EF3002162FA0EF240
:104DC00060465A40F0BD8C46B1FBF2F102FB11C3C4
:104DD0001B0243EA1063B3FBF2FC02FB1C331B0211
:104DE0004CEA002043EA1063B3FBF2FC02FB1C33E5
:104DF0001B024CEA002043EA1063B3FBF2FC02FB07
:104E00001C331B024CEA002043EA1063B3FBF2FCA4
:104E100002FB1C324CEA0020002370477047000060
:104E2000FEE7FEE7FEE7FEE7FEE7704770477047E4
:104E300080B500F017F801BD80B50748FCF711FBFD
:104E400001BD80B50548FCF70CFB01BD80B50448E9
:104E5000FDF79EFC01BD00002432002084320020BA
:104E60003033002003490A680348006882180A604A
:104E7000704700BFF83300200800002030B4002540
:104E800012E050F8042BD30744BF4A44521E091FB6
:104E9000042942F8045BFAD213468C0744BF1580FC
:104EA0009B1CC90748BF1D7050F8041B0029E8D19E
:104EB00030BC704710B5074979441831064C7C4422
:104EC000163404E00A68081D114488470146A142CF
:104ED000F8D110BD2C000000480000004EF68851AB
:104EE000CEF20001086840F470000860BFF34F8FF5
:104EF000BFF36F8F4FF00170E1EE100A70470000B2
:104F00007DFFFFFF50330000B800002000000000CC
:104F10008BC0FFFFDC01000030000000000000201B
:104F200000F00DF8002801D0FFF7C4FFAFF30080B8
:104F30000020AFF30080FCF70AFC00F002F801202B
:104F4000704700F001B800000746384600F002F84C
:104F5000FBE7000080B5AFF30080024A1100182083
:104F6000ABBEFBE7260002000548014603B46846D5
:104F700080F30988AFF30080FFF7B0FFFFF7D0FFA1
:104F8000A5EDF5FE010002000400060008000A007D
:104F90000C00100020004000800000010000000014
:104FA00000000000010203040607080901488047C9
:104FB00001480047BD4F0008694F000802480168DA
:104FC00051F470010160704788ED00E001010103B8
:104FD00007010000080402040801010100000000AC
:104FE00001020304FFF7FEBFFFF7FEBFFFF7FEBF9E
:104FF000FFF7FEBFFFF7FEBFFFF7FEBFFFF7FEBFE5
:10500000FFF7FEBFFFF7FEBFFFF7FEBFFFF7FEBFD4
:10501000FFF7FEBFFFF7FEBFFFF7FEBFFFF7FEBFC4
:10502000FFF7FEBFFFF7FEBFFFF7FEBFFFF7FEBFB4
:10503000FFF7FEBFFFF7FEBFFFF7FEBFFFF7FEBFA4
:10504000FFF7FEBFFFF7FEBFFFF7FEBFFFF7FEBF94
:10505000FFF7FEBFFFF7FEBFFFF7FEBFFFF7FEBF84
:10506000FFF7FEBFFFF7FEBFFFF7FEBFFFF7FEBF74
:10507000FFF7FEBFFFF7FEBFFFF7FEBFFFF7FEBF64
:10508000FFF7FEBFFFF7FEBFFFF7FEBFFFF7FEBF54
:10509000FFF7FEBFFFF7FEBFFFF7FEBFFFF7FEBF44
:1050A000FFF7FEBFFFF7FEBFFFF7FEBFFFF7FEBF34
:1050B000FFF7FEBFFFF7FEBFFFF7FEBFFFF7FEBF24
:1050C000FFF7FEBFFFF7FEBFFFF7FEBFFFF7FEBF14
:1050D000FFF7FEBFFFF7FEBFFFF7FEBFFFF7FEBF04
:1050E000FFF7FEBFFFF7FEBFFFF7FEBFFFF7FEBFF4
:1050F0000019FD000010FD000001FC000124F4FD7A
:085100000001803F8100DB008B
:0400000508004F6937
:00000001FF
